:020000040800F2
:10000000602400204901000871400008392B0008D5
:10001000214000087D170008FB6D0008000000006B
:100020000000000000000000000000000D6000085B
:10003000F521000800000000B94100085D640008D7
:100040006301000863010008630100086301000800
:1000500063010008630100086301000863010008F0
:1000600063010008630100086301000863010008E0
:1000700063010008630100086301000863010008D0
:1000800063010008630100086301000863010008C0
:1000900063010008630100086301000863010008B0
:1000A00063010008630100086301000863010008A0
:1000B0006301000863010008630100086301000890
:1000C0006301000863010008630100086301000880
:1000D00063010008630100082D6B0008630100083C
:1000E0006301000863010008630100086301000860
:1000F0006301000863010008630100086301000850
:100100006301000855480008630100086301000806
:10011000630100086301000863010008630100082F
:10012000630100086301000863010008630100081F
:10013000DFF810D000F02AFF00480047699E000851
:10014000AFF300806024002006488047064800473F
:10015000FEE7FEE7FEE7FEE7FEE7FEE7FEE7FEE777
:10016000FEE7FEE761640008310100082DE9F05F59
:100170000546002092469B46884606468146402416
:100180001BE0284641464746224600F034FD5346D0
:100190005A46C01A914110D311461846224600F023
:1001A0001BFD2D1A67EB01084F4622460120002156
:1001B00000F012FD17EB00094E41201EA4F10104CE
:1001C000DFDC484631462A464346BDE8F09F40EA18
:1001D00001039B0703D009E008C9121F08C0042AC5
:1001E000FAD203E011F8013B00F8013B521EF9D2AC
:1001F0007047D2B201E000F8012B491EFBD27047D4
:100200000022F6E710B513460A4604461946FFF7E2
:10021000F0FF204610BD30B505462A460B4612F8C1
:10022000010B13F8014B08B1A042F8D01CB1002813
:1002300002D06D1CF1E7284630BDCAB2401E10F84E
:10024000011F8A4202D00029F9D100207047421CC8
:1002500010F8011B0029FBD1801A704710B500224D
:1002600000E0521C835C8C5CA34201D1002BF8D1CE
:10027000D8B2E1B2401A10BD0FB400B58DB010A9CC
:1002800009900B9000914FF0FF300A9000200C90E5
:1002900005480690054807906A4609A80F9900F09E
:1002A000CFFC0DB05DF814FB5D0C00087B0C000862
:1002B0002DE9FF5F1D464FF0FF3BD5E90146914612
:1002C0005F464FF00008A9697F1C01988847296A9A
:1002D000824688470028F6D1BAF1FF3F0CD024F4BB
:1002E000C064002E19DD600614D5BAF12B0F09D0B9
:1002F000BAF12D0F0ED103E0584604B0BDE8F09FCF
:1003000044F48064A9697F1C01988847761E824660
:10031000002E02DDBAF1300F03D0B9F1000F26D064
:1003200032E0A969761E44F400747F1C0198884766
:100330008246002E05DDBAF1780F06D0BAF1580FCB
:1003400003D0B9F1000F10D01EE0B9F1000F02D0B8
:10035000B9F1100F18D1A969761E24F400747F1C1E
:10036000019888478246102002E0082000E00A2019
:10037000814609E008FB0908A969761E44F4007467
:100380007F1C019888478246002E05DD494650466D
:1003900000F041FC0028EDDAE96901988847A005E2
:1003A00002D46FF00100A8E7E00725D1600613D55D
:1003B000600502D5C8F1000000E0404629680A1D2A
:1003C0002A600968220501D5087015E0220701D5C9
:1003D000088011E008600FE02868011D29600068AE
:1003E000210502D580F8008006E0210702D5A0F89B
:1003F000008001E0C0F8008038467EE72DE9FF4F1D
:10040000087883B09946FF2805D0491C2D2804D0D0
:100410000024002008E000200BE00124F9E700EBB5
:10042000800003EB4000491C0B78FF2BF7D104B18F
:10043000404200230293147819461D462D2C01D00A
:100440002B2C04D1521C2D2C13D000240294AA462C
:100450001478FF2C0FD00A25A3FB057801FB05813A
:100460004FF0000C03FB0C11521CE3194AEB010185
:10047000EEE70124EAE7814453EA010002D019F5CE
:10048000C87F06DA03980021C0E9001107B0BDE873
:10049000F08F0025AE4E2F46DFF8B882184600F0E8
:1004A00038FDCDE90001B9F1000002DAC9F100041C
:1004B00000E004460023A74A1AEB030B42EB045A60
:1004C00012E0E00707D02A4633463846414600F09E
:1004D0000DFA074688462A4633461046194600F06C
:1004E00005FA05460E466410002CEAD1DDE900014C
:1004F000B9F1000F5A46534606DA00F069FA3A4657
:10050000434600F065FA05E000F0F0F93A4643464C
:1005100000F0ECF9029A0AB181F00041039AC2E9B5
:100520000001B3E72DE9FF4F1F468DB0D7E9014623
:100530004FF0FF382E2045464FF000090B90B96967
:100540006D1C0E988847396A824688470028F6D184
:10055000BAF1FF3F0AD024F4D064002E11DDBAF1C5
:100560002B0F08D0BAF12D0F0BD102E0404611B08D
:100570008DE744F48064B9696D1C0E988847824603
:10058000761E6946600501D52D2000E02B208DF8F0
:10059000000001F1010B0DF1200809E0B9696D1CA3
:1005A0000E98884782460F9844F40074761E0560C2
:1005B000002E02DDBAF1300FF0D00B998A453ED102
:1005C00044F0800406E00F99681CA9F1010944F485
:1005D00000740860B9696D1C761E0E9888478246C3
:1005E0003028F0D02BE00B998A4505D1200603D4A2
:1005F00044F08004761E18E0504607F091FA08B3E4
:100600000DF11301761E44F400748B4508D2AAF153
:1006100030000BF8010B200607D5A9F1010003E01B
:10062000200602D409F101008146A00502D50F99E8
:10063000681C0860B9696D1C0E9888478246002EB8
:10064000D1DC53E0002E51DDBAF1650F02D0BAF1D2
:10065000450F4BD1A00549D5B9696D1C24F44074F0
:10066000761E0E9888478246002E0CDD2B2804D07B
:10067000BAF12D0F07D144F48074B9696D1C0E983E
:1006800088478246761EE00501D52D2100E02B210A
:1006900008F8011BCDF82C8021E00DF12901761E10
:1006A00044F4007488450CD2AAF1300010F0FF0029
:1006B00088F8000002D10B99884509D908F1010892
:1006C00006E0E00501D5244801E042F20F708146C2
:1006D000B9696D1C0E98884782460F980560002EF8
:1006E00004DD504607F01CFA0028D6D1F9690E98AF
:1006F0008847FF208BF8000088F800000020069053
:1007000007904B466A4608A906A8FFF777FEA005A2
:1007100002D46FF001002AE714F0240F0AD0E0079A
:1007200014D1DDE906123868031D3B600068C0E99A
:1007300000120BE0DDE9060100F007FA0146E007D0
:1007400004D13868021D3A600068016028460EE74F
:10075000000014400000F03FF1D8FFFFF0B480EA41
:100760000102D40F4200B2EB410F02D2024608460A
:1007700011464A0042D0C30DDDB2C1F3C752AD1AD3
:10078000202D35DAC1F3160141F4000204B15242C2
:10079000C5F1200602FA06F12A411044B3EBD05FFE
:1007A00023D0C4B1012DA0EBC35009DCF0BC4FF045
:1007B000004202EAC352DBB200F5000000F077BA53
:1007C000400000F1807000EBC350A0F1807040EA5F
:1007D000D170490009E0490841EAC071A0EBC3505B
:1007E00000F50000400800EBC350F0BC00F056BA22
:1007F0006142012202EB4101001BF6E7F0BC7047A9
:1008000081F00041AAE780F00040A7E780EA0102FA
:1008100010B502F00043400022D04A001FD0010E64
:1008200001EB1261C0F35600C2F3560240F400001F
:1008300042F40002A0FB022000047F39140400D01F
:10084000401C50EA124001D44000491EC2B20C06BE
:1008500004EBD010401C4008802A02D003E00020A6
:1008600010BD20F00100002900DA0020184310BD5F
:1008700030B480EA010202F0004530F0004221F07D
:10088000004013D090B1C30DD40DC2F31601C0F3D4
:100890001600E41A41F4000140F400027D34914254
:1008A00001D3641C00E04900002C02DA30BC0020B7
:1008B00070474FF400000023914201D3891A03438B
:1008C00040084FEA4101F7D151B1914202D14FF0B6
:1008D000004105E002D24FF0010101E06FF001019B
:1008E00003EBC450284430BC00F0D8B92DE9FE4FCA
:1008F00081EA030404F0004421F0004100944FF029
:10090000000B23F0004350EA01045ED052EA0304D6
:100910005BD0C3F30A54C1F30A552C44A4F2F33458
:100920000194A0FB0254C1F3130141F48011C3F3FD
:10093000130343F4801301FB024400FB034E840ABB
:10094000970A44EA815447EA8357A4FB0768029553
:100950008D0A05FB07854FEA932C04FB0C542705F1
:10096000029D4FEA065847EA1637B5EB08056EEBCD
:10097000070C870E920E47EA811742EA8312A7FB03
:100980000201B6EB0B0164EB00042B0D43EA0C33C0
:100990005E1844EB1C50DA465146E7FB0201C5F3F2
:1009A00013044FEA0B3343EA14534FEA0432019C19
:1009B00043EA0603A4F10C040294009CCDE900B4C0
:1009C00000F0B2F903B0BDE8F08F00200146F9E76E
:1009D0002DE9F04D81EA030404F0004B21F00045BD
:1009E00014464FF0000A23F0004150EA050220D0DF
:1009F00054EA01021DD0C5F30A570246C5F313039A
:100A0000C1F31300C1F30A5640F4801543F4801378
:100A1000A7EB0608101BD64608F2FD3873EB05005D
:100A200002D308F1010801E092185B41B8F1000F10
:100A300003DA00200146BDE8F08D00204FF480115C
:100A4000064684460EE0171B73EB050705D3121B01
:100A500063EB050306434CEA010C49084FEA3000FA
:100A600092185B4150EA0107EDD152EA030012D01F
:100A700082EA040083EA0501084305D0101BAB415C
:100A800006D20122002306E000224FF0004302E0DC
:100A90006FF0010253101AEB06004CEB085110EBFB
:100AA0000A0041EB0B01BDE8F04D00F02EB9C10F7B
:100AB00080EAE0700844CA079623002100F0F7B8E6
:100AC00096230022114600F0F2B800F0004220F018
:100AD0000040C10DC0F3160040F400007F2901DA88
:100AE00000207047962903DCC1F19601C84001E05F
:100AF00096398840002AF4D04042704720F00040E8
:100B0000C10DC0F3160040F400007F2901DA002077
:100B10007047962903DCC1F19601C84070479639A9
:100B20008840704700F0004230F000400AD0C10D0C
:100B300001F56071C0F3160042EA0151C208400796
:100B40001143704700200146704701F0004330B464
:100B500021F0004150EA010206D00A0DA2F56072B0
:100B6000C1F31301002A02DC30BC00207047440F9F
:100B700044EAC104C100E01830BC00EBC25000F0F0
:100B80008DB80000002801DBC0F10040002901DB26
:100B9000C1F1004181427047002801DBC0F10040F3
:100BA000002901DBC1F100418842704730B50B4696
:100BB000014600202022012409E021FA02F59D428D
:100BC00005D303FA02F5491B04FA02F52844151E61
:100BD000A2F10102F1DC30BD202A04DB203A00FA48
:100BE00002F1002070479140C2F1200320FA03F384
:100BF000194390407047202A04DB203A21FA02F082
:100C00000021704721FA02F3D040C2F12002914046
:100C10000843194670473A2800D2303820F02002A5
:100C2000412A01D3A2F13700884201D34FF0FF30AF
:100C3000704700000268114413780160184670473D
:100C4000D1600449516104491162002111611146CA
:100C500000F0C6B9350C0008D50F0008426842B153
:100C6000016811F8013B23B1521EC0E90012184679
:100C700070470121C160881E704742685AB1C3683D
:100C8000016843B983688B4205D0491E521CC0E9F4
:100C90000012002070474FF0FF3070470029A8BFB6
:100CA0007047401C490008BF20F00100704710B495
:100CB000B0FA80FC00FA0CF050EA010404BF10BC4A
:100CC000704749B1CCF1200421FA04F411FA0CF177
:100CD00018BF012121430843A3EB0C01CB1D4FEAB0
:100CE00000614FEA102042BF002010BC704700EBAB
:100CF000C35010440029A4BF10BC7047401C4900D9
:100D000008BF20F0010010BC704710B5141E73F12D
:100D1000000408DA401C41F1000192185B411A43BB
:100D200001D120F0010010BD2DE9F04D92469B4607
:100D300011B1B1FA81F202E0B0FA80F220329046AD
:100D4000FFF74AFF04460F4640EA0A0041EA0B015A
:100D500053465A46084313D0114653EA010019D0AE
:100D6000C8F140025046FFF746FF05460E46504682
:100D700059464246FFF730FF084305D0012004E002
:100D800020463946BDE8F08D0020054346EAE0766E
:100D90002C4337430A986305E40AA0EB08000022BD
:100DA000FD0A44EA47540A3002D500200146E9E72B
:100DB000010510196941DDE9084500196941BDE8DF
:100DC000F04DA2E72DE9FE4F804681EA0300C00FF7
:100DD0000C46009021F0004123F00045B8EB0200E2
:100DE000A94105D24046214690461C460B46024684
:100DF00023F00040104347D0270DC7F30A00C3F388
:100E00000A510290401A019040286BDAC3F3130094
:100E100040F4801B0098924620B10023D2EB030AD5
:100E200063EB0B0B01985946C0F140025046FFF7A7
:100E3000D3FE06460D4650465946019A00F0B8F8D2
:100E400010EB08006141002487EA115284EAE7733D
:100E50001A4340D0009A62B3019A012A4FEA07521E
:100E600015DC001B61EB02014FF0004202EA075261
:100E7000CDE90042001C41F5801132462B46FFF7B8
:100E800053FF03B0BDE8F08F40462146F9E7001B51
:100E900061EB0201001C41F5801300185B41201832
:100EA000A2F5001747EB030140EAD570B6196D4172
:100EB00011E06D084FEA360645EAC0754FEA075261
:100EC000001B61EB0201001C41F5801149084FEA4B
:100ED00030000019514132462B4603B0BDE8F04FB7
:100EE000FFF713BF0098012240000023D0EB02025D
:100EF00063EBE073009821464FEAE074B8EB000022
:100F000061EB0401E9E783F000435BE781F0004116
:100F100058E70EB540F2334202920022CDE900229A
:100F20001346FFF701FF03B000BDC1F30A52C1F33E
:100F3000130140F2FF3341F480119A4202DA00209B
:100F40000146704740F233439A42A2F2334202DC38
:100F50005242FFF750BEFFF73FBE000030B5041EFF
:100F600071F1000404DB4FF00044404264EB0101E6
:100F7000141E73F1000405DB1C464FF0004352427F
:100F800063EB0403994208BF904230BD064C074D05
:100F900006E0E06840F0010394E807009847103449
:100FA000AC42F6D3FFF7C8F878910308989103088C
:100FB000202A06DBCB17203A41FA02F043EAE0731D
:100FC00006E041FA02F3D040C2F12002914008430A
:100FD00019467047C0B24FF4F05100F0EDB900006F
:100FE0002DE9F34F8BB04FF0000801F10C000C46D7
:100FF0004FF0010B46460DF1080A0190626901218C
:1010000001989047051E2DD0252D2CD0216A8847A8
:10101000C0B16269012101989047216A8847002880
:10102000F7D1411E62690198904700E0761CA169E2
:101030000B988847216A88470028F7D1E1690B9807
:101040008847DBE7A1690B9888470746A84201D18A
:10105000761CD3E7E1690B9888477F1C02D1B8F171
:10106000000F6FD047E1002762693D46394601987D
:1010700090472A2804D162690121019890470125EF
:10108000DFF888926269012101989047A0F1300150
:101090000A290AD24F45E5DC07EB870100EB41073F
:1010A000303FDFD445F01005ECE7E90601D46FF0DE
:1010B00000476C280AD04C2814D0682815D06A281C
:1010C0000DD074281CD07A281AD01DE06269012145
:1010D000019890476C2802D045F0040514E045F0D3
:1010E00002050DE045F020050AE062690121019842
:1010F0009047682802D045F0080505E045F40065F2
:101100006269012101989047C4E9015765283DD0E3
:1011100019DC58287AD00CDC452837D004DC252887
:1011200026D0412831D131E046282FD047282CD174
:101130002CE05B2877D0612828D063287CD06428F5
:1011400023D15AE0D1E06F2848D008DC66281DD0B2
:1011500067281BD0692821D06E2816D127E0702877
:1011600045D0732868D0752847D078280DD14DE038
:10117000A1690B988847054625283FF469AFE169C6
:101180000B9888476D1C3FF46AAFB4E023466A466B
:101190006FF001000B99FFF7C5F99FE045F04000A3
:1011A0006060A80723464FF0000236D43EE0E8070F
:1011B0007FF447AF2068011D21600068290501D533
:1011C00006701BE7290701D5068017E7A90703D595
:1011D000F117C0E9006111E706600FE745F0400034
:1011E0006060A80723464FF0080216D41EE040F6C0
:1011F0000E0125EA0100606016E045F040006060E5
:10120000A80723464FF00A0207D40FE045F040003C
:101210006060A80708D5234610226FF001000B99E3
:10122000AFF300805AE007E0234610226FF0010080
:101230000B99FFF73DF851E04FF000094F464B4640
:10124000632802D05B2807D041E02079C00601D492
:101250000120A06001273AE06269012101989047CE
:101260005E2805D14FF0010962694946019890470F
:10127000216939B900210A46534643F82120491C07
:101280000829FADBB0B3216969B9C11700EBD16253
:1012900053110AEB830122F01F02821A01200B680E
:1012A000904003430B6062690121019890475D28DB
:1012B000E8D1B9F1000F09D00020514651F82020A3
:1012C000D24341F82020401C0828F7DB02AB22461D
:1012D00000976FF001000B99AFF3008000280CDA43
:1012E000401C08D1BBF1000F05D04FF0FF300DB00E
:1012F000BDE8F08FFFE74046F9E7E90701D108F1C3
:10130000010806444FF0000B78E60000CCCCCC0C72
:1013100070B521F0004303430CD0C1F30A550024FB
:10132000D5EB040564EB0403D617AD1AB34102DB19
:101330000020014670BD201841EB025170BD0EB572
:10134000C10F80EAE0700844CA07002140F233432D
:101350008DE80E000A460B46FFF7E6FC03B000BD21
:101360000EB540F2334102910021CDE900110A4649
:101370000B46FFF7D9FC03B000BD70B5C1F30A52AC
:1013800001F000450024C1F3130140F2FF3341F4A2
:1013900080119A4201DA002070BD40F233439A4234
:1013A000A2F2334203DC5242FFF725FC00E09040FA
:1013B0002C43F1D0404270BD7F2801D9002208E0C3
:1013C000064A02EB5002C007127800D1120902F05F
:1013D0000F02012090400840704700003891030838
:1013E00070B58C1810F8015B15F0070301D110F8E7
:1013F000013B2A1106D110F8012B03E010F8016B14
:1014000001F8016B5B1EF9D12B0705D40023521E96
:101410000DD401F8013BFAE710F8013BCB1A921CFE
:1014200003E013F8015B01F8015B521EF9D5A142FC
:10143000D8D3002070BD00002DE9F0410C49488848
:1014400001F040F80446B4F5805F01DB40F6FF741C
:101450002046FFF735FB07460649FFF7D7F9064652
:101460000549FFF705FA05462846BDE8F08100006A
:101470005E01002000404E4500F07F4521B18268AA
:1014800042F00102826003E0826822F00102826081
:10149000704721B1826842F48072826003E0826802
:1014A00022F4807282607047014600208A6802F050
:1014B00004020AB1012000E000207047014600202C
:1014C0008A6802F008020AB1012000E0002070479B
:1014D00030B502460020002350680F4C20400D79A3
:1014E0000C6844EA05242043506090680B4C20406F
:1014F000D1E902542C434D7944EA450420439060DD
:10150000D06A20F470000C7C641EE4B2234340EAED
:101510000350D06230BD0000FFFEF0FFFDF7F1FF89
:10152000F0B504460D4600200021092D11DDE068CC
:10153000A5F10A0606EB4607072606FA07F18843D7
:10154000A5F10A0606EB460603FA06F10843E06039
:101550000CE0206905EB4507072606FA07F18843EA
:1015600005EB450603FA06F108432061072A0FDA66
:10157000606B561E06EB86071F2606FA07F18843A6
:10158000561E06EB860605FA06F10843606322E064
:101590000D2A0FDA206BD61F06EB86071F2606FAE8
:1015A00007F18843D61F06EB860605FA06F10843C5
:1015B000206310E0E06AA2F10D0606EB86071F2605
:1015C00006FA07F18843A2F10D0606EB860605FA36
:1015D00006F10843E062F0BD816841F008018160D6
:1015E000704721B1826842F4A002826003E0826801
:1015F00022F4A00282607047816841F0040181609A
:101600007047000008B50121102002F003FE0320FE
:10161000ADF8000000208DF803006946014801F094
:10162000C9F908BD0010014010B5FFF7EBFF00F04D
:1016300001F810BD00B591B00121084602F0CAFDC5
:101640000121480202F0E6FD364800F093F93648E1
:10165000069036480790002008900220099000204C
:101660000A9080200B9040000C9080000D9020206C
:101670000E9000020F900020109006A9294800F05B
:1016800035FA0121274800F069F900200190012076
:101690008DF808008DF809004FF4602003900020B9
:1016A000049002208DF8140001A91F484C38FFF760
:1016B0000FFF4FF4004002F081FD032301220A21B5
:1016C00019484C38FFF72CFF032302220B21164840
:1016D0004C38FFF725FF012113484C38FFF7D9FE9E
:1016E000012111484C38FFF7C9FE0F484C38FFF76D
:1016F00073FF00BF0C484C38FFF7E0FE0028F9D11B
:1017000009484C38FFF778FF00BF07484C38FFF70F
:10171000CBFE0028F9D1012103484C38FFF761FFC7
:1017200011B000BD080002404C2401405E010020C1
:101730002DE9F04104460D4F0D4801682046FFF7A2
:101740000DF880460B4801684046FFF759F80646F9
:101750003946FFF75BF80546064804600448056013
:1017600005492846FEF7FAFFBDE8F08117D97E3F0C
:10177000680100206C01002000F0FF4400BFFEE77C
:1017800070B500254FF4803400E0641E24B1802041
:1017900003F040F80028F8D014B90325284670BD9E
:1017A00040F2FF5002F0EEFF2846F8E7014600BF86
:1017B0000748406B00F045000028F9D040F2FF5088
:1017C000034A90631046406908221040C0B2704737
:1017D0000080014070B500251048446B01E00F48BF
:1017E000446B04F045000028F9D004F0040028B14F
:1017F0000325042002F0C6FF284670BD04F0010056
:1018000028B10125012002F0BDFF2846F5E740F28E
:10181000FF5002F0B7FF2846EFE7000000800140CC
:1018200070B500250B48446B01E00A48446B04F096
:1018300045000028F9D004F0040028B10325042055
:1018400002F0A0FF284670BD40F2FF5002F09AFF60
:101850002846F8E7008001402DE9F04106460F4692
:101860004FF000082248456B01E02148456B05F028
:1018700045000028F9D005F0040038B14FF0030806
:10188000042002F07FFF4046BDE8F08105F0010032
:1018900030B14FF00108012002F074FF4046F3E739
:1018A00002F0B2FFB04203D04FF010084046EBE721
:1018B00040F2FF5002F066FF002002F0BFFF044636
:1018C00004F4604018B9200C38804046DCE704F48A
:1018D000005008B11320D7E704F4804008B110206D
:1018E000D2E704F4004008B10F20CDE74046CBE733
:1018F0000080014070B500264FF480350F48446BDE
:1019000002E06D1E0D48446B04F0450008B9002D3F
:10191000F7D115B104F0040028B10326042002F029
:1019200031FF304670BD04F0400028B10026402051
:1019300002F028FF3046F5E73046F3E7008001402B
:1019400000F0805111B10349086001E0024948608C
:1019500070470000040402400000024021B1026808
:1019600042F00102026004E002684FF6FE731A4082
:101970000260704701684FF6FE721140016000215D
:10198000016041608160C1604B49884208D14A4989
:101990000839496841F00F01474A083A51608AE026
:1019A00045491431884208D143490839496841F012
:1019B000F001414A083A51607DE03F4928318842B0
:1019C00008D13D490839496841F470613A4A083AFA
:1019D000516070E038493C31884208D136490839B5
:1019E000496841F47041344A083A516063E0324931
:1019F0005031884208D130490839496841F4702192
:101A00002D4A083A516056E02B496431884208D18A
:101A100029490839496841F47001274A083A516058
:101A200049E025497831884208D123490839496875
:101A300041F07061204A083A51603CE01F498842F9
:101A400006D1011F096841F00F01021F116032E049
:101A50001A491431884208D11849091F096841F010
:101A6000F001164A121F116025E0144928318842FE
:101A700008D11249091F096841F470610F4A121F09
:101A8000116018E00D493C31884208D10B49091F0B
:101A9000096841F47041094A121F11600BE00749BF
:101AA0005031884207D10549091F096841F4702166
:101AB000024A121F116070470800024008040240E9
:101AC00001460020002201F0805313B1054B1A6833
:101AD00001E0054B1A6802EA01030BB1012000E0A6
:101AE00000207047000402400000024010B50022B0
:101AF000026847F6F0739A430C6A8B6823430C69BB
:101B000023434C6923438C692343CC6923434C6AA8
:101B100023438C6A23431A430260CB6843600B68FB
:101B200083604B68C36010BD2DE9F8430024002595
:101B300000260027A0464FF076095D48008800285F
:101B40000CDD5B4800885B490978884205DC584811
:101B5000008858494978884200DA0124544840886E
:101B6000002806DD5248408852498978884200DAC8
:101B700001254F4948685049FFF70EF807D24D4AF2
:101B800051684B4A5068FFF707F800D201264848D1
:101B9000007A002812DD4648407A00280EDD4448CD
:101BA000007A4449097B884200DD01274048407A99
:101BB0004049897B884201DA4FF001083F4801F033
:101BC000A1FF54B100214FF4784001F091FF3CA2F5
:101BD0003C21484601F04EF90AE0002001F098FF50
:101BE0000120102308223C210090484601F062FAAF
:101BF00055B100214FF4784001F07AFF30A26E21F8
:101C0000484601F037F90AE0002001F081FF012089
:101C1000102308226E210090484601F04BFA56B17D
:101C200000214FF4784001F063FF25A2A02148462F
:101C300001F020F90AE0002001F06AFF01201023E2
:101C40000822A0210090484601F034FA57B1002143
:101C50004FF4784001F04CFF19A2C321484601F02F
:101C600009F90AE0002001F053FF012010230822A7
:101C7000C3210090484601F01DFAB8F1000F0AD0C8
:101C800000214FF4784001F033FF0DA2D7214846E0
:101C900001F0F0F80AE0002001F03AFF01201023E3
:101CA0000822D7210090484601F004FABDE8F883E5
:101CB000F4010020380100200000F041FC00002069
:101CC0002100000010B5002001F00CFF3B48038804
:101CD0003B4802880021084600F0EEFF394801F039
:101CE00011FF00214FF6E07001F002FF36A20A2139
:101CF000322001F08FF800214FF4784001F0F8FE17
:101D000034A20A214FF4827001F084F84FF2DE70A1
:101D100001F0FEFE2823DA001946002001F07AF9CE
:101D20005A234FF4A0721946002001F073F98C2356
:101D30004FF4A0721946002001F06CF9BE234FF455
:101D4000A0721946002001F065F9F02387222821AE
:101D5000104601F05FF9214801F0D4FE4FF47840BD
:101D600001F0D6FE1EA237210A2001F053F84FF4ED
:101D7000FC6001F0CDFE1CA269210A2001F04AF8A6
:101D80004FF6FF7001F0C4FE19A29B210A2001F05A
:101D900041F847F6FF7001F0BBFE17A2CD210A20E3
:101DA00001F038F816A2C321372001F063F815A21C
:101DB000D721372001F05EF810BD00001E00002082
:101DC0001C00002004010020D7DBBACFD2C7B1ED40
:101DD00000000000B7B5BBD800000000FC000020E8
:101DE000D0C4C2CAA3BA0000D1AAD1F5A3BA0000D8
:101DF000CCE5CEC2A3BA0000D1AAD1B9A3BA0000E3
:101E0000483A00004C3A00002DE9F04F8DB04FF0F9
:101E10008C0A40F23B1BB020049002F0CFFA8146BE
:101E2000D548007898B1D54890F84100D449088049
:101E3000D24890F842004880D04890F84700087295
:101E4000CE4890F8480048720020CB490870CD4831
:101E50000088401C80B2CB490880322808DB002073
:101E6000088001F0F9FE0746FEF76FFEC44948609E
:101E7000C34840898C3084B2C1484089401CB0219D
:101E800090FBF1F201FB12008C3086B2B6F59E7F1A
:101E900002DBA6F1AF0086B2B9490888FEF710FE52
:101EA0000746B94BB94A3946002002F073F8ADF83D
:101EB0000400B3494888FEF703FE0746B44BB54A11
:101EC0003946012002F066F8ADF80600AC48B24B86
:101ED000B24A4168022002F05DF8ADF80800A84956
:101EE000087AFEF7EDFD0746AD4BA84A39460320B8
:101EF00002F050F8ADF80A00A149487AFEF7E0FD7B
:101F00000746A74BA14A3946032002F043F8ADF833
:101F10000C00002001F0FCFD5923324629213046F7
:101F200001F078F88B2332465B21304601F072F8DD
:101F3000BD2332468D21304601F06CF8EF23324646
:101F4000BF21304601F066F88D48408900283CDD0D
:101F50004FF4784001F0DCFDBDF80430884A9189E7
:101F6000621E90B2224601F055F84FF4FC6001F079
:101F7000CFFDBDF80630824AD189621E90B222465A
:101F800001F048F84FF6FF7001F0C2FDBDF80830CF
:101F90007B4A118A621E90B2224601F03BF847F656
:101FA000FF7001F0B5FDBDF80A30754A518A621E16
:101FB00090B2224601F02EF8BDF80C30704A918A9A
:101FC000621E90B2224601F025F8002508E001A823
:101FD00030F815106A480C3020F81510681CC5B28E
:101FE000052DF4DB66484089401C65494881084658
:101FF0004089B02801DB002048816A4801F082FD59
:102000005F4800886849098888421CD000214FF445
:10201000784001F06DFD5A48008828B963A23C2140
:10202000322000F027FF0AE05548028861A105A888
:1020300005F056F905AA3C21322000F01BFF50485C
:102040000088594908804E4840885C490988884280
:102050001CD000214FF4FC6001F04AFD4848408844
:1020600028B957A26E21322000F004FF0AE044484C
:10207000428856A105A805F033F905AA6E21322041
:1020800000F0F8FE3E4840884C4908803C494868CA
:1020900050490968FEF776FD18D000214FF6FF7011
:1020A00001F026FD36494868FEF73CFD07463A46F2
:1020B0000B4649A105A805F013F905AAA021322075
:1020C00000F0D8FE2E484068424908602C48007A4B
:1020D00043490978884205D12948407A414909781D
:1020E000884236D0002147F6FF7001F001FD2D48EF
:1020F00001F008FD2248008868B92148007A50B9EB
:1021000039A2C321502000F0B5FE37A2D7215020BC
:1021100000F0B0FE15E01A48027A34A105A805F0D7
:10212000DFF805AAC321502000F0A4FE1448427A2B
:102130002EA105A805F0D4F805AAD721502000F05B
:1021400099FE0F48007A264908700D48407A2549C3
:102150000870FFF7E9FC0A480088002808DD2448D9
:102160000068814504D002F01BFF2148C0F80090B0
:102170000DB0BDE8F08F0000140000209C0100208D
:10218000F40100204C0100200000344300002042F4
:102190000000C8420000A042000028420000A04108
:1021A00000002043FC0000201C010020202D2D20D9
:1021B00042504D002533642042504D001E01002046
:1021C000202D2D202525202000000000253364200F
:1021D000252520002401002025322E3166204300D1
:1021E00020010020210100202D2D2D002533640029
:1021F000500100207047F8B505460C4647F6FF70C1
:1022000001F086FC0020A4F1140291B2A5F11E0297
:10221000009090B228233C2200F04CFF04F10A0603
:10222000B3B205F11406B2B204F10A06B1B2A5F1D7
:102230001406B0B200F0EEFE661FB3B2A5F10F06B1
:10224000B2B2661DB1B2A5F10F06B0B200F0E2FE67
:10225000A4F10A0083B2601D81B22A46284600F02C
:10226000D9FEA61EB3B205F10F06B2B2661DB1B219
:1022700005F10F06B0B200F0CDFE4FF6FF7001F091
:1022800047FC621F91B2324690B201F0A3FBF8BD49
:10229000F8B504460D464FF6E07001F039FC002019
:1022A000A5F1140291B2A4F10F02009090B22D2377
:1022B000232200F0FFFE0020A5F10F0291B2A4F14D
:1022C0001402009090B22D23232200F0F3FE6E1F23
:1022D000B3B204F10A06B2B26E1FB1B2A4F10F0696
:1022E000B0B200F097FE6E1DB3B2661DB2B26E1DA5
:1022F000B1B2A4F10F06B0B200F08CFE05F10F06EA
:10230000B3B204F10A06B2B205F10F06B1B2A4F1FC
:102310000F06B0B200F07EFEF8BD70B504460D4663
:102320004FF2DE7001F0F4FB002312222946204612
:1023300000F0D4FD012305222946204600F0CEFD01
:10234000A5F1120083B2C01F81B22246204600F0E0
:1023500061FE05F1190083B2C01F81B222462046FA
:1023600000F058FEA4F112018AB2C91F88B22B46B0
:10237000294600F04FFE04F119018AB2C91F88B244
:102380002B46294600F046FEA5F10D06B3B2A4F196
:102390000D06B2B2A5F11206B1B2A4F11206B0B2A6
:1023A00000F038FE05F11206B3B204F11206B2B223
:1023B00005F10D06B1B204F10D06B0B200F02AFE2F
:1023C000A5F10D06B3B204F10D06B2B2A5F11206E5
:1023D000B1B204F11206B0B200F01CFE05F1120613
:1023E000B3B2A4F11206B2B205F10D06B1B2A4F176
:1023F0000D06B0B200F00EFE70BD38B504460D46B5
:102400004FF4FC6001F084FB0020A5F1190291B2A9
:10241000A4F12302009090B23223462200F04AFE3B
:10242000A4F10F018AB20A3988B22B46294600F07E
:10243000F1FD691F8BB2A4F10C018AB2C91E88B2EA
:10244000294600F0E7FDA4F108039AB26B1F99B288
:10245000A4F10C0398B22B4600F0DCFD691D8BB291
:10246000611F8AB2C91E88B2294600F0D3FDA5F1CA
:10247000140293B26A1D91B2621F90B2224600F01C
:10248000C9FD05F10F0083B2601D82B2A5F11400F1
:1024900081B2204600F0BEFD04F10A039AB205F1B4
:1024A0000F0399B2631D98B22B4600F0B3FD04F1FF
:1024B00019018AB20F3988B22B46294600F0AAFDCD
:1024C00038BD00002DE9F04104462046FEF7F8FA39
:1024D00005462846FFF72CF90546284601F00CFE74
:1024E0000546284601F01AFB05462846FEF706FB7E
:1024F00087B2384601F096FD0646FEF7E1FA05463A
:1025000000212846FEF73EFB00D20025054928465B
:10251000FEF742FB00D2034D2846FEF7EFFA80B2E9
:10252000BDE8F08100F07F4510B5184803881848D1
:1025300002880021084600F0BFFB164801F0E2FACD
:10254000002147F6FF7001F0D3FA13A20A210846D2
:1025500000F060FC00214FF4784001F0C9FA11A2AC
:102560000A21F02000F056FC4FF2DE7001F0D0FAA4
:102570002823DA001946002000F04CFD00200B490A
:10258000488178200A49088010BD00001E00002004
:102590001C00002004010020D0C4B5E7B2E2C1BF96
:1025A00000000000B7B5BBD800000000F401002017
:1025B0002A0100202DE9FF5F4FF00A094FF49B7AB2
:1025C0004FF4967B012002908C20019033480088C4
:1025D000401C80B231490880052801DABDE8FF9F20
:1025E00000202E490880FEF727FF03902C4903980E
:1025F000FEF706F90090FEF768FA0FFA80F89620C9
:1026000008FB00F04FF47A7190FBF1F0C0F18C0000
:1026100084B2292C00DA2924EF2C00DDEF24214894
:1026200040890A3085B2002001F072FA002712E0DA
:102630001C484089801C4FF4967190FBF1F201FB1D
:1026400012000A3086B2EF2332462921304600F0CC
:10265000E1FC781CC7B2012FEADD1248408900284E
:102660000BDD4FF4FC6001F053FA691E88B223467B
:102670002A460D49098800F0CDFC0B480480094822
:102680004089401C0749488108464089B0F5967F3B
:1026900001DB0020488100BFA0E700005A010020B4
:1026A0000040CE44F40100202A01002051B18200F4
:1026B000A2F1C042126842F001038200A2F1C042BE
:1026C000136009E08200A2F1C0421268034B1A4075
:1026D0008300A3F1C0431A6070470000FEFF0F00A3
:1026E000D0E901121143C2681143026911434269E2
:1026F000114382691143C2691143026A1143426A5C
:102700001143826A1143C26A1143026B114302688A
:102710009200A2F1C0421160816808290BD10168C2
:102720008900A1F1C041096841F0400201688900B7
:10273000A1F1C0410A60416B0968426B526841EAED
:102740000211426B926841EA0221426B928941EA8E
:102750000241426B128A41EA0251426B127D41EA08
:102760000261426B926911430268521C9200A2F10D
:10277000C0421160C16AB1F5804F1BD1816B0968FD
:10278000826B526841EA0211826B926841EA02212F
:10279000826B128A41EA0251826B127D41EA026128
:1027A000826B9269114302689200A2F1C042C2F8A2
:1027B000041107E06FF0704201688900A1F1C04187
:1027C000C1F80421704700002DE9FC4107460D4681
:1027D0000026002400200090019008205D49086038
:1027E00010204860402088600020C8604FF480605E
:1027F0000861084602F060F81020FEF7D7FF044693
:1028000014B12046BDE8FC815348008800045149BA
:10281000086037204860402088600020C8604FF47E
:1028200080600861084602F047F83720FEF7BEFFD7
:1028300004460CB12046E5E74FF0FF3047490860F9
:1028400008204860302088600220C86000200861AD
:1028500001204861084601F0ADFF00203D490860B5
:1028600033204860402088600020C8604FF48060BA
:102870000861084602F020F83320FEF797FF04466F
:102880000CB12046BEE70CE04FF4001001F0C2FF8F
:1028900038B102F00BF84DF82600761C012E00D955
:1028A00006E02F48406B40F22A6108400028EBD038
:1028B00000BF082001F0AEFF28B1082001F062FF40
:1028C000042420469EE7022001F0A4FF28B1022044
:1028D00001F058FF0224204694E7202001F09AFFDF
:1028E00028B1202001F04EFF062420468AE74FF44D
:1028F000007001F08FFF30B14FF4007001F042FF23
:10290000072420467EE740F2FF5001F03BFF00988D
:102910000006009901F47F4140EA0120009901F48A
:102920007F0140EA1120009940EA11606860019837
:102930000006019901F47F4140EA0120019901F468
:102940007F0140EA1120019940EA11602860204689
:1029500058E700000004002080010020140400203B
:102960000080014008B50121302001F053FC4FF4F4
:10297000F850ADF8000003208DF8020018208DF803
:1029800003006946094800F015F80420ADF800007E
:102990006946074800F00EF80121880201F01AFC90
:1029A0000121022001F016FC08BD000000100140CA
:1029B000001401402DE9F0410246002500260020C8
:1029C00000230024002791F803C00CF00F0591F8B4
:1029D00003C00CF0100CBCF1000F03D091F802C042
:1029E0004CEA050591F800C0BCF1000F31D0146825
:1029F00000202BE04FF0010C0CFA00F3B1F800C0FE
:102A00000CEA03069E4220D183004FF00F0C0CFA13
:102A100003F7BC4305FA03FC4CEA040491F803C035
:102A2000BCF1280F06D14FF0010C0CFA00FCC2F8E3
:102A300014C00AE091F803C0BCF1480F05D14FF073
:102A4000010C0CFA00FCC2F810C0401C0828D1D3BD
:102A50001460B1F800C0BCF1FF0F34DD54680020F1
:102A60002EE000F1080C4FF0010808FA0CF3B1F861
:102A700000C00CEA03069E4221D183004FF00F0CE8
:102A80000CFA03F7BC4305FA03FC4CEA040491F882
:102A900003C0BCF1280F05D100F1080C08FA0CF8AE
:102AA000C2F8148091F803C0BCF1480F07D100F1BF
:102AB000080C4FF0010808FA0CF8C2F81080401C0E
:102AC0000828CED35460BDE8F08102460020936808
:102AD0000B400BB1012000E00020704741617047BE
:102AE000016170472DE9F04180460C46104800789E
:102AF00020B903F067F801200D4908702512E6B2ED
:102B0000A5F1A101C1EB011202EB411106EB41015C
:102B1000A1390802C11700EB5171CF1005483918CF
:102B20002022404603F026F80020BDE8F081000096
:102B3000140100200030180000BFFEE708B5F023A4
:102B40004FF4A0720021084600F0B6F8444800F0A7
:102B5000D9FF00214FF6E07000F0CAFF41A20A2120
:102B6000084600F057F900214FF4784000F0C0FF0C
:102B70003FA20A21F02000F04DF92823DA0019467F
:102B8000002000F047FA3C4800F0BCFF4FF2DE7135
:102B9000002000F0ADFF012023233222C821009045
:102BA000022000F087FA35A2D221142000F062F949
:102BB000012023233222C82100904FF4867000F0B8
:102BC00079FA2FA2D22140F21D1000F053F94FF4F0
:102BD0007841002000F08CFF012023233222C821FD
:102BE0000090372000F066FA26A2D2213C2000F0A7
:102BF00011F94FF4FC61002000F07AFF012023233B
:102C00003222C82100906C2000F054FA1EA2D2217A
:102C1000712000F0FFF84FF6E071002000F068FF2F
:102C2000012023233222C8210090A12000F042FA83
:102C300016A2D221A62000F0EDF847F6FF71002081
:102C400000F056FF012023233222C8210090D62015
:102C500000F030FA0EA2D221DB2000F0DBF808BD34
:102C600004010020BDA1BFB5B5B5B0B8000000009B
:102C7000B7B5BBD800000000FC0000203C000000FD
:102C80003E000000D0C40000D1F50000CEC200001C
:102C9000D1B9000010B504462CB14FF4805105485D
:102CA000FFF71CFF04E04FF480510248FFF718FFC4
:102CB00010BD0000001401402DE9F04106460F460A
:102CC00014461D462B4622463946304600F0CEFBC0
:102CD00004FB05F00249098800F067FABDE8F081BD
:102CE0002A00002001B502E00098401E00900098E4
:102CF0000028F9D108BD00002DE9F04389B08046D5
:102D00008946174610231A464946404600F0AEFB56
:102D10002C2000F07BFE394601A8FFF7E3FE0024DB
:102D200022E001A810F814604FF6FF7000EA0626B2
:102D3000012000EB440001A9085C064300250FE0D8
:102D40004FF400402841304020B10A48008800F08C
:102D500061FE03E00848008800F05CFE681CC5B214
:102D6000102DEDDB601CC4B2102CDADB09B0BDE81D
:102D7000F0830000280000202A0000202DE9F05FE9
:102D8000804689461646A6F120001FFA80FA1E49A1
:102D9000096889881C4A1268D28801FB02F0C117B1
:102DA00000EB5171C1F3C7071748006800680AFBC0
:102DB000070B15480068C388134800688288494695
:102DC000404600F053FB2C2000F020FE002416E0CB
:102DD000002510E01BF8040080212941084020B1A3
:102DE0000A48008800F016FE03E00948008800F059
:102DF00011FE681CC5B2082DECDB601CC4B2BC42DD
:102E0000E6DBBDE8F09F0000240000202800002041
:102E10002A0000202DE9F04105460F4614461FE028
:102E20002846103011490988884203DD002507F142
:102E3000100087B2384610300D490988884201DDFC
:102E4000002500272688300200EB262086B2324675
:102E500039462846FFF750FF05F1100085B2A41C43
:102E600020780028DCD1BDE8F08100001C000020A3
:102E70001E00002070B505460E46144624E0284684
:102E8000134909688988084412490988884205DD80
:102E900000250F480068C088304486B230460C498F
:102EA0000968C98808440C490988884201DD002561
:102EB0000026227831462846FFF760FF641C04484C
:102EC00000688088284485B220780028D7D170BD5A
:102ED000240000201C0000201E0000202DE9F05FCF
:102EE00005460E4691469B4600240FFA89F70320BB
:102EF000A0EB49000FFA80FA87E0BBF1000F40D049
:102F0000A0463BE006EB080291B22A1990B200F00D
:102F100061FD06EB080291B22A1B90B200F05AFD47
:102F2000321991B2A5EB080290B200F053FD321BAA
:102F300091B2A5EB080290B200F04CFDA6EB08029E
:102F400091B22A1B90B200F045FDA6EB080291B2A7
:102F50002A1990B200F03EFD321B91B205EB080237
:102F600090B200F037FD321991B205EB080290B231
:102F700000F030FD08F101000FFA80F8B845C1DD1E
:102F80002FE0F21991B22A1990B200F023FDF21944
:102F900091B22A1B90B200F01DFD321991B2EA1BCA
:102FA00090B200F017FD321B91B2EA1B90B200F014
:102FB00011FDF21B91B22A1B90B200F00BFDF21B27
:102FC00091B22A1990B200F005FD321B91B2EA19B4
:102FD00090B200F0FFFC321991B2EA1990B200F001
:102FE000F9FC601C04B2BAF1000F05DAA000801DE4
:102FF00050440FFA80FA07E0E01B80000A3050448A
:103000000FFA80FA781E07B200BFBC427FF775AF97
:10301000BDE8F09F2DE9FF4F83B081464FF0000AD5
:10302000D3460598A0EB090504990698461ACDF8F1
:10303000049004980090002D01DD012705E00DB9F2
:10304000002702E04FF0FF376D42002E02DD4FF007
:10305000010806E016B94FF0000802E04FF0FF3813
:103060007642B54201DD2C4600E034460020029055
:1030700019E0DDE9001000F0ADFCAA44B344A2451C
:1030800005DDAAEB040A0198384480B20190A345FB
:1030900005DDABEB040B0098404480B20090029831
:1030A000401C80B20290611C02988842E1DD07B0AA
:1030B000BDE8F08F2DE9F04104460D4616461F4647
:1030C000DDF81880B8F1000F0CD03B463246294697
:1030D000204600F0CBF906FB07F01749098800F0FD
:1030E00064F827E0A019401E82B22B4629462046EC
:1030F000FFF790FFE819401E83B2A019401E82B26C
:10310000E819401E81B22046FFF784FFE819401EEF
:1031100083B2224629462046FFF77CFFE919491E63
:103120008BB2A119491E8AB2A119491E88B229463B
:10313000FFF770FFBDE8F0812800002000B597B0D0
:103140003C2108A8FDF75CF81C2101A8FDF758F800
:103150000121080201F03EF80120019004200390B3
:103160008006079000200290049005900690089039
:10317000099008200A9010200B9000200C900E90CF
:103180000F9010904FF480501190002012901390E7
:10319000149001A81590169008A8FFF7A1FA012134
:1031A0000020FFF783FA17B000BD70B504460D4646
:1031B00000262C2000F02AFC00BF03E0284600F087
:1031C00029FC761CA642F9D370BD000008B5012188
:1031D000602001F01FF803208DF8020018208DF800
:1031E00003004FF48040ADF8000069465B48FFF7EC
:1031F000E1FB4FF40040ADF8000069465748FFF787
:10320000D9FB0120ADF8000069465448FFF7D2FB16
:103210000220ADF8000069465048FFF7CBFB802044
:10322000ADF8000069464E48FFF7C4FB4FF48070CC
:10323000ADF8000069464A48FFF7BCFB4FF4007048
:10324000ADF8000069464648FFF7B4FB4FF48060D4
:10325000ADF8000069464248FFF7ACFB4FF4006050
:10326000ADF8000069463E48FFF7A4FB4FF48050DC
:10327000ADF8000069463A48FFF79CFB4FF4005058
:10328000ADF8000069463648FFF794FB4FF48040E4
:10329000ADF8000069463248FFF78CFB4FF4004060
:1032A000ADF8000069462E48FFF784FB4FF48070AC
:1032B000ADF8000069462948FFF77CFB4FF4007029
:1032C000ADF8000069462548FFF774FB4FF48060B5
:1032D000ADF8000069462148FFF76CFB03208DF82C
:1032E000020018208DF803001020ADF80000694698
:1032F0001A48FFF75FFB2020ADF800006946174829
:10330000FFF758FB8020ADF8000069461348FFF72F
:1033100051FB4FF40060ADF8000069460F48FFF71D
:1033200049FB10208DF8030003208DF802000220D5
:10333000ADF8000069460A48FFF73CFB10208DF805
:10334000030003208DF802004FF48050ADF8000018
:1033500069460248FFF72EFB08BD0000001401403B
:103360000018014010B50446072C00DD10BD31489F
:103370000470204604EBD0714910A4EB410139B927
:10338000F0202D4908804FF4A0702C49088006E0F9
:103390004FF4A07028490880F02028490880362082
:1033A00000F034FB2648008849F24131884205D1BB
:1033B000082141EA441000F02DFB0AE02048008873
:1033C00048F25251884204D1002141EA441000F0F1
:1033D00021FB2A2000F01AFB002000F01BFB00203C
:1033E00000F018FB14490988491EC1F3072000F0BA
:1033F00011FB11490978491EC8B200F00BFB2B20C4
:1034000000F004FB002000F005FB002000F002FBB0
:103410000A490988491EC1F3072000F0FBFA074951
:103420000978491EC8B200F0F5FA2C2000F0EEFA37
:1034300000BF9BE7200000201C0000201E00002091
:103440002200002010B5FFF7C1FEFFF777FE012034
:10345000FFF720FC00F0A0FA00F038F802480078EE
:10346000FFF780FF10BD0000200000202DE9F04193
:1034700004460D4616461F462A2000F0C7FA2012C1
:1034800000F0C8FAE0B200F0C5FAA119491EC1F374
:103490000F2000F0BFFAA119491EC8B200F0BAFA15
:1034A0002B2000F0B3FA281200F0B4FAE8B200F0D2
:1034B000B1FAE919491EC1F30F2000F0ABFAE9197E
:1034C000491EC8B200F0A6FABDE8F08110B500F0C0
:1034D00025FAFE4908800846008849F241318842B1
:1034E0007ED1CF2000F092FA002000F093FA8120E4
:1034F00000F090FA302000F08DFAED2000F086FA0E
:10350000642000F087FA032000F084FA122000F013
:1035100081FA812000F07EFAE82000F077FA852019
:1035200000F078FA102000F075FA782000F072FAB6
:10353000CB2000F06BFA392000F06CFA2C2000F060
:1035400069FA002000F066FA342000F063FA0220E5
:1035500000F060FAF72000F059FA202000F05AFA43
:10356000EA2000F053FA002000F054FA002000F0A6
:1035700051FAB12000F04AFA002000F04BFA1B206B
:1035800000F048FAB62000F041FA0A2000F042FAB2
:10359000A22000F03FFAC02000F038FA352000F0F9
:1035A00039FAC12000F032FA112000F033FAC520B8
:1035B00000F02CFA452000F02DFA452000F02AFA00
:1035C000C72000F023FAA22000F024FAF22000F035
:1035D0001DFA002000F01EFA262000F017FA00E085
:1035E00096E0012000F016FAE02000F00FFA0F201C
:1035F00000F010FA262000F00DFA242000F00AFA5C
:103600000B2000F007FA0E2000F004FA092000F069
:1036100001FA542000F0FEF9A82000F0FBF9462042
:1036200000F0F8F90C2000F0F5F9172000F0F2F99D
:10363000092000F0EFF90F2000F0ECF9072000F06E
:10364000E9F9002000F0E6F9E12000F0DFF90020C0
:1036500000F0E0F9192000F0DDF91B2000F0DAF9A4
:10366000042000F0D7F9102000F0D4F9072000F072
:10367000D1F92A2000F0CEF9472000F0CBF939200B
:1036800000F0C8F9032000F0C5F9062000F0C2F9E7
:10369000062000F0BFF9302000F0BCF9382000F01F
:1036A000B9F90F2000F0B6F9362000F0AFF9C820C4
:1036B00000F0B0F92A2000F0A9F9002000F0AAF9E2
:1036C000002000F0A7F9002000F0A4F9EF2000F09E
:1036D000A1F92B2000F09AF9002000F09BF90020BE
:1036E00000F098F9012000F095F93F2000F092F9E0
:1036F0003A2000F08BF9552000F08CF9112000F0F1
:1037000085F97348FFF7EEFA292000F07FF901E10F
:103710006E48008848F252518842F8D1CF2000F01C
:1037200075F9002000F076F9C12000F073F930201F
:1037300000F070F9ED2000F069F9642000F06AF9FA
:10374000032000F067F9122000F064F9812000F0F6
:1037500061F9E82000F05AF9852000F05BF91020AB
:1037600000F058F9782000F055F9CB2000F04EF920
:10377000392000F04FF92C2000F04CF9002000F027
:1037800049F9342000F046F9022000F043F9F7200F
:1037900000F03CF9202000F03DF9EA2000F036F975
:1037A000002000F037F9002000F034F9C02000F0CC
:1037B0002DF9212000F02EF9C12000F027F9112069
:1037C00000F028F9C52000F021F92D2000F022F9A1
:1037D000332000F01FF9362000F018F9002000F027
:1037E00019F93A2000F012F9552000F013F9B12030
:1037F00000F00CF9002000F00DF9172000F00AF994
:10380000B62000F003F90A2000F004F9A22000F02D
:1038100001F9F62000F0FAF8012000F0FBF8302062
:1038200000F0F8F8F22000F0F1F8002000F0F2F8D3
:10383000262000F0EBF8012000F0ECF8E02000F08A
:10384000E5F8D02000F0E6F8002000F0E3F80220D0
:1038500000F0E0F8072000F0DDF80B2000F0DAF8C7
:103860001A2000F0D7F8312000F0D4F8542000F0EE
:10387000D1F8402000F0CEF8292000F0CBF812203B
:1038800000F0C8F8122000F0C5F8122000F0C2F8CD
:10389000172000F0BFF8E12000F0B8F8D02000F0C9
:1038A000B9F8002000F0B6F8022000F0B3F80720C5
:1038B00000F0B0F8052000F0ADF8252000F0AAF8DF
:1038C0002D2000F0A7F8442004E000002200002092
:1038D000FCBF020000F09EF8452000F09BF81C2081
:1038E00000F098F8182000F095F8162000F092F8F3
:1038F0001C2000F08FF81D2000F08CF8112000F043
:1039000085F80548FFF7EEF9292000F07FF82C2014
:1039100000F07CF810BD0000FCBF020010B50024D0
:10392000042000F073F800BF1748008800BF164855
:10393000008800F02BF804464FF6FF7000EA0424DC
:1039400000F024F8044348F25250844201D120464A
:1039500010BDD32000F05AF800BF0B48008800BF0C
:103960000948008800F012F804464FF6FF7000EA9C
:10397000042400F00BF8044349F24130844201D1A1
:103980002046E5E70020E3E70000026001480088E8
:10399000704700000000026010B502210748FFF7E1
:1039A0009DF840F6FF20FFF79DF902210348FFF73D
:1039B00097F840F6FF20FFF795F910BD0018014079
:1039C00070B504460D4601231A4629462046FFF7E6
:1039D0004DFD70BD70B505460C460948008885420E
:1039E0000CDA08480088844208DA21462846FFF7A6
:1039F000E7FF054801880120FFF7D7FB70BD0000F5
:103A00001C0000201E000020280000204FF0C041B4
:103A1000088070470149088070470000000002607C
:103A200010B504462146054803F0E3F900BF8021A4
:103A3000024803F011F90028F9D010BD00440040FD
:103A400000B587B00121042000F0E4FB0121480407
:103A500000F0D0FB0420ADF8180018208DF81B00F2
:103A600003208DF81A0006A91C48FEF7A3FF0820C2
:103A7000ADF8180004208DF81B0006A91748FEF7C2
:103A800099FF26208DF8040001208DF805008DF89F
:103A900006008DF8070001A800F0ECFA4FF416407C
:103AA00002900020ADF80C00ADF80E00ADF810004B
:103AB000ADF814000C20ADF8120002A9084803F07C
:103AC00027F9012240F22551054803F0FCF80121B5
:103AD000034803F074F807B000BD0000000801407F
:103AE0000044004001490880704700002A0000207F
:103AF000024A1080024A118070470000280000200E
:103B00002A000020014908607047000024000020BE
:103B10000149088070470000280000202DE9F04F7F
:103B200087B00446274AD2E900109268CDE9050221
:103B30000491244A0C3207CA01AB07C3224804602F
:103B4000224A91680698FCF761FE204A009051686D
:103B50000598FCF75BFE80461B4A91680398FCF7CA
:103B600055FE8146184A51680298FCF74FFE82467E
:103B7000154A11680198FCF749FE83465146FCF747
:103B8000EDFD07464946FCF7E9FD06464146FCF7D0
:103B900037FE05460099FCF733FE0C4908600A48D9
:103BA00040680949886008460068486007484068DE
:103BB000064988600846006848600846006807B003
:103BC000BDE8F08FC8DE0008440300205003002049
:103BD00008B50121082000F01DFBC020ADF8000051
:103BE00010208DF8030003208DF802006946064876
:103BF000FEF7E0FE40210448FEF772FF80210248F4
:103C0000FEF76EFF08BD0000000C014070B50546D0
:103C100000F0CEF8B42000F09DF800F005F9284639
:103C200000F098F800F000F900F0C2F8B52000F0BC
:103C300091F800F0F9F8012000F030F80446012076
:103C400000F02CF844EA0024002000F027F8064693
:103C500000F0CCF8204670BD10B5072000F004F845
:103C60000446FCF75FFF10BD70B504462046FFF721
:103C7000CDFF0646FCF724FF054606492846FCF71B
:103C8000C5FD054604492846FCF7BAFD0546284609
:103C900070BD00000AD7A33C3393884370B5054636
:103CA0000024002000F040F8002618E040211D48C4
:103CB000FEF714FF022004F0A1FD40211948FEF791
:103CC0000FFF6006040E80211648FEF7FEFE08B1C5
:103CD000601CC4B2022004F091FD701CC6B2082E14
:103CE000E4DB40210F48FEF7F9FE012000F01CF84C
:103CF00025B180210B48FEF7F1FE03E08021094841
:103D0000FEF7EEFE022004F079FD40210548FEF7A3
:103D1000E7FE022004F072FD40210248FEF7DEFEBD
:103D2000204670BD000C014038B504468020ADF837
:103D3000000003208DF802000CB1102000E04820A4
:103D40008DF8030069460248FEF734FE38BD0000D6
:103D5000000C014070B504460120FFF7E5FF002587
:103D60001DE040211148FEF7B9FE04F0800020B1AB
:103D700080210E48FEF7B4FE03E080210B48FEF7D9
:103D8000ADFE6006040E022004F038FD4021074815
:103D9000FEF7A6FE022004F031FD681CC5B2082D16
:103DA000DFDB40210148FEF799FE70BD000C0140A9
:103DB00010B50120FFF7B8FF80210B48FEF790FEF9
:103DC00040210948FEF78CFE052004F017FD8021F4
:103DD0000548FEF783FE052004F010FD402102484F
:103DE000FEF77CFE10BD0000000C014010B5012064
:103DF000FFF79AFF40210B48FEF770FE802109482B
:103E0000FEF76CFE052004F0F9FC40210548FEF7A2
:103E100067FE80210348FEF763FE052004F0EEFCF8
:103E200010BD0000000C014010B500240020FFF779
:103E30007BFF40210E48FEF753FE022004F0DEFC1B
:103E400009E0601C80B20446B0F5FA7F03DDFFF79D
:103E5000CDFF012010BD80210548FEF736FE002869
:103E6000EFD140210248FEF739FE0020F2E70000C2
:103E7000000C014010B50020FFF734FE31480388E4
:103E80003148028800210846FEF716FF2F48FFF749
:103E900039FE00214FF6FF70FFF72AFE2CA20A21FF
:103EA0003820FEF7E7FF4FF2DE70FFF731FE2823E0
:103EB000DA0019460020FFF7ADF8F023A0222821F0
:103EC0001046FFF7A7F88C234FF4A0721946002084
:103ED000FFF7A0F855215020FEF78DF95521F0206D
:103EE000FEF78BFAB9215020FEF7D2F9B921F02064
:103EF000FEF713FA1A48FFF705FE47F6FF70FFF7C3
:103F000007FE18A273213020FEF784FF4FF4FC60F7
:103F1000FFF7FEFD16A27321D020FEF77BFF4FF6C0
:103F2000E070FFF7F5FD15A2D7213020FEF772FFF4
:103F30004FF6FF70FFF7ECFD13A2D721D020FEF75C
:103F400069FF10BD1E0000201C000020040100209D
:103F50004865616C74682D53797374656D00000059
:103F6000FC000020D7DBBACFD2C7B1ED00000000C3
:103F7000CAB5CAB1B2A8D0CE00000000C0FACAB714
:103F8000BBD8B9CB00000000CFB5CDB3C9E8D6C3CC
:103F9000000000002DE9F04F85B005460F4616469B
:103FA0001C4605EBC50000EB0510292101EB40097B
:103FB00005EBC50000EB0510592101EB4008314627
:103FC0003846FCF7DFFD00D2374621463846FCF77D
:103FD000E3FD00D2274631462046FCF711FC039052
:103FE000A8EB0900FCF763FD314601903846FCF769
:103FF00007FC00900199FCF709FC02900399FCF77B
:1040000037FC83464046FCF75BFD59460490FCF7BD
:10401000F7FB8246FCF772FD80B205B0BDE8F08F79
:1040200000BFFEE730B50246002300210E4C247885
:10403000601CC41700EB14742411A0EB04140A4D87
:104040002C700A482C46247820F8142000BF05E084
:10405000064830F811000344481CC1B21029F7DBB0
:10406000C3F30F1030BD0000640100200C030020DA
:104070007047000070B5002100230F22C47804B3FC
:10408000154C246804F4E064C4F5E064210AC1F12D
:104090000403CA40447804FA03F1847814402143AD
:1040A00009010E4C0678A155047804F01F0501247F
:1040B000AC4005786D11AD0005F1E025C5F8004173
:1040C00009E0047804F01F050124AC40044D067893
:1040D000761145F8264070BD0CED00E000E400E0EC
:1040E00080E100E002490143024A1160704700008C
:1040F0000000FA050CED00E02DE9F04F87B0044612
:10410000274AD2E900109268CDE905020491244AB9
:104110000C3207CA01AB07C322480460224A9168E7
:104120000698FCF773FB204A009051680598FCF74D
:104130006DFB80461B4A91680398FCF767FB81463C
:10414000184A51680298FCF761FB8246154A1168CB
:104150000198FCF75BFB83465146FCF7FFFA0746E4
:104160004946FCF7FBFA06464146FCF749FB054683
:104170000099FCF745FB0C4908600A48406809496A
:1041800088600846006848600748406806498860BB
:104190000846006848600846006807B0BDE8F08F30
:1041A000B0DE00082C03002038030020014908621B
:1041B0007047000000000E427047000001460020DA
:1041C000034A506820F440400843506070470000A4
:1041D0000010024029B1064A52690243044B5A6159
:1041E00004E0034A52698243014B5A617047000060
:1041F0000010024029B1064AD2690243044BDA6139
:1042000004E0034AD2698243014BDA61704700003F
:104210000010024029B1064A92690243044B9A6198
:1042200004E0034A92698243014B9A61704700009F
:104230000010024030B500210022002400232D4D43
:104240006D6805F00C0121B1042905D0082923D19E
:1042500005E0294D056022E0274D05601FE0254D52
:104260006D6805F47012234D6D6805F480340225E5
:1042700005EB92421CB9214D554305600BE01D4DE5
:104280006D6805F400351DB11C4D5543056002E015
:10429000194D5543056002E0174D056000BF00BF92
:1042A000144D6D6805F0F0010909154D6B5C05684A
:1042B000DD4045600F4D6D6805F4E061090A104D61
:1042C0006B5C4568DD4085600A4D6D6805F46051A2
:1042D000C90A0B4D6B5C4568DD40C560054D6D68D6
:1042E00005F44041890B074D6B5CC568B5FBF3F5E0
:1042F000056130BD0010024000127A0000093D0047
:10430000000000201000002010B50146002200230C
:1043100000204A11012A02D1094C236806E0022A32
:1043200002D1074C236A01E0054C636A01F01F02C9
:10433000012494401C400CB1012000E0002010BD7D
:104340000010024000210B4A11700A4A203A82F8FC
:104350002010012802D0042808D103E00121054AD9
:10436000117004E00521034A117000E000BF00BF96
:1043700070470000201002400149086070470000AB
:104380003C0442420249096A0143014A11627047F2
:10439000001002400348008840F0100001490880E6
:1043A0007047000004280040034800884FF6EF7172
:1043B0000840014908807047042800400021034854
:1043C0000188001F008841EA004070471C28004017
:1043D00010B501214FF0C050FFF70CFF0120FFF78F
:1043E000E5FE0120FFF7AEFF00BF4120FFF78CFF85
:1043F0000028FAD04FF48070FFF7C4FF0120FFF7C8
:10440000BBFF00F035F847F6FF7000F017F800F03A
:1044100025F8002000F004F800F020F810BD00009E
:1044200000B50246FFF7B6FF100C03490880091DCE
:104430000A80FFF7B9FF00BD1828004000B502460A
:10444000FFF7A8FFC2F3034003490880091D0A8053
:10445000FFF7AAFF00BD00000828004000BF034886
:10446000008800F020000028F9D0704704280040A0
:10447000074800884FF6F77108400549088000BFDB
:104480000348008800F008000028F9D070470000B9
:10449000042800402DE9FF4F87B081468A469346A5
:1044A0006E495846FCF7B2F905466D49FCF7E0F94C
:1044B00006900698FCF736FB074603F071FF0546A9
:1044C000FCF743FB05900698FCF72CFB074605F02C
:1044D00031FE0546FCF739FB04900A98FFF718FBFC
:1044E0000024B4E05F4901EB840191F90100FCF77D
:1044F000DEFA00900499FCF789F95A4901EB84012E
:10450000029091F90000FCF7D2FA00900599FCF7AF
:104510007DF901900299FCF773F90390FCF7D5FA45
:1045200000EB09054F4901EB840191F90100FCF70B
:10453000BEFA00900599FCF769F94A4901EB84013C
:10454000029091F90000FCF7B2FA00900499FCF790
:104550005DF901900299FCF701F90390FCF7B5FAB7
:1045600000EB0A063F4901EB840191F90300FCF7D7
:104570009EFA00900499FCF749F93A4901EB84014D
:10458000029091F90200FCF792FA00900599FCF76D
:104590003DF901900299FCF733F90390FCF795FA85
:1045A00000EB09072F4901EB840191F90300FCF7A7
:1045B0007EFA00900599FCF729F92A4901EB84015C
:1045C000029091F90200FCF772FA00900499FCF74E
:1045D0001DF901900299FCF7C1F80390FCF775FAF8
:1045E00000EB0A081FFA88F3BAB2B1B2A8B2FEF71C
:1045F00011FD149850B31FFA88F307F1010C1FFA4C
:104600008CF2B1B205F1010C1FFA8CF0FEF702FD3D
:1046100008F1010C1FFA8CF3BAB206F1010C1FFA73
:104620008CF1A8B2FEF7F6FC08F1010C1FFA8CF32E
:1046300007F1010C1FFA8CF206F1010C1FFA8CF144
:1046400005F1010C1FFA8CF0FEF7E4FC641C0F2C42
:10465000FFF648AF0BB0BDE8F08F0000DA0F49401D
:1046600000003443E0DE00087CB50546002400204D
:104670000090019000F0E2F800F0007010B10E24FC
:1046800020467CBD3D49098888B26946FEF79CF802
:1046900004460CB12046F4E7012D36D1019800F410
:1046A000802000282ED03548008800043449086056
:1046B00037204860402088600020C860A802086158
:1046C000084600F0F9F83720FDF770F804460CB101
:1046D0002046D6E702202A4908600620486040208C
:1046E00088600020C8604FF480600861084600F0D0
:1046F000E3F80620FDF75AF804460CB12046C0E75F
:104700002046BEE725242046BBE7019800F4803010
:1047100078B31A48008800041949086037204860B7
:10472000402088600020C8604FF48060086108461F
:1047300000F0C2F83720FDF739F804460CB12046E6
:104740009FE700200E4908600620486040208860EE
:104750000020C8604FF480600861084600F0ACF8A3
:104760000620FDF723F804460CB1204689E72046D1
:1047700087E7FFE72524204683E70000800100202B
:104780000004002001498863704700000080014058
:1047900001498863704700000080014001490860BA
:1047A00070470000A00030420149086070470000D7
:1047B0008C05304200210A4B02685A6242689A62B4
:1047C0001A46D16A21F0F701D0E902231A4303699E
:1047D0001A4343691A431143014AD16270470000EA
:1047E0000080014000200649086048608860C86079
:1047F00048628862C862034888630020C8637047C3
:1048000000800140FF07C00001480069C0B2704746
:104810000080014001460020034A526B0A400AB161
:10482000012000E00020704700800140024800683D
:1048300000F00300704700000080014008B5014609
:10484000002000900248084400900098006808BDCD
:104850001480014010B500F09DFE10BD29B1064A3C
:10486000D26B0243044BDA6304E0034AD26B824307
:10487000014BDA63704700000080014000210A4AC2
:10488000516847F6FF629143027D83681A4343688B
:104890001A43C3681A4303681A4303691A4311434E
:1048A000014A5160704700000080014001480068E3
:1048B00070470000808001400021094B02689A6027
:1048C0001A46D1686FF30A01D0E901231A43C3687D
:1048D0001A4303691A431143014AD160704700002B
:1048E000008001400549096821F00301034A116075
:1048F00011460968014311607047000000800140C3
:1049000010B5012205A1064804F048FB044624B96D
:1049100004A002F0D5FC00F01BFF10BD303A0000EF
:104920002C0400204D6F756E74205375636365739E
:1049300073210D0A0000000010B50248FDF7C0F811
:1049400010BD00000020001030B58BB005460C46AD
:104950001348FCF7F5FF00211248FCF7FFFF12484F
:104960000090019500200290A00803900020049080
:10497000802005908000069080000790002008901D
:104980004FF40050099000200A9069460548FDF751
:10499000ADF801210348FCF7E1FF0BB030BD00008A
:1049A00000F00010440402408080014030B58BB01C
:1049B00005460C461348FCF7C3FF00211248FCF7DC
:1049C000CDFF12480090019510200290A00803909E
:1049D00000200490802005908000069080000790C1
:1049E000002008904FF40050099000200A9069467A
:1049F0000548FDF77BF801210348FCF7AFFF0BB03A
:104A000030BD000000F000104404024080800140EE
:104A100008B5012000909DF8000008BD70B504465F
:104A2000002521480068032802D12725284670BDAB
:104A30001D48006838B11C480068012803D01A4896
:104A4000006802282ED1B4F5805F02D127252846C0
:104A5000EDE7B4F5006F14D10120FFF705FE054620
:104A600005BB012011490875002008604860886076
:104A70004FF40060C860002008610846FFF7FEFEA2
:104A800010E00020FFF7F0FD05465DB90120074961
:104A900008750020086048608860C86008610846A2
:104AA000FFF7ECFE2846C2E77C010020E803002067
:104AB000F0B5014600200022BC4B1B7881F856302F
:104AC000BB4B1B88A1F85430BA4B1B681A0E9309D4
:104AD0000B70C2F383034B7002F003038B70B54B72
:104AE0001B68C3F30742CA70B24B1B88C3F307228B
:104AF0000A71B04B1A784A715B681A0E1301CB80A9
:104B0000AC4B5B68C3F30742CB8843EA1213CB80FC
:104B100002F00F030B72A74B9B88C3F30722D30944
:104B20004B72C2F380138B72C2F34013CB72C2F389
:104B300000130B7300234B739C4B1B681BB19B4BE7
:104B40001B68012B4FD193071B0D0B61994B1A79F1
:104B50000B6943EA82030B61964B9B681A0E0B6943
:104B600043EA92130B61C2F3C2030B7502F0070311
:104B70004B75904B9B68C3F3074253098B75C2F387
:104B80008203CB7593075B0F0B768A4B1B89C3F3AC
:104B900007220B7E43EAD2130B760B695B1C0024C1
:104BA000C1E912340B7ED1E912649B1C012505FA80
:104BB00003F3DD17A6FB037C04FB03C306FB0533ED
:104BC000C1E912730C7A0123A3400B650024D1E9DB
:104BD00012560B6DA5FB037C06FB03C305FB0433D8
:104BE000C1E912732EE0714B1B68022B2AD1714B65
:104BF0001A7993069B0A0B616E4B9B681A0E0B6920
:104C000043EA02230B616B4B9B68C3F307420B69BA
:104C100013430B61674B1B89C3F307220B695B1CB2
:104C20004FF40074A3FB04544FF480630026A5FBEB
:104C3000037C04FB03C305FB0633C1E912734FF485
:104C400000730B65C2F3801301F8193F93065B0EE6
:104C50004B70584B1A7A4B7843EAD2134B7002F0E0
:104C60007F038B70534BDB681A0ED309CB70C2F3F2
:104C700041130B71C2F382034B7193071B0F8B71AE
:104C80004C4BDB68C3F307428B7943EA92138B7179
:104C9000C2F34013CB7100230B7202F001034B727D
:104CA000444B9B89C3F30722D3098B72C2F3801351
:104CB000CB72C2F340130B73C2F300134B73C2F3F6
:104CC00081038B7302F00303CB733A4B1A7B5308B7
:104CD0000B7401234B74384B1B681A0ECA741939B4
:104CE000354B1B68C3F307421402CC85324B1B883B
:104CF000C3F30722CB8D1343CB852F4B1A781406B1
:104D00000C635B681A0E0B6B43EA02440C632A4B7C
:104D10005B68C3F307420B6B43EA02240C63264B28
:104D20009B88C3F307220B6B13430B63224B1A7947
:104D300034235A54204B9B681A0E35235A541E4B69
:104D40009B68C3F3074214068C631B4B1B89C3F398
:104D500007228B6B43EA02448C63174B1A7A8B6BE6
:104D600043EA02248C63144BDB681A0E8B6B1343EB
:104D70008B63114BDB68C3F307423C235B5C43EA64
:104D800012143C235C5413071C0DCC870A4B9B89DF
:104D9000C3F30722CB8F1343CB87074B1A7B5408EF
:104DA00040235C54012441235C54F0BD7C0100206D
:104DB00080010020600300207003002008B500205F
:104DC0000090684600F0A8FC08B1FF2008BD0098DC
:104DD000C0F34320FAE710B50424FFF7EFFF0446C1
:104DE000042C01D1002010BDFF2C01D10220FAE7D4
:104DF0000120F8E710B50024FDF7B4FDFFF7F2FC41
:104E000000F004FB04460CB1204610BD00F02AF867
:104E100004460CB12046F8E701201049087500202F
:104E2000086048608860C86008610846FFF726FD92
:104E30001CB90B48FFF73CFE044634B90849B1F8E9
:104E40005410080400F04EFC044624B94FF40060EE
:104E5000FFF7E4FD04462046D7E70000E803002002
:104E60009003002038B5002401200090FFF7DEFCFD
:104E700010B92524204638BD44480068042828D0AD
:104E800000204349086002204860C020886000205C
:104E9000C8604FF4806008610846FFF70DFDFCF71D
:104EA00099FC04460CB12046E5E70020FFF7C6FC5C
:104EB000384908600420FFF7C1FC364948600820E3
:104EC000FFF7BCFC334988600C20FFF7B7FC314981
:104ED000C8602E48006858B12C480068012807D0E7
:104EE0002A480068062803D028480068022816D1FE
:104EF0000020274908600320486040208860002087
:104F0000C8604FF4806008610846FFF7D5FC694629
:104F10000320FCF7A1FC04460CB12046ABE71B487C
:104F2000006804282ED0BDF800001B490860BDF8B9
:104F3000000000041649086009204860C02088600D
:104F40000020C8604FF4806008610846FFF7B4FC99
:104F5000FCF740FC04460CB120468CE70020FFF72C
:104F60006DFC0E4908600420FFF768FC0B4948609F
:104F70000820FFF763FC094988600C20FFF75EFCFE
:104F80000649C8600024204675E700007C01002027
:104F90000004002070030020800100206003002036
:104FA00030B595B00D494868FBF7BCFD04460D4689
:104FB0000A48407A0949097ACDE90045CDE902104D
:104FC00006484388028806A105A802F089F905A9C8
:104FD00008A000F013F815B030BD0000F401002067
:104FE00025642C25642C252E31662C25642F256400
:104FF0000000000044415348000000002DE9F0414A
:10500000ADF5865D04460D46FFF7D8F90746122236
:1050100010A127A803F0F0FF0646BEB927A82A99D9
:1050200003F0EEFE3B4622460FA106A8009502F0D3
:1050300057F906A8FBF70BF9804626AB424606A9AE
:1050400027A804F0D8F927A803F0A1FE0DF5865D86
:10505000BDE8F081303A2F6865616C74685F6C6FF1
:10506000672E6373760000005B25735D2C25752C1D
:1050700025730D0A000000002DE9F05FADF5885D95
:1050800004468A464FF00009002111910B91DFF888
:105090000CB3C3490A910A2578210991012108918D
:1050A000002107910020FEF733FD01209623E62220
:1050B0002D2100900520FDF7FDFF012096234B22B6
:1050C0002D210090F020FDF7F5FF4FF2DE70FEF786
:1050D0001FFDBE23E62219460A20FDF79BFF012291
:1050E000B0A137A803F088FF18B10DF5885DBDE8C1
:1050F000F09FFDE0B0A117A8FBF78DF800B9F7E02D
:105100002C2117A8FBF799F8074607B9F0E00DA87E
:105110000EA90CAA0FABCDE90032CDE9021010ABFD
:1051200012AAA7A1781CFBF7A7F8052876DB4FF099
:105130000008002107914CB91098002806DD10984E
:10514000FBF7B5FC80460121079122E0012C09D133
:105150000F98002806DD0F98FBF7A9FC8046012177
:10516000079116E0022C09D19A490C98FBF714FD1F
:1051700004D2DDF83080012107910AE0032C08D128
:105180000E98002805DD0E98FBF791FC8046012162
:105190000791079800B9ABE011994A1C119251454B
:1051A00000D2A5E034B1012C1ED0022C37D0032C44
:1051B00074D159E01098322801DA322010901098FA
:1051C0006E2801DD6E2010901098323800EB8010B0
:1051D00040003C2190FBF1F0C0F1B90086B24FF4E1
:1051E0007840FEF795FC59E00F985A2801DA5A20CA
:1051F0000F900F98642801DD64200F900F985A38A3
:1052000000EB801040000A2190FBF1F0C0F1B900E2
:1052100086B24FF4FC60FEF77BFC3FE064E06E4931
:105220000C98FBF7AFFC01D26B480C906B490C98C3
:10523000FBF7B2FC01D269480C9067490C98FBF768
:10524000DFFA67490490FBF7E1FA66490590FBF73E
:105250000FFB0690FBF752FCC0F1B90086B24FF687
:10526000E070FEF755FC19E00E98502801DA502046
:105270000E900E98A02801DDA0200E900E985038B8
:1052800000EB80104000502190FBF1F0C0F1B9001C
:1052900086B247F6FF70FEF73BFC00BF00BF5946E1
:1052A0004046FBF779FC00D2C34640460A99FBF71B
:1052B00069FC01D2CDF8288041460B98FBF74EFAE5
:1052C0000B9009F10109089840B9E62D06DA691F2B
:1052D00088B233462A460999FDF79CFE09960021BB
:1052E0000891681D85B200BFE62D00DB08E000BF15
:1052F00037AA802117A803F05AFD00287FF4FAAEE0
:1053000000BF37A803F043FD3748FEF7FBFB002141
:105310004FF6FF70FEF7ECFBB9F1000F3CD033A263
:105320003C21F220FDF7A6FD4846FBF7C9FB0146EC
:1053300003900B98FBF79CFA8046FBF7F3FB0246C1
:105340000B46CDE904012BA113A801F0C9FF13AA54
:105350005A21F220FDF78EFD5846FBF7E3FB02468B
:105360000B46CDE9040125A113A801F0B9FF13AA4A
:105370007821F220FDF77EFD0A98FBF7D3FB024669
:105380000B46CDE904011FA113A801F0A9FF13AA40
:105390009621F220FDF76EFD00BFA6E600C079C49D
:1053A00000C07944303A2F6865616C74685F6C6F37
:1053B000672E6373760000004441534800000000EC
:1053C00025752C256C642C256C642C25662C256495
:1053D0002F2564000000A04100000E4200001A4288
:1053E0000000024300004040FC00002053544154A0
:1053F0003A000000413A252E31660000483A252E39
:10540000306600004C3A252E306600002DE9F04150
:105410000024002600250027A046B220594908751F
:105420000020086048608860C86008610846FFF78F
:1054300025FA0320FFF756FA0120FFF7AFF9002005
:105440005149086048608860C8604FF48060086116
:105450000846FFF731FAFCF793F9044614B12046E9
:10546000BDE8F0814FF4D5704749086008204860D6
:10547000402088600020C8604FF4806008610846C2
:10548000FFF71AFAFCF736FA04462CB901203F4917
:1054900008604FF0804812E000203B490860372048
:1054A0004860402088600020C8604FF48060086138
:1054B0000846FFF701FA3720FCF778F90446002088
:1054C0003149086037204860402088600020C8606B
:1054D0004FF4806008610846FFF7EEF93720FCF7CB
:1054E00065F90446002C4AD136E0002026490860C0
:1054F00037204860402088600020C8604FF48060FA
:1055000008610846FFF7D8F93720FCF74FF9044641
:105510000CB12046A4E71E4848EA00001A4908607A
:1055200029204860402088600020C8604FF48060D7
:1055300008610846FFF7C0F9FCF772F904460CB1A0
:1055400020468DE70020FFF779F90646012080EA22
:10555000D67080F001076D1C1FB94FF6FF708542B1
:10556000C3D34FF6FF70854202D31B24204677E752
:1055700006F08040061E02D0022004490860204642
:105580006EE70000E8030020000400207C010020FA
:105590000000108010B51148006801280BD10020D0
:1055A0000F49886040F24C40C8600C20FCF7FEF8C0
:1055B0000C49087002E000200A4908704FF480701E
:1055C000FFF7E6F800214FF48070FFF747F901205C
:1055D000054908600348007810BD000084010020E0
:1055E00000800140880100208C0100202DE9F04757
:1055F000814614461D46DDE908680027002032492F
:1056000008703249086001203149086000203149A2
:10561000C86231480068022808D10602020200234D
:1056200020462946FAF7A2FD04460D462B4806609F
:1056300010202A494860402088600020C8604FF44C
:10564000806008610846FFF737F91020FCF7AEF8D4
:10565000074617B13846BDE8F0874FF0FF302049C4
:10566000086008FB06F04860902088600220C8604F
:1056700000200861012048610846FFF79BF81748A1
:105680000460122015494860402088600020C860EE
:105690004FF4806008610846FFF70EF91220FCF70E
:1056A00085F807460FB13846D5E701210802FFF714
:1056B000D5F80120FFF778F808FB06F14846FFF718
:1056C00043F93846C7E70000880100208C0100201C
:1056D00084010020008001407C01002000040020A3
:1056E0001404002070B5044600250A480460072011
:1056F00008494860402088600020C8604FF48060FE
:1057000008610846FFF7D8F80720FCF74FF8054670
:10571000284670BD0004002070B5044600250A48E4
:10572000008800040949886040F24D40C8600D209F
:10573000FCF73CF805460DB1284670BD03484069AA
:1057400020602846F9E70000800100200080014029
:1057500070B5ADF5865D242238A11CA8FAF737FD97
:105760003FA001F0ADFD0A2245A127A803F044FCAB
:105770000446002C25D11CA8FAF769FD054626AB86
:105780002A461CA927A803F036FE044654B91CA8D3
:10579000FAF75DFD2699884204D13CA0269901F0D4
:1057A0008FFD0AE0214641A001F08AFD27A803F001
:1057B000EEFA00200DF5865D70BD27A803F0E7FA2C
:1057C00005E0214640A001F07BFD0020F2E7012228
:1057D0002BA127A803F010FC0446002C23D1402164
:1057E0000CA8FAF70DFD25AB3F220CA927A803F062
:1057F000C2FC0446002C12D1259800280FD00CA919
:105800003BA001F05DFD1CA90CA8FAF727FD18B913
:105810003EA001F055FD02E046A001F051FD27A891
:1058200003F0B5FA05E021464BA001F049FD002048
:10583000C0E753A001F044FD0120BBE74E45555F92
:105840004865616C74685F4D6F6E69746F725F5408
:105850006573745F537563636573730A00000000BA
:105860000D0A2D2D2D20BFAACABC20534420BFA84D
:10587000B6C1D0B4B2E2D1E9202D2D2D0D0A000021
:10588000303A2F746573742E74787400312E20D0E2
:10589000B4C8EBB3C9B9A6212028D2D1D0B4C8EB83
:1058A00020256420D7D6BDDA290D0A00312E20D05C
:1058B000B4C8EBCAA7B0DC2120B4EDCEF3C2EB3AFA
:1058C0002025640D0A000000312E20CEDEB7A8B4DA
:1058D000F2BFAACEC4BCFEBDF8D0D0D0B4C8EB2174
:1058E00020B4EDCEF3C2EB3A2025640D0A0000008F
:1058F000322E20B6C1C8A1B3C9B9A62120B6C1B302
:10590000F6C4DAC8DDCEAA3A20257300332E20CAA9
:10591000FDBEDDD0A3D1E9CDA8B9FD21205344BF00
:10592000A8B6C1D0B4CDEAC8ABD5FDB3A3A1A30D31
:105930000A000000332E20CAFDBEDDD0A3D1E9CA83
:10594000A7B0DC2120B6C1B3F6C4DAC8DDB2BBD241
:10595000BBD6C2A1A30D0A00322E20CEDEB7A8B45A
:10596000F2BFAACEC4BCFEBDF8D0D0B6C1C8A1213A
:1059700020B4EDCEF3C2EB3A2025640D0A000000FE
:105980002D2D2D20B2E2D1E9BDE1CAF8202D2D2D1B
:105990000D0A000010B5002400BFFEF7CDFF30B99E
:1059A0000748006818B9074800780028F5D005486E
:1059B000007810B10348007810BD2046FCE70000D5
:1059C0008C0100208801002010B5002400BFFEF7E4
:1059D000B3FF30B90948006818B9094800780028B1
:1059E000F5D00748007810B10548007810BD40F2A6
:1059F000FF50FEF7C7FE2046F8E700008C010020AC
:105A0000880100202DE9F843814615461E46DDE950
:105A10000878002400200090484908704849086030
:105A200001204849086000204749C862474800688B
:105A3000022808D107020202002328463146FAF75D
:105A400095FB05460E4642480760102040494860D5
:105A5000402088600020C8604FF4806008610846DC
:105A6000FEF72AFF1020FBF7A1FE044614B12046E2
:105A7000BDE8F883374800880004354908603720BE
:105A80004860402088600020C8604FF48060086152
:105A90000846FEF711FF3720FBF788FE04460CB1DD
:105AA0002046E5E72A48C0F80080172028494860CA
:105AB000402088600020C8604FF48060086108467C
:105AC000FEF7FAFE1720FBF771FE04460CB12046E4
:105AD000CEE71F48056019201D49486040208860B6
