:020000040800F2
:1000000030130020490100088D310008AD1D0008A3
:100010003D3100080D0E00085745000800000000A3
:10002000000000000000000000000000893A000805
:100030005516000800000000B5320008D93E00083F
:100040006301000863010008630100086301000800
:1000500063010008630100086301000863010008F0
:1000600063010008630100086301000863010008E0
:1000700063010008630100086301000863010008D0
:1000800063010008630100086301000863010008C0
:1000900063010008630100086301000863010008B0
:1000A00063010008630100086301000863010008A0
:1000B0006301000863010008630100086301000890
:1000C0006301000863010008630100086301000880
:1000D0006301000863010008894200086301000809
:1000E0006301000863010008630100086301000860
:1000F0006301000863010008630100086301000850
:10010000630100086301000863010008630100083F
:10011000630100086301000863010008630100082F
:10012000630100086301000863010008630100081F
:10013000DFF810D000F006FC00480047015B000823
:10014000AFF3008030130020064880470648004780
:10015000FEE7FEE7FEE7FEE7FEE7FEE7FEE7FEE777
:10016000FEE7FEE7DD3E000831010008D2B201E003
:1001700000F8012B491EFBD270470022F6E710B5AC
:1001800013460A4604461946FFF7F0FF204610BD05
:10019000F0B480EA0102D40F4200B2EB410F02D268
:1001A0000246084611464A0042D0C30DDDB2C1F3F3
:1001B000C752AD1A202D35DAC1F3160141F4000201
:1001C00004B15242C5F1200602FA06F12A41104458
:1001D000B3EBD05F23D0C4B1012DA0EBC35009DC39
:1001E000F0BC4FF0004202EAC352DBB200F500005F
:1001F00000F046BA400000F1807000EBC350A0F15F
:10020000807040EAD170490009E0490841EAC071B4
:10021000A0EBC35000F50000400800EBC350F0BC59
:1002200000F025BA6142012202EB4101001BF6E712
:10023000F0BC704781F00041AAE780F00040A7E7DA
:1002400080EA010210B502F00043400022D04A00CB
:100250001FD0010E01EB1261C0F35600C2F356022B
:1002600040F4000042F40002A0FB022000047F39A9
:10027000140400D0401C50EA124001D44000491E32
:10028000C2B20C0604EBD010401C4008802A02D0F9
:1002900003E0002010BD20F00100002900DA00205A
:1002A000184310BD30B480EA010202F0004530F07E
:1002B000004221F0004013D090B1C30DD40DC2F321
:1002C0001601C0F31600E41A41F4000140F40002E4
:1002D0007D34914201D3641C00E04900002C02DA15
:1002E00030BC002070474FF400000023914201D33E
:1002F000891A034340084FEA4101F7D151B19142B5
:1003000002D14FF0004105E002D24FF0010101E0BF
:100310006FF0010103EBC450284430BC00F0A7B9D2
:100320002DE9FE4F81EA030404F0004421F000416E
:1003300000944FF0000B23F0004350EA01045ED01C
:1003400052EA03045BD0C3F30A54C1F30A552C44A8
:10035000A4F2F3340194A0FB0254C1F3130141F45D
:100360008011C3F3130343F4801301FB024400FB29
:10037000034E840A970A44EA815447EA8357A4FB50
:10038000076802958D0A05FB07854FEA932C04FB4D
:100390000C542705029D4FEA065847EA1637B5EB7D
:1003A00008056EEB070C870E920E47EA811742EAAA
:1003B0008312A7FB0201B6EB0B0164EB00042B0DCB
:1003C00043EA0C335E1844EB1C50DA465146E7FB17
:1003D0000201C5F313044FEA0B3343EA14534FEA07
:1003E0000432019C43EA0603A4F10C040294009C2D
:1003F000CDE900B400F081F903B0BDE8F08F002032
:100400000146F9E72DE9F04D81EA030404F0004BC1
:1004100021F0004514464FF0000A23F0004150EA55
:10042000050220D054EA01021DD0C5F30A57024646
:10043000C5F31303C1F31300C1F30A5640F480154A
:1004400043F48013A7EB0608101BD64608F2FD38CC
:1004500073EB050002D308F1010801E092185B413B
:10046000B8F1000F03DA00200146BDE8F08D00204E
:100470004FF48011064684460EE0171B73EB050708
:1004800005D3121B63EB050306434CEA010C490834
:100490004FEA300092185B4150EA0107EDD152EA71
:1004A000030012D082EA040083EA0501084305D064
:1004B000101BAB4106D20122002306E000224FF0C0
:1004C000004302E06FF0010253101AEB06004CEB00
:1004D000085110EB0A0041EB0B01BDE8F04D00F0B4
:1004E000FDB8C10F80EAE0700844CA0796230021D6
:1004F00000F0C6B896230022114600F0C1B800F003
:10050000004220F00040C10DC0F3160040F400008E
:100510007F2901DA00207047962903DCC1F196019A
:10052000C84001E096398840002AF4D04042704724
:1005300020F00040C10DC0F3160040F400007F29F8
:1005400001DA00207047962903DCC1F19601C8400A
:10055000704796398840704700F0004230F0004004
:100560000AD0C10D01F56071C0F3160042EA0151D5
:10057000C20840071143704700200146704701F050
:10058000004330B421F0004150EA010206D00A0DC8
:10059000A2F56072C1F31301002A02DC30BC002016
:1005A0007047440F44EAC104C100E01830BC00EBBE
:1005B000C25000F05CB80000002801DBC0F1004030
:1005C000002901DBC1F1004181427047002801DBB5
:1005D000C0F10040002901DBC1F1004188427047B1
:1005E00030B50B46014600202022012409E021FA03
:1005F00002F59D4205D303FA02F5491B04FA02F500
:100600002844151EA2F10102F1DC30BD2DE9F05F96
:100610000546002092469B46884606468146402471
:100620001BE0284641464746224600F0ACF95346B7
:100630005A46C01A914110D311461846224600F07E
:1006400093F92D1A67EB01084F462246012000213D
:1006500000F08AF917EB00094E41201EA4F10104B5
:10066000DFDC484631462A464346BDE8F09F002974
:10067000A8BF7047401C490008BF20F00100704728
:1006800010B4B0FA80FC00FA0CF050EA010404BF88
:1006900010BC704749B1CCF1200421FA04F411FADE
:1006A0000CF118BF012121430843A3EB0C01CB1D22
:1006B0004FEA00614FEA102042BF002010BC704793
:1006C00000EBC35010440029A4BF10BC7047401C6D
:1006D000490008BF20F0010010BC704710B5141E7F
:1006E00073F1000408DA401C41F1000192185B41EB
:1006F0001A4301D120F0010010BD2DE9F04D9246C2
:100700009B4611B1B1FA81F202E0B0FA80F22032D8
:10071000904600F029F904460F4640EA0A0041EAF3
:100720000B0153465A46084313D0114653EA0100C1
:1007300019D0C8F14002504600F025F905460E4692
:1007400050465946424600F00FF9084305D00120B3
:1007500004E020463946BDE8F08D0020054346EA16
:10076000E0762C4337430A986305E40AA0EB0800BF
:100770000022FD0A44EA47540A3002D5002001460F
:10078000E9E7010510196941DDE9084500196941EA
:10079000BDE8F04DA2E72DE9FE4F804681EA030057
:1007A000C00F0C46009021F0004123F00045B8EB4B
:1007B0000200A94105D24046214690461C460B4600
:1007C000024623F00040104347D0270DC7F30A002C
:1007D000C3F30A510290401A019040286BDAC3F328
:1007E000130040F4801B0098924620B10023D2EB06
:1007F000030A63EB0B0B01985946C0F140025046C7
:1008000000F0B2F806460D4650465946019A00F0EF
:10081000CAF810EB08006141002487EA115284EA0B
:10082000E7731A4340D0009A62B3019A012A4FEA53
:10083000075215DC001B61EB02014FF0004202EA97
:100840000752CDE90042001C41F5801132462B468B
:10085000FFF753FF03B0BDE8F08F40462146F9E7AC
:10086000001B61EB0201001C41F5801300185B4185
:100870002018A2F5001747EB030140EAD570B6191E
:100880006D4111E06D084FEA360645EAC0754FEA42
:100890000752001B61EB0201001C41F58011490861
:1008A0004FEA30000019514132462B4603B0BDE8F3
:1008B000F04FFFF713BF0098012240000023D0EB58
:1008C000020263EBE073009821464FEAE074B8EB54
:1008D000000061EB0401E9E783F000435BE781F08E
:1008E000004158E7C1F30A52C1F3130140F2FF334C
:1008F00041F480119A4202DA00200146704740F22A
:1009000033439A42A2F2334202DC524200F03BB837
:1009100000F02AB830B5041E71F1000404DB4FF07A
:100920000044404264EB0101141E73F1000405DB36
:100930001C464FF00043524263EB0403994208BF48
:10094000904230BD064C074D06E0E06840F00103E0
:1009500094E8070098471034AC42F6D3FFF7ECFB5D
:10096000D8980008F8980008202A04DB203A00FAFA
:1009700002F1002070479140C2F1200320FA03F3F6
:10098000194390407047202A04DB203A21FA02F0F4
:100990000021704721FA02F3D040C2F120029140B9
:1009A000084319467047202A06DBCB17203A41FA44
:1009B00002F043EAE07306E041FA02F3D040C2F1EC
:1009C0002002914008431946704770B521F000435A
:1009D00003430CD0C1F30A550024D5EB040564EBA6
:1009E0000403D617AD1AB34102DB0020014670BDE7
:1009F000201841EB025170BD0EB5C10F80EAE070C6
:100A00000844CA07002140F233438DE80E000A462D
:100A10000B46FFF772FE03B000BD0EB540F2334146
:100A200002910021CDE900110A460B46FFF765FE51
:100A300003B000BD70B5C1F30A5201F000450024B7
:100A4000C1F3130140F2FF3341F480119A4201DAFD
:100A5000002070BD40F233439A42A2F2334203DCDD
:100A60005242FFF790FF00E090402C43F1D040420B
:100A700070BD70B58C1810F8015B15F0070301D13B
:100A800010F8013B2A1106D110F8012B03E010F8F1
:100A9000016B01F8016B5B1EF9D12B0705D4002314
:100AA000521E0DD401F8013BFAE710F8013BCB1AB6
:100AB000921C03E013F8015B01F8015B521EF9D5AB
:100AC000A142D8D3002070BD2DE9F0410C494888DF
:100AD00000F028FF0446B4F5805F01DB40F6FF74A8
:100AE0002046FFF707FD07460649FFF7A9FB064624
:100AF0000549FFF7D7FB05462846BDE8F081000011
:100B00005601002000404E4500F07F4521B182682B
:100B100042F00102826003E0826822F001028260FA
:100B2000704721B1826842F48072826003E082687B
:100B300022F4807282607047014600208A6802F0C9
:100B400004020AB1012000E00020704701460020A5
:100B50008A6802F008020AB1012000E00020704714
:100B600030B502460020002350680F4C20400D791C
:100B70000C6844EA05242043506090680B4C2040E8
:100B8000D1E902542C434D7944EA45042043906056
:100B9000D06A20F470000C7C641EE4B2234340EA67
:100BA0000350D06230BD0000FFFEF0FFFDF7F1FF03
:100BB000F0B504460D4600200021092D11DDE06846
:100BC000A5F10A0606EB4607072606FA07F1884351
:100BD000A5F10A0606EB460603FA06F10843E060B3
:100BE0000CE0206905EB4507072606FA07F1884364
:100BF00005EB450603FA06F108432061072A0FDAE0
:100C0000606B561E06EB86071F2606FA07F188431F
:100C1000561E06EB860605FA06F10843606322E0DD
:100C20000D2A0FDA206BD61F06EB86071F2606FA61
:100C300007F18843D61F06EB860605FA06F108433E
:100C4000206310E0E06AA2F10D0606EB86071F267E
:100C500006FA07F18843A2F10D0606EB860605FAAF
:100C600006F10843E062F0BD816841F0080181604F
:100C7000704721B1826842F4A002826003E082687A
:100C800022F4A00282607047816841F00401816013
:100C90007047000008B50121102002F039FB032045
:100CA000ADF8000000208DF803006946014800F00F
:100CB000BAFF08BD0010014010B5FFF7EBFF00F0D0
:100CC00001F810BD00B591B00121084602F000FB0B
:100CD0000121480202F01CFB364800F0A5F8364816
:100CE00006903648079000200890022009900020C6
:100CF0000A9080200B9040000C9080000D902020E6
:100D00000E9000020F900020109006A9294800F0D4
:100D100031F90121274800F07BF8002001900120E3
:100D20008DF808008DF809004FF460200390002032
:100D3000049002208DF8140001A91F484C38FFF7D9
:100D40000FFF4FF4004002F0B7FA032301220A21FB
:100D500019484C38FFF72CFF032302220B211648B9
:100D60004C38FFF725FF012113484C38FFF7D9FE17
:100D7000012111484C38FFF7C9FE0F484C38FFF7E6
:100D800073FF00BF0C484C38FFF7E0FE0028F9D194
:100D900009484C38FFF778FF00BF07484C38FFF789
:100DA000CBFE0028F9D1012103484C38FFF761FF41
:100DB00011B000BD080002404C2401405601002043
:100DC0002DE9F04104460D4F0D4801682046FFF71C
:100DD000DFF980460B4801684046FFF72BFA0646CC
:100DE0003946FFF72DFA05460648046004480560B9
:100DF00005492846FFF7CCF9BDE8F08117D97E3FB9
:100E0000600100206401002000F0FF4400BFFEE705
:100E100021B1026842F00102026004E002684FF66C
:100E2000FE731A400260704701684FF6FE7211406F
:100E300001600021016041608160C1604B498842CE
:100E400008D14A490839496841F00F01474A083A30
:100E500051608AE045491431884208D14349083934
:100E6000496841F0F001414A083A51607DE03F494C
:100E70002831884208D13D490839496841F47061F8
:100E80003A4A083A516070E038493C31884208D10A
:100E900036490839496841F47041344A083A51608A
:100EA00063E032495031884208D1304908394968F5
:100EB00041F470212D4A083A516056E02B496431C3
:100EC000884208D129490839496841F47001274A04
:100ED000083A516049E025497831884208D12349D0
:100EE0000839496841F07061204A083A51603CE095
:100EF0001F49884206D1011F096841F00F01021FF6
:100F0000116032E01A491431884208D11849091F8A
:100F1000096841F0F001164A121F116025E01449DA
:100F20002831884208D11249091F096841F47061CB
:100F30000F4A121F116018E00D493C31884208D158
:100F40000B49091F096841F47041094A121F1160D9
:100F50000BE007495031884207D10549091F09684C
:100F600041F47021024A121F1160704708000240CC
:100F70000804024010B50022026847F6F0739A4355
:100F80000C6A8B6823430C6923434C6923438C69A7
:100F90002343CC6923434C6A23438C6A23431A437B
:100FA0000260CB6843600B6883604B68C36010BD10
:100FB0002DE9F8430024002500260027A0464FF025
:100FC00076095D48008800280CDD5B4800885B4995
:100FD0000978884205DC5848008858494978884291
:100FE00000DA012454484088002806DD5248408831
:100FF00052498978884200DA01254F4948685049AA
:10100000FFF7E4FA07D24D4A51684B4A5068FFF7A0
:10101000DDFA00D201264848007A002812DD464851
:10102000407A00280EDD4448007A4449097B884212
:1010300000DD01274048407A4049897B884201DA37
:101040004FF001083F4801F0EBFD54B100214FF48F
:10105000784001F0DBFD3CA23C21484600F098FFBF
:101060000AE0002001F0E2FD0120102308223C21CB
:101070000090484601F0ACF855B100214FF478409B
:1010800001F0C4FD30A26E21484600F081FF0AE065
:10109000002001F0CBFD0120102308226E210090DA
:1010A000484601F095F856B100214FF4784001F020
:1010B000ADFD25A2A021484600F06AFF0AE000200D
:1010C00001F0B4FD012010230822A0210090484621
:1010D00001F07EF857B100214FF4784001F096FD01
:1010E00019A2C321484600F053FF0AE0002001F096
:1010F0009DFD012010230822C3210090484601F0E5
:1011000067F8B8F1000F0AD000214FF4784001F0E1
:101110007DFD0DA2D721484600F03AFF0AE00020ED
:1011200001F084FD012010230822D72100904846B9
:1011300001F04EF8BDE8F883C80100203801002016
:101140000000F041FC0000202100000010B500204C
:1011500001F056FD3B4803883B48028800210846C1
:1011600000F038FE394801F05BFD00214FF6E070D9
:1011700001F04CFD36A20A21322000F0D9FE0021F8
:101180004FF4784001F042FD34A20A214FF48270FE
:1011900000F0CEFE4FF2DE7001F048FD2823DA00A9
:1011A0001946002000F0C4FF5A234FF4A0721946DC
:1011B000002000F0BDFF8C234FF4A07219460020E0
:1011C00000F0B6FFBE234FF4A0721946002000F0D5
:1011D000AFFFF02387222821104600F0A9FF214805
:1011E00001F01EFD4FF4784001F020FD1EA23721D2
:1011F0000A2000F09DFE4FF4FC6001F017FD1CA2D8
:1012000069210A2000F094FE4FF6FF7001F00EFDF8
:1012100019A29B210A2000F08BFE47F6FF7001F017
:1012200005FD17A2CD210A2000F082FE16A2C321DF
:10123000372000F0ADFE15A2D721372000F0A8FE20
:1012400010BD00001E0000201C0000200401002032
:10125000D7DBBACFD2C7B1ED00000000B7B5BBD81D
:1012600000000000FC000020D0C4C2CAA3BA0000E5
:10127000D1AAD1F5A3BA0000CCE5CEC2A3BA000032
:10128000D1AAD1B9A3BA0000483A00004C3A0000F4
:101290002DE9F04F8BB04FF08C0940F23B1A4FF024
:1012A000B00BCE48007898B1CD4890F84100CD49B8
:1012B0000880CB4890F842004880C94890F8470021
:1012C0000872C74890F8480048720020C349087067
:1012D000C5480088401C80B2C3490880322808DB1A
:1012E0000020088001F046FD0746FFF748F9BD4998
:1012F0004860BC4840898C3084B2BA484089401C60
:10130000B02190FBF1F201FB12008C3086B2B6F5F1
:101310009E7F02DBA6F1AF0086B2B2490888FFF7D4
:10132000E9F80746B14BB24A3946002001F0C0FE49
:10133000ADF80000AB494888FFF7DCF80746AD4B35
:10134000AD4A3946012001F0B3FEADF80200A548D0
:10135000AA4BAB4A4168022001F0AAFEADF8040096
:10136000A049087AFFF7C6F80746A64BA04A3946B7
:10137000032001F09DFEADF806009A49487AFFF778
:10138000B9F807469F4B9A4A3946032001F090FE70
:10139000ADF80800002001F049FC5923324629210C
:1013A000304600F0C5FE8B2332465B21304600F00C
:1013B000BFFEBD2332468D21304600F0B9FEEF233B
:1013C0003246BF21304600F0B3FE864840890028EF
:1013D0003CDD4FF4784001F029FCBDF80030814A33
:1013E0009189621E90B2224600F0A2FE4FF4FC608A
:1013F00001F01CFCBDF802307A4AD189621E90B21D
:10140000224600F095FE4FF6FF7001F00FFCBDF88C
:101410000430744A118A621E90B2224600F088FE9F
:1014200047F6FF7001F002FCBDF806306D4A518AA4
:10143000621E90B2224600F07BFEBDF80830694A79
:10144000918A621E90B2224600F072FE002507E0EB
:101450003DF8151063480C3020F81510681CC5B213
:10146000052DF5DB5F484089401C5E4948810846F0
:101470004089B02801DB00204881634801F0D0FB9F
:10148000584800886149098888421CD000214FF4DF
:10149000784001F0BBFB5348008828B95CA23C218E
:1014A000322000F075FD0AE04E4802885AA103A8D8
:1014B00003F0C4FA03AA3C21322000F069FD494838
:1014C0000088524908804748408855490988884221
:1014D0001CD000214FF4FC6001F098FB414840888B
:1014E00028B950A26E21322000F052FD0AE03D489A
:1014F00042884FA103A803F0A1FA03AA6E2132206B
:1015000000F046FD3748408845490880354948681D
:1015100049490968FFF750F818D000214FF6FF70CD
:1015200001F074FB2F494868FFF716F807463A4662
:101530000B4642A103A803F081FA03AAA02132209E
:1015400000F026FD274840683B4908602548007A9E
:101550003C490978884205D12248407A3A490978BD
:10156000884236D0002147F6FF7001F04FFB264835
:1015700001F056FB1B48008868B91A48007A50B938
:1015800032A2C321502000F003FD30A2D721502009
:1015900000F0FEFC15E01348027A2DA103A803F029
:1015A0004DFA03AAC321502000F0F2FC0D48427A04
:1015B00027A103A803F042FA03AAD721502000F084
:1015C000E7FC0848007A1F4908700648407A1E491F
:1015D0000870FFF7EDFC0BB0BDE8F08F14000020A1
:1015E00070010020C80100204C010020000034439D
:1015F000000020420000C8420000A0420000284233
:101600000000A04100002043FC0000201C0100203D
:10161000202D2D2042504D002533642042504D0096
:101620001E010020202D2D20252520200000000057
:1016300025336420252520002401002025322E3169
:101640006620430020010020210100202D2D2D00C7
:10165000253364007047F8B505460C4647F6FF7021
:1016600001F0E4FA0020A4F1140291B2A5F11E02E7
:10167000009090B228233C2200F0AAFD04F10A0653
:10168000B3B205F11406B2B204F10A06B1B2A5F183
:101690001406B0B200F04CFD661FB3B2A5F10F0600
:1016A000B2B2661DB1B2A5F10F06B0B200F040FDB6
:1016B000A4F10A0083B2601D81B22A46284600F0D8
:1016C00037FDA61EB3B205F10F06B2B2661DB1B268
:1016D00005F10F06B0B200F02BFD4FF6FF7001F0E0
:1016E000A5FA621F91B2324690B201F001FAF8BD3C
:1016F000F8B504460D464FF6E07001F097FA002069
:10170000A5F1140291B2A4F10F02009090B22D2322
:10171000232200F05DFD0020A5F10F0291B2A4F19B
:101720001402009090B22D23232200F051FD6E1F71
:10173000B3B204F10A06B2B26E1FB1B2A4F10F0641
:10174000B0B200F0F5FC6E1DB3B2661DB2B26E1DF4
:10175000B1B2A4F10F06B0B200F0EAFC05F10F0639
:10176000B3B204F10A06B2B205F10F06B1B2A4F1A8
:101770000F06B0B200F0DCFCF8BD70B504460D46B3
:101780004FF2DE7001F052FA002312222946204661
:1017900000F032FC012305222946204600F02CFCF3
:1017A000A5F1120083B2C01F81B22246204600F08C
:1017B000BFFC05F1190083B2C01F81B2224620464A
:1017C00000F0B6FCA4F112018AB2C91F88B22B4600
:1017D000294600F0ADFC04F119018AB2C91F88B294
:1017E0002B46294600F0A4FCA5F10D06B3B2A4F1E6
:1017F0000D06B2B2A5F11206B1B2A4F11206B0B252
:1018000000F096FC05F11206B3B204F11206B2B272
:1018100005F10D06B1B204F10D06B0B200F088FC7E
:10182000A5F10D06B3B204F10D06B2B2A5F1120690
:10183000B1B204F11206B0B200F07AFC05F1120662
:10184000B3B2A4F11206B2B205F10D06B1B2A4F121
:101850000D06B0B200F06CFC70BD38B504460D4604
:101860004FF4FC6001F0E2F90020A5F1190291B2F9
:10187000A4F12302009090B23223462200F0A8FC8B
:10188000A4F10F018AB20A3988B22B46294600F02A
:101890004FFC691F8BB2A4F10C018AB2C91E88B239
:1018A000294600F045FCA4F108039AB26B1F99B2D7
:1018B000A4F10C0398B22B4600F03AFC691D8BB2E0
:1018C000611F8AB2C91E88B2294600F031FCA5F119
:1018D000140293B26A1D91B2621F90B2224600F0C8
:1018E00027FC05F10F0083B2601D82B2A5F1140040
:1018F00081B2204600F01CFC04F10A039AB205F103
:101900000F0399B2631D98B22B4600F011FC04F14D
:1019100019018AB20F3988B22B46294600F008FC1B
:1019200038BD00002DE9F04104462046FEF7E2FDF7
:1019300005462846FFF744FA0546284601F060FCB4
:101940000546284601F078F905462846FEF7F0FDE1
:1019500087B2384601F0F4FB0646FEF7CBFD05469C
:1019600000212846FEF728FE00D20025054928461A
:10197000FEF72CFE00D2034D2846FEF7D9FD80B2BB
:10198000BDE8F08100F07F4510B51848038818487D
:1019900002880021084600F01DFA164801F040F9BF
:1019A000002147F6FF7001F031F913A20A21084621
:1019B00000F0BEFA00214FF4784001F027F911A29F
:1019C0000A21F02000F0B4FA4FF2DE7001F02EF997
:1019D0002823DA001946002000F0AAFB00200B495A
:1019E000488178200A49088010BD00001E000020B0
:1019F0001C00002004010020D0C4B5E7B2E2C1BF42
:101A000000000000B7B5BBD800000000C8010020EE
:101A10002A0100202DE9FF5F4FF00A094FF49B7A5D
:101A20004FF4967B012002908C200190334800886F
:101A3000401C80B231490880052801DABDE8FF9FCB
:101A400000202E490880FFF73FF803902C490398A7
:101A5000FEF7F0FB0090FEF752FD0FFA80F896209B
:101A600008FB00F04FF47A7190FBF1F0C0F18C00AC
:101A700084B2292C00DA2924EF2C00DDEF24214840
:101A800040890A3085B2002001F0D0F8002712E02A
:101A90001C484089801C4FF4967190FBF1F201FBC9
:101AA00012000A3086B2EF2332462921304600F078
:101AB0003FFB781CC7B2012FEADD1248408900289D
:101AC0000BDD4FF4FC6001F0B1F8691E88B22346CB
:101AD0002A460D49098800F02BFB0B480480094871
:101AE0004089401C0749488108464089B0F5967FE7
:101AF00001DB0020488100BFA0E700005401002066
:101B00000040CE44C80100202A01002051B18200CB
:101B1000A2F1C042126842F001038200A2F1C04269
:101B2000136009E08200A2F1C0421268034B1A4020
:101B30008300A3F1C0431A6070470000FEFF0F004E
:101B4000D0E901121143C26811430269114342698D
:101B5000114382691143C2691143026A1143426A07
:101B60001143826A1143C26A1143026B1143026836
:101B70009200A2F1C0421160816808290BD101686E
:101B80008900A1F1C041096841F040020168890063
:101B9000A1F1C0410A60416B0968426B526841EA99
:101BA0000211426B926841EA0221426B928941EA3A
:101BB0000241426B128A41EA0251426B127D41EAB4
:101BC0000261426B926911430268521C9200A2F1B9
:101BD000C0421160C16AB1F5804F1BD1816B0968A9
:101BE000826B526841EA0211826B926841EA0221DB
:101BF000826B128A41EA0251826B127D41EA0261D4
:101C0000826B9269114302689200A2F1C042C2F84D
:101C1000041107E06FF0704201688900A1F1C04132
:101C2000C1F8042170472DE9F04102460025002645
:101C3000002000230024002791F803C00CF00F05BA
:101C400091F803C00CF0100CBCF1000F03D091F818
:101C500002C04CEA050591F800C0BCF1000F31D07C
:101C6000146800202BE04FF0010C0CFA00F3B1F8DF
:101C700000C00CEA03069E4220D183004FF00F0CF7
:101C80000CFA03F7BC4305FA03FC4CEA040491F890
:101C900003C0BCF1280F06D14FF0010C0CFA00FC78
:101CA000C2F814C00AE091F803C0BCF1480F05D196
:101CB0004FF0010C0CFA00FCC2F810C0401C0828C0
:101CC000D1D31460B1F800C0BCF1FF0F34DD54680B
:101CD00000202EE000F1080C4FF0010808FA0CF388
:101CE000B1F800C00CEA03069E4221D183004FF0F8
:101CF0000F0C0CFA03F7BC4305FA03FC4CEA04048E
:101D000091F803C0BCF1280F05D100F1080C08FAC6
:101D10000CF8C2F8148091F803C0BCF1480F07D149
:101D200000F1080C4FF0010808FA0CF8C2F8108016
:101D3000401C0828CED35460BDE8F0810246002044
:101D400093680B400BB1012000E000207047416117
:101D500070470161704700002DE9F04180460C4654
:101D60001048007820B901F06BFC01200D49087083
:101D70002512E6B2A5F1A101C1EB011202EB41115E
:101D800006EB4101A1390802C11700EB5171CF10D8
:101D9000054839182022404601F02AFC0020BDE801
:101DA000F0810000140100200030180000BFFEE7A1
:101DB00010B504462CB14FF480510548FFF7C7FF1A
:101DC00004E04FF480510248FFF7C3FF10BD00004C
:101DD000001401402DE9F04106460F4614461D4609
:101DE0002B4622463946304600F0CEFB04FB05F078
:101DF0000249098800F067FABDE8F0812A00002056
:101E000001B502E00098401E009000980028F9D12A
:101E100008BD00002DE9F04389B080468946174689
:101E200010231A464946404600F0AEFB2C2000F035
:101E30007BFE394601A8FFF78FFF002422E001A8AE
:101E400010F814604FF6FF7000EA0626012000EB40
:101E5000440001A9085C064300250FE04FF4004050
:101E60002841304020B10A48008800F061FE03E0BC
:101E70000848008800F05CFE681CC5B2102DEDDB40
:101E8000601CC4B2102CDADB09B0BDE8F08300009E
:101E9000280000202A0000202DE9F05F80468946B6
:101EA0001646A6F120001FFA80FA1E4909688988A3
:101EB0001C4A1268D28801FB02F0C11700EB517175
:101EC000C1F3C7071748006800680AFB070B1548ED
:101ED0000068C3881348006882884946404600F07D
:101EE00053FB2C2000F020FE002416E0002510E01B
:101EF0001BF8040080212941084020B10A480088CD
:101F000000F016FE03E00948008800F011FE681C8E
:101F1000C5B2082DECDB601CC4B2BC42E6DBBDE8F8
:101F2000F09F000024000020280000202A0000204C
:101F30002DE9F04105460F4614461FE028461030B3
:101F400011490988884203DD002507F1100087B296
:101F5000384610300D490988884201DD00250027E8
:101F60002688300200EB262086B2324639462846C3
:101F7000FFF750FF05F1100085B2A41C207800285F
:101F8000DCD1BDE8F08100001C0000201E00002014
:101F900070B505460E46144624E0284613490968E4
:101FA0008988084412490988884205DD00250F48C0
:101FB0000068C088304486B230460C490968C98838
:101FC00008440C490988884201DD00250026227852
:101FD00031462846FFF760FF641C0448006880888B
:101FE000284485B220780028D7D170BD2400002075
:101FF0001C0000201E0000202DE9F05F05460E4663
:1020000091469B4600240FFA89F70320A0EB490074
:102010000FFA80FA87E0BBF1000F40D0A0463BE00A
:1020200006EB080291B22A1990B200F061FD06EBAE
:10203000080291B22A1B90B200F05AFD321991B2F7
:10204000A5EB080290B200F053FD321B91B2A5EB54
:10205000080290B200F04CFDA6EB080291B22A1BD8
:1020600090B200F045FDA6EB080291B22A1990B299
:1020700000F03EFD321B91B205EB080290B200F079
:1020800037FD321991B205EB080290B200F030FD35
:1020900008F101000FFA80F8B845C1DD2FE0F21910
:1020A00091B22A1990B200F023FDF21991B22A1BC5
:1020B00090B200F01DFD321991B2EA1B90B200F00F
:1020C00017FD321B91B2EA1B90B200F011FDF21B1A
:1020D00091B22A1B90B200F00BFDF21B91B22A19AB
:1020E00090B200F005FD321B91B2EA1990B200F0F7
:1020F000FFFC321991B2EA1990B200F0F9FC601CB1
:1021000004B2BAF1000F05DAA000801D50440FFAA6
:1021100080FA07E0E01B80000A3050440FFA80FA92
:10212000781E07B200BFBC427FF775AFBDE8F09FD5
:102130002DE9FF4F83B081464FF0000AD346059842
:10214000A0EB090504990698461ACDF80490049866
:102150000090002D01DD012705E00DB9002702E008
:102160004FF0FF376D42002E02DD4FF0010806E010
:1021700016B94FF0000802E04FF0FF387642B54242
:1021800001DD2C4600E034460020029019E0DDE934
:10219000001000F0ADFCAA44B344A24505DDAAEB53
:1021A000040A0198384480B20190A34505DDABEBE9
:1021B000040B0098404480B200900298401C80B20A
:1021C0000290611C02988842E1DD07B0BDE8F08F03
:1021D0002DE9F04104460D4616461F46DDF81880ED
:1021E000B8F1000F0CD03B4632462946204600F09D
:1021F000CBF906FB07F01749098800F064F827E0DF
:10220000A019401E82B22B4629462046FFF790FFB8
:10221000E819401E83B2A019401E82B2E819401E80
:1022200081B22046FFF784FFE819401E83B22246A0
:1022300029462046FFF77CFFE919491E8BB2A119F8
:10224000491E8AB2A119491E88B22946FFF770FFBC
:10225000BDE8F0812800002000B597B03C2108A817
:10226000FDF78BFF1C2101A8FDF787FF0121080264
:1022700001F02EF8012001900420039080060790C1
:102280000020029004900590069008900990082084
:102290000A9010200B9000200C900E900F90109040
:1022A0004FF480501190002012901390149001A8C8
:1022B0001590169008A8FFF743FC01210020FFF7B6
:1022C00025FC17B000BD70B504460D4600262C2035
:1022D00000F02AFC00BF03E0284600F029FC761C31
:1022E000A642F9D370BD000008B50121602001F0BD
:1022F0000FF803208DF8020018208DF803004FF42A
:102300008040ADF8000069465B48FFF78CFC4FF455
:102310000040ADF8000069465748FFF784FC0120F3
:10232000ADF8000069465448FFF77DFC0220ADF887
:10233000000069465048FFF776FC8020ADF80000A9
:1023400069464E48FFF76FFC4FF48070ADF800000F
:1023500069464A48FFF767FC4FF40070ADF800008B
:1023600069464648FFF75FFC4FF48060ADF8000017
:1023700069464248FFF757FC4FF40060ADF8000093
:1023800069463E48FFF74FFC4FF48050ADF800001F
:1023900069463A48FFF747FC4FF40050ADF800009B
:1023A00069463648FFF73FFC4FF48040ADF8000027
:1023B00069463248FFF737FC4FF40040ADF80000A3
:1023C00069462E48FFF72FFC4FF48070ADF80000EF
:1023D00069462948FFF727FC4FF40070ADF800006C
:1023E00069462548FFF71FFC4FF48060ADF80000F8
:1023F00069462148FFF717FC03208DF802001820DA
:102400008DF803001020ADF8000069461A48FFF768
:102410000AFC2020ADF8000069461748FFF703FCCE
:102420008020ADF8000069461348FFF7FCFB4FF42D
:102430000060ADF8000069460F48FFF7F4FB10207C
:102440008DF8030003208DF802000220ADF8000093
:1024500069460A48FFF7E7FB10208DF803000320C8
:102460008DF802004FF48050ADF800006946024834
:10247000FFF7D9FB08BD000000140140001801401F
:1024800010B50446072C00DD10BD3148047020460D
:1024900004EBD0714910A4EB410139B9F0202D496A
:1024A00008804FF4A0702C49088006E04FF4A0701B
:1024B00028490880F02028490880362000F034FBA5
:1024C0002648008849F24131884205D1082141EA75
:1024D000441000F02DFB0AE02048008848F25251D9
:1024E000884204D1002141EA441000F021FB2A2057
:1024F00000F01AFB002000F01BFB002000F018FB8E
:1025000014490988491EC1F3072000F011FB114945
:102510000978491EC8B200F00BFB2B2000F004FB29
:10252000002000F005FB002000F002FB0A490988AA
:10253000491EC1F3072000F0FBFA07490978491E3C
:10254000C8B200F0F5FA2C2000F0EEFA00BF9BE7CD
:10255000200000201C0000201E000020220000207F
:1025600010B5FFF7C1FEFFF777FE0120FFF720FC53
:1025700000F0A0FA00F038F802480078FFF780FF7A
:1025800010BD0000200000202DE9F04104460D465A
:1025900016461F462A2000F0C7FA201200F0C8FA9B
:1025A000E0B200F0C5FAA119491EC1F30F2000F0F6
:1025B000BFFAA119491EC8B200F0BAFA2B2000F0E8
:1025C000B3FA281200F0B4FAE8B200F0B1FAE9194F
:1025D000491EC1F30F2000F0ABFAE919491EC8B239
:1025E00000F0A6FABDE8F08110B500F025FAFE492A
:1025F00008800846008849F2413188427ED1CF20C8
:1026000000F092FA002000F093FA812000F090FA96
:10261000302000F08DFAED2000F086FA642000F002
:1026200087FA032000F084FA122000F081FA81205A
:1026300000F07EFAE82000F077FA852000F078FAC2
:10264000102000F075FA782000F072FACB2000F02C
:102650006BFA392000F06CFA2C2000F069FA0020A7
:1026600000F066FA342000F063FA022000F060FA0D
:10267000F72000F059FA202000F05AFAEA2000F082
:1026800053FA002000F054FA002000F051FAB12073
:1026900000F04AFA002000F04BFA1B2000F048FA44
:1026A000B62000F041FA0A2000F042FAA22000F021
:1026B0003FFAC02000F038FA352000F039FAC12086
:1026C00000F032FA112000F033FAC52000F02CFAA5
:1026D000452000F02DFA452000F02AFAC72000F02E
:1026E00023FAA22000F024FAF22000F01DFA0020C4
:1026F00000F01EFA262000F017FA00E096E0012014
:1027000000F016FAE02000F00FFA0F2000F010FAA7
:10271000262000F00DFA242000F00AFA0B2000F029
:1027200007FA0E2000F004FA092000F001FA542004
:1027300000F0FEF9A82000F0FBF9462000F0F8F9BF
:102740000C2000F0F5F9172000F0F2F9092000F054
:10275000EFF90F2000F0ECF9072000F0E9F9002074
:1027600000F0E6F9E12000F0DFF9002000F0E0F9E8
:10277000192000F0DDF91B2000F0DAF9042000F048
:10278000D7F9102000F0D4F9072000F0D1F92A2061
:1027900000F0CEF9472000F0CBF9392000F0C8F95D
:1027A000032000F0C5F9062000F0C2F9062000F071
:1027B000BFF9302000F0BCF9382000F0B9F90F2043
:1027C00000F0B6F9362000F0AFF9C82000F0B0F9FB
:1027D0002A2000F0A9F9002000F0AAF9002000F05A
:1027E000A7F9002000F0A4F9EF2000F0A1F92B20B8
:1027F00000F09AF9002000F09BF9002000F098F911
:10280000012000F095F93F2000F092F93A2000F005
:102810008BF9552000F08CF9112000F085F97348F0
:10282000FFF7EEFA292000F07FF901E16E480088F9
:1028300048F252518842F8D1CF2000F075F90020BB
:1028400000F076F9C12000F073F9302000F070F943
:10285000ED2000F069F9642000F06AF9032000F02F
:1028600067F9122000F064F9812000F061F9E82096
:1028700000F05AF9852000F05BF9102000F058F9BB
:10288000782000F055F9CB2000F04EF9392000F007
:102890004FF92C2000F04CF9002000F049F93420C9
:1028A00000F046F9022000F043F9F72000F03CF96F
:1028B000202000F03DF9EA2000F036F9002000F079
:1028C00037F9002000F034F9C02000F02DF9212064
:1028D00000F02EF9C12000F027F9112000F028F9AE
:1028E000C52000F021F92D2000F022F9332000F05E
:1028F0001FF9362000F018F9002000F019F93A20ED
:1029000000F012F9552000F013F9B12000F00CF995
:10291000002000F00DF9172000F00AF9B62000F0B1
:1029200003F90A2000F004F9A22000F001F9F620D2
:1029300000F0FAF8012000F0FBF8302000F0F8F881
:10294000F22000F0F1F8002000F0F2F8262000F06C
:10295000EBF8012000F0ECF8E02000F0E5F8D020E2
:1029600000F0E6F8002000F0E3F8022000F0E0F8C4
:10297000072000F0DDF80B2000F0DAF81A2000F054
:10298000D7F8312000F0D4F8542000F0D1F84020DE
:1029900000F0CEF8292000F0CBF8122000F0C8F8A3
:1029A000122000F0C5F8122000F0C2F8172000F045
:1029B000BFF8E12000F0B8F8D02000F0B9F800200E
:1029C00000F0B6F8022000F0B3F8072000F0B0F8ED
:1029D000052000F0ADF8252000F0AAF82D2000F029
:1029E000A7F8442004E0000022000020FCBF020001
:1029F00000F09EF8452000F09BF81C2000F098F8AD
:102A0000182000F095F8162000F092F81C2000F035
:102A10008FF81D2000F08CF8112000F085F8054893
:102A2000FFF7EEF9292000F07FF82C2000F07CF869
:102A300010BD0000FCBF020010B50024042000F00F
:102A400073F800BF1748008800BF1648008800F0E0
:102A50002BF804464FF6FF7000EA042400F024F837
:102A6000044348F25250844201D1204610BDD32085
:102A700000F05AF800BF0B48008800BF09480088E2
:102A800000F012F804464FF6FF7000EA042400F04C
:102A90000BF8044349F24130844201D12046E5E776
:102AA0000020E3E700000260014800887047000052
:102AB0000000026010B502210748FFF748F940F610
:102AC000FF20FFF79DF902210348FFF742F940F686
:102AD000FF20FFF795F910BD0018014070B50446BE
:102AE0000D4601231A4629462046FFF74DFD70BDCD
:102AF00070B505460C460948008885420CDA08483E
:102B00000088844208DA21462846FFF7E7FF054897
:102B100001880120FFF7D7FB70BD00001C000020DA
:102B20001E000020280000204FF0C04108807047A0
:102B300001490880704700000000026010B504469B
:102B40002146054801F003FD00BF8021024801F045
:102B500031FC0028F9D010BD0044004000B587B01A
:102B60000121042000F0D4FB0121480400F0C0FB47
:102B70000420ADF8180018208DF81B0003208DF8F4
:102B80001A0006A91C48FFF74EF80820ADF81800F7
:102B900004208DF81B0006A91748FFF744F82620EB
:102BA0008DF8040001208DF805008DF806008DF8E1
:102BB000070001A800F0ECFA4FF416400290002044
:102BC000ADF80C00ADF80E00ADF81000ADF8140033
:102BD0000C20ADF8120002A9084801F047FC0122C0
:102BE00040F22551054801F01CFC0121034801F089
:102BF00094FB07B000BD0000000801400044004005
:102C000001490880704700002A000020024A108015
:102C1000024A118070470000280000202A0000208E
:102C20000149086070470000240000200149088025
:102C300070470000280000202DE9F04F87B00446BF
:102C4000274AD2E900109268CDE905020491244A8E
:102C50000C3207CA01AB07C322480460224A9168BC
:102C60000698FDF7EDFA204A009051680598FDF7A7
:102C7000E7FA80461B4A91680398FDF7E1FA81461E
:102C8000184A51680298FDF7DBFA8246154A116826
:102C90000198FDF7D5FA83465146FDF779FA0746C4
:102CA0004946FDF775FA06464146FDF7C3FA054663
:102CB0000099FDF7BFFA0C4908600A4840680949C5
:102CC0008860084600684860074840680649886090
:102CD0000846006848600846006807B0BDE8F08F05
:102CE00060970008180300202403002008B5012184
:102CF000082000F00DFBC020ADF8000010208DF87A
:102D0000030003208DF8020069460648FEF78BFF9A
:102D100040210448FFF71DF880210248FFF719F809
:102D200008BD0000000C014070B5054600F0CEF86B
:102D3000B42000F09DF800F005F9284600F098F85E
:102D400000F000F900F0C2F8B52000F091F800F0B2
:102D5000F9F8012000F030F80446012000F02CF8CA
:102D600044EA0024002000F027F8064600F0CCF8E2
:102D7000204670BD10B5072000F004F80446FDF7AA
:102D8000EBFB10BD70B504462046FFF7CDFF0646AD
:102D9000FDF7B0FB054606492846FDF751FA054602
:102DA00004492846FDF746FA0546284670BD00004E
:102DB0000AD7A33C3393884370B50546002400200E
:102DC00000F040F8002618E040211D48FEF7BFFF44
:102DD000022002F065FE40211948FEF7BAFF6006A6
:102DE000040E80211648FEF7A9FF08B1601CC4B28A
:102DF000022002F055FE701CC6B2082EE4DB402112
:102E00000F48FEF7A4FF012000F01CF825B1802137
:102E10000B48FEF79CFF03E080210948FEF799FF6D
:102E2000022002F03DFE40210548FEF792FF0220FD
:102E300002F036FE40210248FEF789FF204670BDB1
:102E4000000C014038B504468020ADF80000032096
:102E50008DF802000CB1102000E048208DF803002E
:102E600069460248FEF7DFFE38BD0000000C014055
:102E700070B504460120FFF7E5FF00251DE0402165
:102E80001148FEF764FF04F0800020B180210E4855
:102E9000FEF75FFF03E080210B48FEF758FF600656
:102EA000040E022002F0FCFD40210748FEF751FF0E
:102EB000022002F0F5FD681CC5B2082DDFDB4021C1
:102EC0000148FEF744FF70BD000C014010B5012021
:102ED000FFF7B8FF80210B48FEF73BFF4021094870
:102EE000FEF737FF052002F0DBFD80210548FEF7E5
:102EF0002EFF052002F0D4FD40210248FEF727FFF7
:102F000010BD0000000C014010B50120FFF79AFF32
:102F100040210B48FEF71BFF80210948FEF717FFF1
:102F2000052002F0BDFD40210548FEF712FF80217B
:102F30000348FEF70EFF052002F0B2FD10BD0000B1
:102F4000000C014010B500240020FFF77BFF40215A
:102F50000E48FEF7FEFE022002F0A2FD09E0601C12
:102F600080B20446B0F5FA7F03DDFFF7CDFF012004
:102F700010BD80210548FEF7E1FE0028EFD1402179
:102F80000248FEF7E4FE0020F2E70000000C0140DA
:102F900010B50020FFF734FE31480388314802881D
:102FA00000210846FEF716FF2F48FFF739FE0021E3
:102FB0004FF6FF70FFF72AFE2CA20A213820FEF7F9
:102FC000E7FF4FF2DE70FFF731FE2823DA001946E3
:102FD0000020FFF7ADF8F023A02228211046FFF7CC
:102FE000A7F88C234FF4A07219460020FFF7A0F831
:102FF00055215020FEF72FFB5521F020FEF72DFC28
:10300000B9215020FEF774FBB921F020FEF7B5FB83
:103010001A48FFF705FE47F6FF70FFF707FE18A2F4
:1030200073213020FEF784FF4FF4FC60FFF7FEFDB4
:1030300016A27321D020FEF77BFF4FF6E070FFF75A
:10304000F5FD15A2D7213020FEF772FF4FF6FF7075
:10305000FFF7ECFD13A2D721D020FEF769FF10BDCA
:103060001E0000201C000020040100204865616C47
:1030700074682D53797374656D000000FC000020A6
:10308000D7DBBACFD2C7B1ED00000000CAB5CAB1D4
:10309000B2A8D0CE00000000C0FACAB7BBD8B9CBE6
:1030A00000000000CFB5CDB3C9E8D6C300000000D2
:1030B0002DE9F04F85B005460F4616461C4605EB38
:1030C000C50000EB0510292101EB400905EBC50007
:1030D00000EB0510592101EB400831463846FDF759
:1030E0006BFA00D2374621463846FDF76FFA00D218
:1030F000274631462046FDF79DF80390A8EB0900CE
:10310000FDF7EFF9314601903846FDF793F800904E
:103110000199FDF795F802900399FDF7C3F88346EE
:103120004046FDF7E7F959460490FDF783F88246DB
:10313000FDF7FEF980B205B0BDE8F08F00BFFEE7F5
:1031400030B50246002300210E4C2478601CC417C1
:1031500000EB14742411A0EB04140A4D2C700A48DF
:103160002C46247820F8142000BF05E0064830F8EB
:1031700011000344481CC1B21029F7DBC3F30F1040
:1031800030BD00005C010020E0020020704700001C
:1031900070B5002100230F22C47804B3154C2468B5
:1031A00004F4E064C4F5E064210AC1F10403CA40F8
:1031B000447804FA03F184781440214309010E4C49
:1031C0000678A155047804F01F050124AC40057869
:1031D0006D11AD0005F1E025C5F8004109E0047866
:1031E00004F01F050124AC40044D0678761145F823
:1031F000264070BD0CED00E000E400E080E100E05E
:103200002DE9F04F87B00446274AD2E900109268B2
:10321000CDE905020491244A0C3207CA01AB07C369
:1032200022480460224A91680698FDF709F8204A6E
:10323000009051680598FDF703F880461B4A916895
:103240000398FCF7FDFF8146184A51680298FCF785
:10325000F7FF8246154A11680198FCF7F1FF834693
:103260005146FCF795FF07464946FCF791FF064695
:103270004146FCF7DFFF05460099FCF7DBFF0C49F0
:1032800008600A4840680949886008460068486044
:103290000748406806498860084600684860084654
:1032A000006807B0BDE8F08F4897000800030020D1
:1032B0000C0300207047000001460020034A5068BC
:1032C00020F4404008435060704700000010024066
:1032D00029B1064A52690243044B5A6104E0034A89
:1032E00052698243014B5A6170470000001002404E
:1032F00029B1064AD2690243044BDA6104E0034A69
:10330000D2698243014BDA6170470000001002402D
:1033100029B1064A92690243044B9A6104E0034AC8
:1033200092698243014B9A6170470000001002408D
:1033300030B500210022002400232D4D6D6805F0DA
:103340000C0121B1042905D0082923D105E0294D1C
:10335000056022E0274D05601FE0254D6D6805F4EE
:103360007012234D6D6805F48034022505EB9242FE
:103370001CB9214D554305600BE01D4D6D6805F4EA
:1033800000351DB11C4D5543056002E0194D5543F4
:10339000056002E0174D056000BF00BF144D6D6869
:1033A00005F0F0010909154D6B5C0568DD404560CD
:1033B0000F4D6D6805F4E061090A104D6B5C4568BE
:1033C000DD4085600A4D6D6805F46051C90A0B4DFA
:1033D0006B5C4568DD40C560054D6D6805F4404196
:1033E000890B074D6B5CC568B5FBF3F5056130BD16
:1033F0000010024000127A0000093D000000002089
:10340000100000202DE9FF4F87B081468A46934681
:103410006E495846FCF714FF05466D49FCF742FF1C
:1034200006900698FDF798F8074602F0AFFA0546B1
:10343000FDF7A5F805900698FDF78EF8074602F00F
:1034400083FB0546FDF79BF804900A98FFF7EEFB17
:103450000024B4E05F4901EB840191F90100FDF71C
:1034600040F800900499FCF7EBFE5A4901EB840107
:10347000029091F90000FDF734F800900599FCF7EF
:10348000DFFE01900299FCF7D5FE0390FDF737F8B7
:1034900000EB09054F4901EB840191F90100FDF7AB
:1034A00020F800900599FCF7CBFE4A4901EB840116
:1034B000029091F90000FDF714F800900499FCF7D0
:1034C000BFFE01900299FCF763FE0390FDF717F829
:1034D00000EB0A063F4901EB840191F90300FDF777
:1034E00000F800900499FCF7ABFE3A4901EB840127
:1034F000029091F90200FCF7F4FF00900599FCF7A7
:103500009FFE01900299FCF795FE0390FCF7F7FFF0
:1035100000EB09072F4901EB840191F90300FCF747
:10352000E0FF00900599FCF78BFE2A4901EB84012E
:10353000029091F90200FCF7D4FF00900499FCF787
:103540007FFE01900299FCF723FE0390FCF7D7FF62
:1035500000EB0A081FFA88F3BAB2B1B2A8B2FEF7BC
:10356000E7FD149850B31FFA88F307F1010C1FFA16
:103570008CF2B1B205F1010C1FFA8CF0FEF7D8FD08
:1035800008F1010C1FFA8CF3BAB206F1010C1FFA14
:103590008CF1A8B2FEF7CCFD08F1010C1FFA8CF3F8
:1035A00007F1010C1FFA8CF206F1010C1FFA8CF1E5
:1035B00005F1010C1FFA8CF0FEF7BAFD641C0F2C0C
:1035C000FFF648AF0BB0BDE8F08F0000DA0F4940BE
:1035D000000034437897000821B1028842F040028D
:1035E000028004E002884FF6BF731A4002807047E1
:1035F00070B505460C46164601211048FEF7A7FB9C
:10360000032000F07DF8C4F3074000F079F8C4F31C
:10361000072000F075F8E0B200F072F804E0FF2037
:1036200000F06EF828706D1C301EA6F101018EB2FC
:10363000F5D101210148FEF78CFB70BD001001405F
:1036400000B587B001210803FFF762FE0121D420F5
:10365000FFF75EFE0120ADF8040003208DF80600A0
:1036600010208DF8070001A92248FEF7DCFA20207F
:10367000ADF8040018208DF8070001A91E48FEF7D8
:10368000D2FA4020ADF8040001A91B48FEF7CBFA9E
:103690008020ADF8040001A91748FEF7C4FA012103
:1036A0001448FEF756FB0020ADF808004FF4827076
:1036B000ADF80A000020ADF80C000220ADF80E00B5
:1036C0000120ADF810004002ADF812000820ADF85E
:1036D00014000020ADF816000720ADF8180002A96C
:1036E000064800F057F801210448FFF775FF07B0BE
:1036F00000BD000000100140000801400030014002
:1037000010B504464FF48050194908600AE0184982
:103710000868411E164A116020B9002000F058F8D0
:10372000C0B210BD0221134800F026F80028EED0E8
:103730002146104800F02CF84FF480500C490860E6
:103740000AE00B490868411E094A116020B90120AE
:1037500000F03EF8C0B2E4E70121064800F00CF8A2
:103760000028EED0034800F010F8C0B2D9E70000FE
:1037700018000020003001400246002013890B4051
:103780000BB1012000E00020704701468889704796
:103790008181704710B50022028802F441520B88E3
:1037A0004C8823438C882343CC8823430C892343B0
:1037B0004C8923438C892343CC8923431A430280B9
:1037C000838B4FF2FF74234083830B8A038210BDE7
:1037D00010B50446214602A001F020F9002010BDDA
:1037E0003C3C2D464C4153482D4552524F522D3EA4
:1037F0003E2053504920B5C8B4FDB3ACCAB12165D1
:1038000072726F72436F6465203D2025640A000068
:1038100010B51E4803881E48028800210846FEF79E
:10382000D9FA1C48FFF7FCF9002147F6FF70FFF7B3
:10383000EDF919A20A210846FEF77AFB00214FF4A0
:103840007840FFF7E3F917A20A21F020FEF770FB9A
:103850004FF2DE70FFF7EAF92823DA00194600205C
:10386000FEF766FC00214FF4FC60FFF7CFF90FA2D2
:10387000D2215020FEF75CFBFF200F49087000208A
:103880000E49488178200E49088010BD1E00002096
:103890001C00002004010020D1AAD1F5C2F6B3E536
:1038A00000000000B7B5BBD800000000D1AAD1F5D8
:1038B000D6B5A3BA0000000028010020C8010020EE
:1038C0002A0100202DE9F04F87B04FF00A094FF48C
:1038D0009B7A4FF4967B732002905D480078002815
:1038E00059D000241DE0601C5A49085C40B25A4976
:1038F0005A4A1288885459490988481CC11700EB54
:1039000011610912A0EB0121544A1180544800882A
:10391000FF2804DC52480088401C51490880601C84
:10392000C4B2402CDFDB4B4890F842004D49097887
:1039300088422DD04C48FFF773F90020FFF776F945
:10394000012018235022D2210090B020FEF740FC25
:1039500000214FF4FC60FFF759F93E4890F842000F
:1039600028B942A2D221B020FEF712FB0BE0394861
:1039700090F842203FA103A801F060F803AAD221E9
:10398000B020FEF705FB334890F842003549087037
:1039900000202F49087032480088002854DD37483D
:1039A00040890A3085B235484089801C4FF49671B1
:1039B00090FBF1F201FB12000A3087B20020FFF702
:1039C00035F9CD233A4629213846FEF7B1FB224886
:1039D0002B49098810F90180322108FB01F0C11739
:1039E00000EB5161C911C1F173018EB223484089C6
:1039F00000280BDD4FF4FC60FFF718F9691E88B250
:103A000033462A461F490988FEF792FB1D48068067
:103A10001B490988481CC11700EB11610912A0EB72
:103A20000121174A11800E480088401E0C49088069
:103A300012484089401C1149488108464089B0F528
:103A4000967F01DB0020488107B0BDE8F08F0000C1
:103A50001400002070010020E0010020520100202D
:103A60004E01002028010020FC0000202D2D2025E3
:103A7000000000002564202525000000C80100206A
:103A8000500100202A010020704710B500F002F814
:103A900010BD00000CB50020019000903348006874
:103AA00040F480303149086000BF3048006800F4BD
:103AB000003000900198401C0190009818B90198BE
:103AC000B0F5A06FF1D12948006800F4003010B1C2
:103AD0000120009001E0002000900098012843D1CF
:103AE0002348006840F0100021490860084600683B
:103AF00020F0030008600846006840F002000860FB
:103B00001A484068194948600846406848600846B5
:103B1000406840F4806048600846406820F47C10AB
:103B200048600846406840F4E8104860084600686D
:103B300040F08070086000BF0C48006800F0007022
:103B40000028F9D00948406820F003000749486080
:103B50000846406840F00200486000BF03484068E3
:103B600000F00C000828F9D10CBD00000010024044
:103B70000020024010B52348038823480288002112
:103B80000846FEF727F92148FFF74AF800214FF6CB
:103B9000FF70FFF73BF81EA20A216E20FEF7C8F95E
:103BA0004FF47840FFF742F81CA20A21F020FEF7FC
:103BB000BFF94FF2DE70FFF739F82823DA00194613
:103BC0000020FEF7B5FA002147F6FF70FFF71EF858
:103BD00014A23C210A20FEF7ABF915A25F210A20AE
:103BE000FEF7A6F915A282210A20FEF7A1F916A276
:103BF000A5210A20FEF79CF916A2C8210A20FEF78B
:103C000097F910BD1E0000201C00002004010020B8
:103C1000CFB5CDB3C9E8D6C300000000B7B5BBD857
:103C200000000000D0C4C2CAC9E8D6C3A3BA0000CD
:103C3000D1AAD1F5B1A8BEAFA3BA0000CCE5CEC2DF
:103C4000B1A8BEAFA3BA0000B8DFD1B9B1A8BEAF6A
:103C5000A3BA0000B5CDD1B9B1A8BEAFA3BA0000D8
:103C6000F0B591B03C2523242C48FEF7D9FF002164
:103C70004FF6E070FEF7CAFF2948427829A101A853
:103C800000F0DCFE01AA29465520FEF781F9244800
:103C9000027824A101A800F0D1FE01AA2946CD2076
:103CA000FEF776F900214FF6FF70FEF7AFFF1C48D4
:103CB00082781FA101A800F0C1FE291901AA8C2059
:103CC000FEF766F916494868FCF746FC0646324698
:103CD0000B461BA101A800F0B1FE05EB440101AAAF
:103CE0008C20FEF755F90E48027B19A101A800F0BF
:103CF000A5FE04EB4400411901AA8220FEF748F911
:103D00000748827B12A101A800F098FE05EB840110
:103D100001AA8220FEF73CF911B0F0BDFC000020A2
:103D2000380100205B2D5D20253364205B2B5D0076
:103D30005B2D5D2020253264252520205B2B5D0036
:103D40005B2D5D20252E31662043205B2B5D00001E
:103D50005B2D5D20253364206D6D4867205B2B5DF6
:103D600000000000F8B50025A0265A270020FEF725
:103D700047FF3D4803883D48028800210846FEF77A
:103D800029F800214FF6FF70FEF740FF3848FEF794
:103D900047FF38A2A0216420FEF7FAF800243AE099
:103DA000002003462A46394600903046FFF72AFB9A
:103DB00033492846FCF7ECF9054632492846FCF71A
:103DC00005FC04D82F492846FCF734FA05460020A4
:103DD0004FF6FF732A46394600903046FFF712FB34
:103DE000142094FBF0F100FB114020B926A2A02181
:103DF0006420FEF7CDF8142094FBF0F100FB114095
:103E00000A2804D123A2A0216420FEF7C1F81E20B5
:103E100001F028FE641C642CC2DB002003462A4605
:103E2000394600903046FFF7EDFA01201F230022AB
:103E3000394600903046FFF7E5FA47F6FF70FEF787
:103E4000F5FE17A2A0215520FEF7A2F840F2DC50A3
:103E500001F008FE0448038804480288002108464F
:103E6000FDF7B8FFF8BD00001E0000201C00002078
:103E7000040100204C4F4144494E472E2E000000C3
:103E8000000020410000B4434C4F4144494E472EAE
:103E90002E2000004C4F4144494E472E2E2E00004C
:103EA00053595354454D2052454144590000000098
:103EB000042808D14FF0E021096941F004014FF0D6
:103EC000E022116107E04FF0E021096921F00401CF
:103ED0004FF0E022116170477047000010B51348A1
:103EE000006840F001001149086008464068104928
:103EF00008400E494860084600680E4908400B49D2
:103F000008600846006820F4802008600846406881
:103F100020F4FE0048604FF41F008860FFF7B5FDF5
:103F20004FF000600449086010BD0000001002401E
:103F30000000FFF8FFFFF6FE08ED00E010B51248A4
:103F40000078012806D003280AD004280BD00628C0
:103F500016D102E0FDF79CF913E0FFF781FE10E0B7
:103F6000FDF758FD0DE009480088401C80B2074964
:103F70000880322803DB00200880FFF7A3FC00E064
:103F800000BF00BF10BD00002C0100204A0100202E
:103F90007CB5B649684600F061FB002872D0B44891
:103FA000007800B17CBD0120B1490870B1480078AB
:103FB000072868D2DFE800F004394A8D7C679B004F
:103FC000BDF90000A02810DABDF9020028280CDD98
:103FD000BDF902008C2808DA0120A6490870FDF717
:103FE000B5F88A20FEF7AAFD1EE0BDF90000A02862
:103FF0000DDBBDF90200282809DDBDF902008C287F
:1040000005DA02209B49087000F0A8FA0CE0BDF91F
:104010000000A02808DBBDF902008C2804DB062084
:1040200094490870FFF7A6FD1AE1BDF9020028289F
:104030000BDABDF90000C82807DD8820FEF77EFDF9
:1040400000208C490870FEF7A3FF09E1BDF90200CA
:10405000282809DABDF90000C82805DD00208549B7
:104060000870FEF795FF22E0BDF9020028280BDD5D
:10407000BDF90000A02807DA03207E490870FDF78B
:1040800083FC14E0EDE0EAE0BDF9020028280EDD33
:10409000BDF90000A0280ADB042076490870002042
:1040A00075494881FFF7B4FB8A20FEF747FDD7E04A
:1040B000BDF9020028280BDABDF90000C82807DD89
:1040C0008820FEF73BFD02206A49087000F046FA9E
:1040D000C6E0BDF90200282808DABDF90000C828AA
:1040E00004DD02206349087000F038FAB8E0BDF83A
:1040F000000084B2BDF8020085B2282D07DADC2C5E
:1041000005DD00205B490870FEF742FF4AE7372DC6
:1041100028DB502D26DA502C06DB732C04DC5748A4
:104120004078401E55494870912C06DBB42C04DCC5
:1041300052484078401C51494870C82C06DBEB2C93
:1041400004DC4E480078401E4C490870B4F5847F6A
:1041500069DDB4F5967F66DC48480078401C474925
:10416000087060E05A2D14DB732D12DA872C06DB01
:10417000AA2C04DC41488078401E40498870D72C26
:1041800051DBFA2C4FDC3D488078401C3B4988705D
:1041900049E07D2D18DB962D16DA872C08DBAA2C3A
:1041A00006DC364948683649FCF744F8334948602C
:1041B000D72C38DBFA2C36DC304948683049FBF71D
:1041C000E7FF2E4948602EE0A02D15DBB92D13DA4C
:1041D0007D2C06DBA02C04DC2848007B401E2749F0
:1041E0000873E62C1FDBB4F5857F1CDA2348007BBF
:1041F000401C2249087316E0C32D14DBDC2D12DAB3
:104200007D2C06DBA02C04DC1C48807B401E1B4957
:104210008873E62C07DBB4F5857F04DA1748807BCA
:10422000401C16498873154801784078401D81422A
:1042300004DA12484078401D104908700F48807811
:10424000642802DD64200D4988700C4948680D49D6
:10425000FCF7BCF902D20B480849486000E000BFF7
:1042600002E000200249087000BF9BE62C000020FD
:10427000480100202C010020C80100203801002046
:10428000CDCCCC3D0000344210B540F2255116484B
:1042900000F09DF838B3144800F054F9C4B2134844
:1042A000007848B9FF2C19D1114804700120114938
:1042B00008700E49087011E00E4801780078401C23
:1042C0000C4A10700A48445410460078582805DB00
:1042D00001200949087000200449087040F2255166
:1042E000014800F00BF810BD00440040150000200C
:1042F00070010020160000201400002010B50022DC
:10430000002340F66A14A14200D100BF0A12012422
:104310009440A3B2DC43048010BD21B1828942F4F1
:104320000052828104E082894DF6FF731A40828137
:104330007047000000B585B001210420FEF7E8FFBA
:1043400001218803FEF7E4FF4FF40070ADF8100080
:1043500018208DF8130003208DF8120004A91348CB
:10436000FDF761FC4FF48060ADF8100004208DF87B
:10437000130004A90D48FDF756FC4FF4E1300090FE
:104380000020ADF80400ADF80600ADF80800ADF867
:104390000C000C20ADF80A006946054800F066F8EC
:1043A00001210348FFF7B9FF05B000BD0008014037
:1043B0000038014002460020B1F5007F00D100BF67
:1043C00013880B400BB1012000E00020704770B54E
:1043D0000246002400230025002040F66A16B14260
:1043E00000D100BFC1F3421501F01F03012606FAF8
:1043F00003F3012D02D19689334006E0022D02D14C
:10440000168A334001E0968A33400C12012606FAE0
:1044100004F41688344013B10CB1012000E00020F0
:1044200070BDF0B50346002400260025002040F6AC
:104430006A17B94200D100BF1846C1F3421401F017
:104440001F06012707FA06F5012C01D10C3004E004
:10445000022C01D1103000E014301AB107682F434C
:10446000076002E00768AF430760F0BD2DE9F04741
:1044700086B005460E460024A24600BFA14600278E
:10448000B08900B100BF2F462C8A4CF6FF70044063
:10449000F08804432C82AC894EF6F3100440B088B7
:1044A00031890843718908430443AC81AC8A4FF6D3
:1044B000FF400440B0890443AC8201A8FEF738FFF6
:1044C0001F48874202D1DDF810A001E0DDF80CA002
:1044D000A88900F4004040B10AEBCA0000EB0A10C2
:1044E00031684900B0FBF1F807E00AEBCA0000EBC5
:1044F0000A1031688900B0FBF1F86420B8FBF0F0D5
:1045000004012009642101FB1089A88900F40040FE
:1045100040B1322000EBC900B0FBF1F000F0070021
:10452000044308E0322000EB09106421B0FBF1F0F5
:1045300000F00F0004432C8106B0BDE8F0870000B6
:104540000038014001468888C0F308007047C1F375
:1045500008028280704700BFFEE7000010B500200F
:10456000FEF74EFB274803882748028800210846AB
:10457000FDF730FC2548FEF753FB00214FF6FF7096
:10458000FEF744FB22A20A210846FDF7D1FC0021D8
:104590004FF47840FEF73AFB20A20A21F020FDF705
:1045A000C7FC4FF2DE70FEF741FB2823DA00194604
:1045B0000020FDF7BDFDF023A02228211046FDF7C5
:1045C000B7FD4FF4FC60FEF731FB64215020FDF78E
:1045D00044F90E48FEF724FB12A2A0213020FDF77B
:1045E000A7FC47F6FF70FEF721FB6421F020FDF7E2
:1045F00034F90648FEF714FB0DA2A021D020FDF7E8
:1046000097FC10BD1E0000201C00002004010020AB
:10461000CAB5CAB1B2A8D0CE00000000B7B5BBD8A9
:1046200000000000D0C4B5E7B2E2C1BF0000000046
:10463000D1AAD1F5C2F6B3E50000000001B5002013
:1046400007E00C2100BF0A1EA1F10103D9B2FAD183
:10465000401C00998842F4D308BD00002DE9FC5F9E
:1046600005460C460126684600F0BEF8002865D0D5
:10467000BDF90200FBF735FF83463248007800EBB6
:10468000400004EBC00041685846FBF7D9FD814665
:10469000BDF90000FBF725FF83462A48007800EBB0
:1046A000400054F830105846FBF7CAFD8246494690
:1046B000FBF76EFD80462348007800EB400004EBDA
:1046C000C00081684046FBF763FD0746FBF717FF14
:1046D00000B22880BDF90200FBF703FF83461948AA
:1046E000007800EB400004EBC00001695846FBF77E
:1046F000A7FD8146BDF90000FBF7F3FE8346114894
:10470000007800EB400004EBC000C1685846FBF79E
:1047100097FD82464946FBF73BFD804609480078F5
:1047200000EB400004EBC00041694046FBF730FD60
:104730000746FBF7E4FE00B2688000E00026304642
:10474000BDE8FC9F2000002008B501216020FEF795
:10475000DFFD0120ADF800008DF8020010208DF87B
:10476000030069461A48FDF75EFA0420ADF8000020
:1047700069461748FDF757FA0820ADF800000120F8
:104780008DF8020048208DF8030069461048FDF7B7
:104790004AFA4FF40050ADF8000001208DF80200F5
:1047A00010208DF8030069460A48FDF73CFA4FF4E3
:1047B00000510848FDF7CBFA1020ADF80000482062
:1047C0008DF8030069460248FDF72DFA08BD000088
:1047D000001801400014014010B50446204600F0C6
:1047E000EBF800F0C1F810BD2DE9F0478CB006469B
:1047F000002528216846FBF7C0FC00BF0AA90BA8CA
:1048000000F09EF8BDF92C002DF81500BDF9281018
:1048100005A820F81510681CC5B210214648FDF700
:104820008DFA08B90A2DE9DB10214348FDF786FA15
:1048300010B10020414908700A2D7BD1BDF90070EC
:10484000B846BDF91490CA4601240EE03DF91400A3
:10485000B84202DA3DF9147005E03DF91400404514
:1048600001DD3DF91480601CC4B20A2CEEDB01248A
:1048700012E005A830F91400484503DA05A830F91C
:10488000149007E005A830F91400504502DD05A892
:1048900030F914A0601CC4B20A2CEADBBDF9000098
:1048A000BDF902100844BDF904100844BDF9061012
:1048B0000844BDF908100844BDF90A100844BDF9C0
:1048C0000C100844BDF90E100844BDF9101008443E
:1048D000BDF912100844C01BA0EB0800C01000B2C4
:1048E0003080BDF91410BDF916000144BDF918005F
:1048F0000144BDF91A000144BDF91C000144BDF991
:104900001E000144BDF920000144BDF9220001440C
:10491000BDF924000144BDF926000844A0EB0900BC
:10492000A0EB0A00C01000B2708001200CB0BDE8FE
:10493000F087FFE70020F9E700180140EC000020B5
:104940002DE9F04104460D469020FFF745FF06B2E1
:104950000120FFF773FED020FFF73EFF07B226804D
:104960002F80BDE8F081000070B5002504211148BA
:10497000FDF7EDF901210F48FDF7EBF9002414E0F4
:1049800001210C48FDF7E3F908210A48FDF7D6F9A3
:104990000646C4F10B0006FA00F0284385B2012157
:1049A0000448FDF7D6F9601CC4B20C2CE8DB28469D
:1049B00070BD00000018014070B50546042116487E
:1049C000FDF7C5F901211448FDF7C1F900241FE0E6
:1049D000C4F1070045FA00F000F0010020B1042105
:1049E0000D48FDF7B6F903E004210B48FDF7AFF9D8
:1049F0000520FFF723FE01210748FDF7AAF905204E
:104A0000FFF71CFE01210448FDF7A1F9601CC4B2A8
:104A1000082CDDDB70BD0000001801400FB4054B11
:104A200010B503A9044A029800F028FC10BC5DF8F8
:104A300014FB0000DD5A0008680100200FB4084B89
:104A400010B504A902AA039800F018FC044602A9B4
:104A5000002000F096FF204610BC5DF814FB00001B
:104A600083590008490050EAC12018BF04204A0DAC
:104A700018BF40F0010040F2FF72B2EB515F08BF77
:104A800040F00200012808BF052070472DE9F74FCC
:104A9000144694B00021C4E902111599079121F040
:104AA0000045C9498D4206DC1599C4E9000117B0DB
:104AB0000020BDE8F08FC549DFF814A3A9423CDD12
:104AC0000799C44E0029C44FC44A1599534619DDAD
:104AD000FBF702FF554506D0C14AC24BFBF7FCFE6F
:104AE000C4E900010AE04FF0D352BE4BFBF7F4FEDD
:104AF00032463B46FBF7F0FEC4E9000117B0012047
:104B0000BDE8F08FFBF747FE554506D0B44AB54BDC
:104B1000FBF741FEC4E900010AE04FF0D352B14B6C
:104B2000FBF739FE32463B46FBF735FEC4E9000190
:104B300017B04FF0FF30BDE8F08FAB49A94215998F
:104B400078DB21F0004183468846A84AA84BFBF752
:104B5000E7FB0022A74BFBF71EFEFBF76BFF09905C
:104B6000FBF74AFF06460F469C4A5346FBF7D8FB25
:104B700043465A46FBF7B3FE80468A46984A994B0D
:104B800030463946FBF7CCFB2A0D01250B924246F5
:104B90005346FBF7A4FE032DC4E9000139D00B985E
:104BA000C1F30A51401A05EB45111139814230DA3F
:104BB0009148C346784400EB0510CDF80CA00C904A
:104BC000D0E9002330463946FBF7AAFB02460B46E4
:104BD0000491069058460399FBF77EFE80468A466C
:104BE00002460B4658460399FBF776FE049B069A4D
:104BF000FBF772FE83460C9803913946D0E90223F5
:104C00003046FBF78DFB5A46039BFBF765FE6D1C98
:104C1000BDE707980028A2BF099817B0BDE8F08F3C
:104C2000616881F000416160099817B04042BDE8B9
:104C3000F08FFFE784461598C1F31301C0F30A50C3
:104C4000A0F2F5304FEA601800F01F06C6F1200010
:104C5000139000200690079041F4801E05206D46B9
:104C600076B1664A08EB00017A4452F8213002EB33
:104C70008101B3404A68139922FA01F1194305E012
:104C80005F4908EB0002794451F82210A1FB0E277E
:104C9000A1FB0C131A449A4234BF0123002303EBF7
:104CA000070A05EB8003D3E901B70F448F4234BFF5
:104CB0000121002193448B4411B1934502D903E0B3
:104CC000934501D2012100E00021C3E901B751441D
:104CD00045F82010011EA0F10100C1DC0298059FDB
:104CE00000F10050800F12900298DDE90356800019
:104CF000FBF782FE834628460D91FBF78EFE6FF090
:104D00001D02FBF762FECDE90E013046FBF785FE82
:104D10006FF03D02FBF759FE80468A463846FBF7A6
:104D20007CFE6FF05D02FBF750FE0746424653469D
:104D30001191FBF730FDDDE90E23FBF72CFD5A4600
:104D40000D9BFBF728FD00250E465A4628460D9B75
:104D5000FBF7C2FDDDE90E23FBF7BEFD42465346DD
:104D6000FBF7BAFD3A46119BFBF7B9FDDFF898A0B7
:104D7000244A5346FBF7D4FA07468846234A244B75
:104D800031462846FBF7CCFA3A464346FBF703FD8B
:104D9000074688464FF0A842534631462846FBF75F
:104DA000BFFA3A464346FBF7F6FC159A12F0004F5D
:104DB00004D0129A81F0004152421292C4E90001DB
:104DC000129817B0BDE8F08FFB21E93F7CD9024073
:104DD000FB21F93F7370032E8A19A33B0000405456
:104DE0003163621A61B4D03DFB21394183C8C96D7A
:104DF000305FE43F0000E03F304C0000AC4B00006F
:104E00008E4B0000182D4454FB21F93D3326A6118A
:104E1000460B113C2DE9FF4D21F0004807460C469A
:104E2000B8F1795F08DAFBF705FE002801BF002022
:104E3000324904B0BDE8F08D3A4623461046194683
:104E4000FBF76EFA054602462D480E460B46062134
:104E5000784400F05DF82A463346FBF761FADDE955
:104E6000022382468B4638462146FBF759FA044610
:104E70000F4652465B4628463146FBF751FA22461A
:104E80003B46FBF729FD07468A464FF0FF3228468E
:104E90003146FBF79AFD1B4A90450ADA3A465346DB
:104EA000FBF71AFD04B00022BDE8F04D134BFBF7F1
:104EB00016BD154A4245A8BFA8F500154FF00004DD
:104EC000B8BF124D22462B46FBF706FD0646884624
:104ED00022462B4600200949FBF7FEFC04460D46FE
:104EE0003A46534630464146FBF7F6FC04B02246AC
:104EF0002B46BDE8F04DFBF7F2BC00000000F03F90
:104F0000644900003333D33F0000E93F0000D23F43
:104F10002DE9F0414F1E00EBC7010446D1E9000125
:104F200015461E4637F006020DD02A463346FBF7DB
:104F3000F7F97F1E04EBC703D3E90023FBF72BFC33
:104F400037F00602F1D1022F25D0042F13D0062FFF
:104F500018BFBDE8F0812A463346FBF7E1F9D4E9F2
:104F60000A23FBF718FC2A463346FBF7D9F9D4E9A4
:104F70000823FBF710FC2A463346FBF7D1F9D4E9A6
:104F80000623FBF708FC2A463346FBF7C9F9D4E9A8
:104F90000423FBF700FC2A463346FBF7C1F9D4E9AA
:104FA0000223FBF7F8FB2A463346FBF7B9F9D4E9AD
:104FB0000023BDE8F041FBF7EEBB00002DE9FF4DFB
:104FC000054621F0004084B00C46B0F1795F0BDA61
:104FD0002846FFF747FD042808BF00F06FF8284671
:104FE00008B02146BDE8F08D2A460B461046FBF777
:104FF00097F906460F462A462346FBF791F9804665
:1050000026488A4632463B4605217844FFF780FF12
:1050100083461098029160B3214A224B4046514684
:10502000FBF77EF9CDE900015A4640465146029B06
:10503000FBF776F982468846DDE906014FF0FF323C
:10504000FBF7C3FC52464346FBF746FC32463B4661
:10505000FBF766F9DDE90623FBF73EFCDDE90023FB
:10506000FBF73AFC08B02A462346BDE8F04DFBF7B3
:1050700036BC0B465A4630463946FBF751F9084ACA
:10508000084BFBF788FB42465346FBF749F908B04B
:105090002A462346BDE8F04DFBF77DBBA248000041
:1050A000495555555555C5BF0122FBF78EBC002209
:1050B000134610461146FBF7A5B90000024A00202E
:1050C0001107FBF782BC000001FDFFFF02E008C8EA
:1050D000121F08C1002AFAD170477047002001E072
:1050E00001C1121F002AFBD170470000014908606E
:1050F000704700006C0100202DE9FF5F82B00021A5
:10510000DDE90430020DDDF840B0034318D044F669
:105110001050A2F2FF3242431514119801281FD0FB
:10512000A5EB0B00401C5FEA000A4FF000064E4F53
:10513000DFF83891B046504615D5CAF1000413E0A7
:10514000119801244AA3012801D16FEA0B010298AA
:10515000119AC0E90031C0E9024206B0BDE8F09FF3
:10516000CBF10000DFE704460021404A491842EB3A
:105170000450CDE9001012E0E00707D032463B466C
:1051800040464946FBF7CCF88046894632463B46C6
:1051900010461946FBF7C4F806460F466410002C6B
:1051A000EAD1DDE90401DDE90023BAF1000F06DAF6
:1051B000FBF7B6F842464B46FBF7B2F805E0FBF7C3
:1051C00021F942464B46FBF71DF904460E460022E4
:1051D000284BFBF79FFB03D84FF0FF30014607E059
:1051E0000022254B20463146FBF7D5FAFBF77AFB28
:1051F000102409E0002C0ADB0A220023FBF706FA40
:10520000039B30321A55641E50EA0102F2D1641C2D
:10521000039AC4F111031444119A012A03D0012204
:1052200008430DD10AE0084304D000204FF0110BD1
:10523000119072E7A3EB0B056D1E0DE05B4504DDDD
:105240004FF0000205F1010504E003DA4FF000021F
:10525000A5F10105002AECD002981199C0E90231AC
:10526000C0E9004579E70000000014400000F03F6D
:10527000300000000000F0430000E03F2DE9FF4F48
:1052800095B09A46884606460025EEE1252877D156
:1052900000242746F94A0121039400E0044316F84C
:1052A000013F203B01FA03F01042F7D130782A2861
:1052B00011D06FF02F033078A0F13002092A16D8F0
:1052C000039A44F0020402EB820203EB4202104410
:1052D000761C0390EFE758F8042B0392002A03DAB8
:1052E000504244F40054039044F00204761C307899
:1052F0002E2816D116F8010F44F004042A280DD0E8
:105300006FF02F023078A0F13003092B09D807EB9A
:10531000870302EB4303C718761CF3E758F8047BB6
:10532000761C30786C280FD006DC4C2817D0682803
:105330000DD06A2814D104E0742810D07A280FD137
:105340000DE044F400140AE044F4801401E044F455
:1053500040147278824202D104F58014761C761CC7
:10536000307866280BD013DC582877D009DC002869
:1053700075D04528F6D04628F4D047281AD193E1B5
:1053800018E0632835D0642879D0652812D18BE1E4
:10539000702873D008DC6728F1D069286FD06E2898
:1053A0000DD06F2806D1ACE073282CD0752874D0AE
:1053B000782853D05246179990476D1C54E1C4F396
:1053C0000250022809D003280DD0D8F80010042874
:1053D0000DD00D6008F1040846E1D8F80010EA1776
:1053E000C1E90052F6E7D8F800100D80F2E70D7021
:1053F000F0E718F8041B8DF8001000208DF801006C
:10540000EB46012003E058F804BB4FF0FF30610782
:105410004FF0000102D40DE009F101018946B942C3
:105420000FDA8145F8DB1BF809100029F4D108E0F8
:1054300009F1010189468142FADB1BF809100029B4
:10544000F6D103985346A0EB090721463846179A30
:1054500000F080FA284400EB090507E044E008E189
:105460000DE01BF8010B524617999047B9F101095D
:10547000F7D2534621463846179AF2E039E00A211E
:10548000C4F302524FF0000B0091022A06D058F8E4
:10549000040BC117032A09D00AE023E008F1070032
:1054A00020F00702F2E80201904605E000B2C117C1
:1054B000042A01D140B2C117002906DA0A460021A8
:1054C000404261EB02012D2202E0220504D52B228D
:1054D0008DF80420012203E0E20701D02022F7E743
:1054E000914657E00A2100E010214FF0000B009197
:1054F0000BE010214FF0000B44F00404082700914A
:1055000003E008204FF0000B0090C4F30252022A7F
:1055100005D058F8040B0021032A08D008E008F150
:10552000070020F00702F2E80201904603E080B293
:10553000042A00D1C0B24FF0000922072AD53278E0
:10554000702A07D0DDF800C08CF0100C5CEA0B0C60
:1055500005D00EE040228DF80420012208E050EA38
:10556000010306D030238DF804308DF80520022287
:105570009146009B83F0080353EA0B030AD150EADB
:10558000010201D1620705D530228DF804204FF0C9
:1055900001097F1E3278582A04D039A20C920CAA35
:1055A00002920BE03BA2F9E75B46009AFBF72EF86C
:1055B0000C9B9B5C029A521E0292137050EA0102ED
:1055C000F2D1029804A9081A00F1200B600702D555
:1055D00024F4803400E001275F4502DDA7EB0B00D7
:1055E00000E0002000EB0B01009003984944401AB2
:1055F0000390E00306D453462146179A039800F01F
:10560000A9F90544002706E001A85246C05D179994
:1056100090476D1C7F1C4F45F6DBE0030CD55346CD
:105620002146179A039800F095F9054404E03020CC
:105630005246179990476D1C0099481E009000290A
:10564000F5DC08E00298029952460078491C029164
:10565000179990476D1CBBF10001ABF1010BF1DC18
:105660005BE100F065F90544761C307800287FF492
:105670000DAE19B02846BDE8F08F000009280100E2
:1056800030313233343536373839616263646566B8
:10569000000000003031323334353637383941427A
:1056A0004344454600000000600700D4062708F187
:1056B000070020F00700F0E80223804603F0004CCA
:1056C0005FEA0C0001D097A009E0200501D596A063
:1056D00005E0E00701D095A001E0AFF24C00139087
:1056E000307823F0004365280CD006DC452809D02B
:1056F00046281DD047287FD13BE0662818D0672870
:105700007AD136E00021112F01DB112000E0781C56
:10571000CDE9000104A90CA8FFF7EEFCDDE90D01BD
:105720000C9A4FF0000B07F10109109200914EE026
:105730004FF000400097CDE9011004A90CA8FFF735
:10574000DBFCDDE90D020C9B0F994FF0000B91463D
:105750001093009211B9791C00EB0109B7EB090015
:1057600003D4C0F1FF3B07F10109A9EB0700019049
:1057700042E0012F00DA01270021112F01DD112065
:1057800000E03846CDE9000104A90CA8FFF7B4FCFD
:10579000DDE90D010C9A00914FF0000BB946109213
:1057A00021070FD4009A4A4503DA914601E0A9F196
:1057B0000109B9F1010F05DD109AA9F10101515C50
:1057C0003029F4D0B84202DA10F1040F03DA0121D3
:1057D000CDE9011010E0002803DC8344A9EB0001AF
:1057E00002E0411C494500DD8946A0EB0B00401C4E
:1057F00001904FF000400290200705D401984845E1
:1058000002DB4FF0FF30019000208DF84B00029832
:105810000DF14B07B0F1004F25D002200C902B204A
:105820000D90029800280CDA404202902D200D9035
:1058300007E00A210298FAF7D3FE3031029007F808
:10584000011D0C99481E0C900029F2DC02980028DA
:10585000EFD1791E0D980870307800F0200040F0EC
:10586000450007F8020D11A8C01BC01D0290139837
:10587000007800B1012000EB0901019801EBE07113
:10588000029801440398401A401E0390E00306D496
:1058900053462146179A039800F05CF80544139884
:1058A000007818B15246179990476D1CE00323D534
:1058B00053462146179A039800F04CF805441BE024
:1058C000BBF1000F07DB0098584504DD10981799CD
:1058D00010F80B0001E017993020524690470198CC
:1058E0000BF1010B401E05F10105019004D12E20A2
:1058F0005246179990476D1CB9F10001A9F10109B1
:10590000DEDC05E017F8010B5246179990476D1C35
:105910000299481E02900029F4DC53462146179A4A
:1059200003989EE62D0000002B00000020000000E0
:105930002DE9F041044600251E461746880404D48C
:1059400005E039462020B0476D1C641EF9D5284675
:10595000BDE8F0812DE9F041044600251E46904641
:10596000C80301D5302700E02027880404D505E0CE
:1059700041463846B0476D1C641EF9D52846BDE83F
:10598000F0810A68531C0B601070704700B5244BFF
:1059900021F0004287B09A42DCBF0022134629DD85
:1059A000204B9A4208D140B94FF00100FFF79EFB0F
:1059B000FFF77DFB07B000BD03DBFFF775FB07B00A
:1059C00000BD02AAFFF762F810F0030104BF0DF159
:1059D000080C9CE80F000DD0012001290ED00229EF
:1059E00014D00DF1080C00909CE80F00FFF7E6FAC8
:1059F00007B000BDFFF70EFA07B000BD0DF1080CAF
:105A000000909CE80F00FFF7D9FA05E00DF1080CB3
:105A10009CE80F00FFF7FEF907B081F0004100BDE0
:105A2000FB21E93F0000F07F10B504466FF0040051
:105A3000FEF73EFAE11704EB5171C1F3C701074AC3
:105A400011701046007800EB4001C1EBC0104FF61A
:105A5000FF7101EAC0000249088010BD1601002054
:105A60001801002001460D4A12884A434FF0E023F6
:105A70005A6100229A6101221A6100BF4FF0E022B0
:105A8000106900F001021AB100F48032002AF5D04A
:105A900000224FF0E0231A619A617047180100203C
:105AA00001460D4A12784A434FF0E0235A61002222
:105AB0009A6101221A6100BF4FF0E022106900F0E4
:105AC00001021AB100F48032002AF5D000224FF012
:105AD000E0231A619A6170471601002070B50446F0
