:020000040800F2
:100000003813002049010008ED2400089912000867
:10001000E92400088D0A00081B31000800000000D8
:10002000000000000000000000000000A52A0008F9
:10003000290D00080000000061250008052D0008BA
:100040006301000863010008630100086301000800
:1000500063010008630100086301000863010008F0
:1000600063010008630100086301000863010008E0
:1000700063010008630100086301000863010008D0
:1000800063010008630100086301000863010008C0
:1000900063010008630100086301000863010008B0
:1000A00063010008630100086301000863010008A0
:1000B0006301000863010008630100086301000890
:1000C0006301000863010008630100086301000880
:1000D00063010008630100084D2E00086301000859
:1000E0006301000863010008630100086301000860
:1000F0006301000863010008630100086301000850
:10010000630100086301000863010008630100083F
:10011000630100086301000863010008630100082F
:10012000630100086301000863010008630100081F
:10013000DFF810D000F0E8FB00480047C546000893
:10014000AFF3008038130020064880470648004778
:10015000FEE7FEE7FEE7FEE7FEE7FEE7FEE7FEE777
:10016000FEE7FEE7092D000831010008D2B201E0E8
:1001700000F8012B491EFBD270470022F6E710B5AC
:1001800013460A4604461946FFF7F0FF204610BD05
:10019000F0B480EA0102D40F4200B2EB410F02D268
:1001A0000246084611464A0042D0C30DDDB2C1F3F3
:1001B000C752AD1A202D35DAC1F3160141F4000201
:1001C00004B15242C5F1200602FA06F12A41104458
:1001D000B3EBD05F23D0C4B1012DA0EBC35009DC39
:1001E000F0BC4FF0004202EAC352DBB200F500005F
:1001F00000F028BA400000F1807000EBC350A0F17D
:10020000807040EAD170490009E0490841EAC071B4
:10021000A0EBC35000F50000400800EBC350F0BC59
:1002200000F007BA6142012202EB4101001BF6E730
:10023000F0BC704781F00041AAE780F00040A7E7DA
:1002400080EA010210B502F00043400022D04A00CB
:100250001FD0010E01EB1261C0F35600C2F356022B
:1002600040F4000042F40002A0FB022000047F39A9
:10027000140400D0401C50EA124001D44000491E32
:10028000C2B20C0604EBD010401C4008802A02D0F9
:1002900003E0002010BD20F00100002900DA00205A
:1002A000184310BD30B480EA010202F0004530F07E
:1002B000004221F0004013D090B1C30DD40DC2F321
:1002C0001601C0F31600E41A41F4000140F40002E4
:1002D0007D34914201D3641C00E04900002C02DA15
:1002E00030BC002070474FF400000023914201D33E
:1002F000891A034340084FEA4101F7D151B19142B5
:1003000002D14FF0004105E002D24FF0010101E0BF
:100310006FF0010103EBC450284430BC00F089B9F0
:100320002DE9FE4F81EA030404F0004421F000416E
:1003300000944FF0000B23F0004350EA01045ED01C
:1003400052EA03045BD0C3F30A54C1F30A552C44A8
:10035000A4F2F3340194A0FB0254C1F3130141F45D
:100360008011C3F3130343F4801301FB024400FB29
:10037000034E840A970A44EA815447EA8357A4FB50
:10038000076802958D0A05FB07854FEA932C04FB4D
:100390000C542705029D4FEA065847EA1637B5EB7D
:1003A00008056EEB070C870E920E47EA811742EAAA
:1003B0008312A7FB0201B6EB0B0164EB00042B0DCB
:1003C00043EA0C335E1844EB1C50DA465146E7FB17
:1003D0000201C5F313044FEA0B3343EA14534FEA07
:1003E0000432019C43EA0603A4F10C040294009C2D
:1003F000CDE900B400F063F903B0BDE8F08F002050
:100400000146F9E72DE9F04D81EA030404F0004BC1
:1004100021F0004514464FF0000A23F0004150EA55
:10042000050220D054EA01021DD0C5F30A57024646
:10043000C5F31303C1F31300C1F30A5640F480154A
:1004400043F48013A7EB0608101BD64608F2FD38CC
:1004500073EB050002D308F1010801E092185B413B
:10046000B8F1000F03DA00200146BDE8F08D00204E
:100470004FF48011064684460EE0171B73EB050708
:1004800005D3121B63EB050306434CEA010C490834
:100490004FEA300092185B4150EA0107EDD152EA71
:1004A000030012D082EA040083EA0501084305D064
:1004B000101BAB4106D20122002306E000224FF0C0
:1004C000004302E06FF0010253101AEB06004CEB00
:1004D000085110EB0A0041EB0B01BDE8F04D00F0B4
:1004E000DFB8C10F80EAE0700844CA0796230021F4
:1004F00000F0A8B896230022114600F0A3B800F03F
:10050000004220F00040C10DC0F3160040F400008E
:100510007F2901DA00207047962903DCC1F196019A
:10052000C84001E096398840002AF4D04042704724
:1005300000F0004230F000400AD0C10D01F56071BA
:10054000C0F3160042EA0151C20840071143704748
:1005500000200146704701F0004330B421F0004113
:1005600050EA010206D00A0DA2F56072C1F3130130
:10057000002A02DC30BC00207047440F44EAC1046A
:10058000C100E01830BC00EBC25000F052B80000CF
:10059000002801DBC0F10040002901DBC1F100416E
:1005A0008842704730B50B460146002020220124C6
:1005B00009E021FA02F59D4205D303FA02F5491B31
:1005C00004FA02F52844151EA2F10102F1DC30BD47
:1005D0002DE9F05F0546002092469B468846064678
:1005E000814640241BE0284641464746224600F00B
:1005F000ACF953465A46C01A914110D311461846D9
:10060000224600F093F92D1A67EB01084F46224667
:100610000120002100F08AF917EB00094E41201E4D
:10062000A4F10104DFDC484631462A464346BDE8D2
:10063000F09F0029A8BF7047401C490008BF20F068
:100640000100704710B4B0FA80FC00FA0CF050EAD8
:10065000010404BF10BC704749B1CCF1200421FA59
:1006600004F411FA0CF118BF012121430843A3EB54
:100670000C01CB1D4FEA00614FEA102042BF002061
:1006800010BC704700EBC35010440029A4BF10BC3D
:100690007047401C490008BF20F0010010BC7047A3
:1006A00010B5141E73F1000408DA401C41F100017A
:1006B00092185B411A4301D120F0010010BD2DE9D1
:1006C000F04D92469B4611B1B1FA81F202E0B0FAC8
:1006D00080F22032904600F029F904460F4640EAA5
:1006E0000A0041EA0B0153465A46084313D011460B
:1006F00053EA010019D0C8F14002504600F025F934
:1007000005460E4650465946424600F00FF908434A
:1007100005D0012004E020463946BDE8F08D0020D8
:10072000054346EAE0762C4337430A986305E40A1A
:10073000A0EB08000022FD0A44EA47540A3002D523
:1007400000200146E9E7010510196941DDE9084586
:1007500000196941BDE8F04DA2E72DE9FE4F804642
:1007600081EA0300C00F0C46009021F0004123F005
:100770000045B8EB0200A94105D24046214690460B
:100780001C460B46024623F00040104347D0270D7D
:10079000C7F30A00C3F30A510290401A019040289F
:1007A0006BDAC3F3130040F4801B0098924620B12B
:1007B0000023D2EB030A63EB0B0B01985946C0F1FF
:1007C0004002504600F0B2F806460D4650465946E3
:1007D000019A00F0CAF810EB08006141002487EA92
:1007E000115284EAE7731A4340D0009A62B3019A27
:1007F000012A4FEA075215DC001B61EB02014FF0A2
:10080000004202EA0752CDE90042001C41F5801186
:1008100032462B46FFF753FF03B0BDE8F08F40464A
:100820002146F9E7001B61EB0201001C41F5801332
:1008300000185B412018A2F5001747EB030140EABE
:10084000D570B6196D4111E06D084FEA360645EADC
:10085000C0754FEA0752001B61EB0201001C41F515
:10086000801149084FEA30000019514132462B46A9
:1008700003B0BDE8F04FFFF713BF0098012240001E
:100880000023D0EB020263EBE073009821464FEAAD
:10089000E074B8EB000061EB0401E9E783F000438A
:1008A0005BE781F0004158E7C1F30A52C1F313013D
:1008B00040F2FF3341F480119A4202DA00200146EF
:1008C000704740F233439A42A2F2334202DC524272
:1008D00000F03BB800F02AB830B5041E71F10004F6
:1008E00004DB4FF00044404264EB0101141E73F13D
:1008F000000405DB1C464FF00043524263EB040347
:10090000994208BF904230BD064C074D06E0E068B2
:1009100040F0010394E8070098471034AC42F6D346
:10092000FFF70AFC80840008A0840008202A04DB6A
:10093000203A00FA02F1002070479140C2F12003F2
:1009400020FA03F3194390407047202A04DB203A31
:1009500021FA02F00021704721FA02F3D040C2F1DF
:1009600020029140084319467047202A06DBCB1726
:10097000203A41FA02F043EAE07306E041FA02F35A
:10098000D040C2F12002914008431946704770B52B
:1009900021F0004303430CD0C1F30A550024D5EBEA
:1009A000040564EB0403D617AD1AB34102DB002043
:1009B000014670BD201841EB025170BD0EB5C10F4C
:1009C00080EAE0700844CA07002140F233438DE812
:1009D0000E000A460B46FFF772FE03B000BD0EB5CF
:1009E00040F2334102910021CDE900110A460B4645
:1009F000FFF765FE03B000BD70B5C1F30A5201F008
:100A000000450024C1F3130140F2FF3341F480118B
:100A10009A4201DA002070BD40F233439A42A2F2BA
:100A2000334203DC5242FFF790FF00E090402C433A
:100A3000F1D0404270BD70B58C1810F8015B15F014
:100A4000070301D110F8013B2A1106D110F8012B40
:100A500003E010F8016B01F8016B5B1EF9D12B0765
:100A600005D40023521E0DD401F8013BFAE710F81B
:100A7000013BCB1A921C03E013F8015B01F8015B08
:100A8000521EF9D5A142D8D3002070BD00BFFEE7A9
:100A900010B5002001F02AFB36480388364802884A
:100AA0000021084600F00CFC344801F02FFB002127
:100AB0004FF6E07001F020FB31A20A21322000F055
:100AC000ADFC00214FF4784001F016FB2FA20A2163
:100AD0004FF4827000F0A2FC4FF2DE7001F01CFBBC
:100AE0002823DA001946002000F098FD5A234FF41D
:100AF000A0721946002000F091FD8C234FF4A072E3
:100B00001946002000F08AFDBE234FF4A07219465A
:100B1000002000F083FDF02387222821104600F0FA
:100B20007DFD1C4801F0F2FA4FF4784001F0F4FA30
:100B300019A237210A2000F071FC4FF4FC6001F08B
:100B4000EBFA17A269210A2000F068FC4FF6FF704B
:100B500001F0E2FA14A29B210A2000F05FFC47F6A4
:100B6000FF7001F0D9FA12A2CD210A2000F056FC44
:100B700010BD00001E0000201C0000200401002009
:100B8000D7DBBACFD2C7B1ED00000000B7B5BBD8F4
:100B900000000000FC000020D0C4C2CAA3BA0000BC
:100BA000D1AAD1F5A3BA0000CCE5CEC2A3BA000009
:100BB000D1AAD1B9A3BA000030B589B045480078B0
:100BC00098B1454890F8410044490880424890F85F
:100BD00042004880404890F8470008723E4890F82C
:100BE0004800487200203B4908703D480088401C7E
:100BF00080B23B490880322808DB0020088001F0E1
:100C0000D5FA0446FFF7A7FC34494860354801F09F
:100C10007DFA00214FF4784001F06EFA2F480088E9
:100C200020B931A101A802F0EBFC05E02B480288B5
:100C30002FA101A802F0E4FC01AA3C21084600F023
:100C40001DFC00214FF4FC6001F056FA2348408857
:100C500020B929A101A802F0D3FC05E01F48428871
:100C600028A101A802F0CCFC01AA6E213C2000F0D2
:100C700005FC00214FF6FF7001F03EFA1749486865
:100C8000FFF756FC044622460B4620A101A802F0BD
:100C9000B7FC01AAA0213C2000F0F0FB002147F6A0
:100CA000FF7001F029FA0D48008820B919A101A8A8
:100CB00002F0A6FC06E00948437A027A17A101A8CF
:100CC00002F09EFC01AAD2213C2000F0D7FB09B023
:100CD00030BD0000140000203001002088010020F9
:100CE00024010020FC000020202D2D2042504D002A
:100CF0002533642042504D00202D2D202525202015
:100D000000000000253364202525200025322E31E7
:100D1000662043002D2F2D20000000002533642F76
:100D200025336420000000007047F8B505460C46E6
:100D300047F6FF7001F0F0F90020A4F1140291B21F
:100D4000A5F11E02009090B228233C2200F0B6FCD0
:100D500004F10A06B3B205F11406B2B204F10A06B0
:100D6000B1B2A5F11406B0B200F058FC661FB3B2E0
:100D7000A5F10F06B2B2661DB1B2A5F10F06B0B271
:100D800000F04CFCA4F10A0083B2601D81B22A4637
:100D9000284600F043FCA61EB3B205F10F06B2B21E
:100DA000661DB1B205F10F06B0B200F037FC4FF688
:100DB000FF7001F0B1F9621F91B2324690B201F0BA
:100DC0000DF9F8BDF8B504460D464FF6E07001F098
:100DD000A3F90020A5F1140291B2A4F10F02009032
:100DE00090B22D23232200F069FC0020A5F10F0210
:100DF00091B2A4F11402009090B22D23232200F0AE
:100E00005DFC6E1FB3B204F10A06B2B26E1FB1B23E
:100E1000A4F10F06B0B200F001FC6E1DB3B2661D66
:100E2000B2B26E1DB1B2A4F10F06B0B200F0F6FB83
:100E300005F10F06B3B204F10A06B2B205F10F06CE
:100E4000B1B2A4F10F06B0B200F0E8FBF8BD70B586
:100E500004460D464FF2DE7001F05EF900231222C7
:100E60002946204600F03EFB012305222946204664
:100E700000F038FBA5F1120083B2C01F81B22246F8
:100E8000204600F0CBFB05F1190083B2C01F81B2F0
:100E90002246204600F0C2FBA4F112018AB2C91F0B
:100EA00088B22B46294600F0B9FB04F119018AB239
:100EB000C91F88B22B46294600F0B0FBA5F10D06EC
:100EC000B3B2A4F10D06B2B2A5F11206B1B2A4F10B
:100ED0001206B0B200F0A2FB05F11206B3B204F1A3
:100EE0001206B2B205F10D06B1B204F10D06B0B2B0
:100EF00000F094FBA5F10D06B3B204F10D06B2B2F9
:100F0000A5F11206B1B204F11206B0B200F086FBF0
:100F100005F11206B3B2A4F11206B2B205F10D0644
:100F2000B1B2A4F10D06B0B200F078FB70BD38B5D7
:100F300004460D464FF4FC6001F0EEF80020A5F1E8
:100F4000190291B2A4F12302009090B232234622FA
:100F500000F0B4FBA4F10F018AB20A3988B22B4623
:100F6000294600F05BFB691F8BB2A4F10C018AB229
:100F7000C91E88B2294600F051FBA4F108039AB2B9
:100F80006B1F99B2A4F10C0398B22B4600F046FBFC
:100F9000691D8BB2611F8AB2C91E88B2294600F052
:100FA0003DFBA5F1140293B26A1D91B2621F90B28B
:100FB000224600F033FB05F10F0083B2601D82B2C0
:100FC000A5F1140081B2204600F028FB04F10A03C9
:100FD0009AB205F10F0399B2631D98B22B4600F047
:100FE0001DFB04F119018AB20F3988B22B4629463C
:100FF00000F014FB38BD000051B18200A2F1C042E4
:10100000126842F001038200A2F1C042136009E0BD
:101010008200A2F1C0421268034B1A408300A3F180
:10102000C0431A6070470000FEFF0F00D0E90112B4
:101030001143C26811430269114342691143826935
:101040001143C2691143026A1143426A1143826A21
:101050001143C26A1143026B114302689200A2F16C
:10106000C0421160816808290BD101688900A1F193
:10107000C041096841F0400201688900A1F1C04106
:101080000A60416B0968426B526841EA0211426B87
:10109000926841EA0221426B928941EA0241426B25
:1010A000128A41EA0251426B127D41EA0261426BAF
:1010B000926911430268521C9200A2F1C042116071
:1010C000C16AB1F5804F1BD1816B0968826B526890
:1010D00041EA0211826B926841EA0221826B128A14
:1010E00041EA0251826B127D41EA0261826B926990
:1010F000114302689200A2F1C042C2F8041107E055
:101100006FF0704201688900A1F1C041C1F804216B
:1011100070472DE9F04102460025002600200023FB
:101120000024002791F803C00CF00F0591F803C0CC
:101130000CF0100CBCF1000F03D091F802C04CEA87
:10114000050591F800C0BCF1000F31D014680020F3
:101150002BE04FF0010C0CFA00F3B1F800C00CEAE0
:1011600003069E4220D183004FF00F0C0CFA03F7C8
:10117000BC4305FA03FC4CEA040491F803C0BCF13B
:10118000280F06D14FF0010C0CFA00FCC2F814C075
:101190000AE091F803C0BCF1480F05D14FF0010CF3
:1011A0000CFA00FCC2F810C0401C0828D1D314600F
:1011B000B1F800C0BCF1FF0F34DD546800202EE010
:1011C00000F1080C4FF0010808FA0CF3B1F800C068
:1011D0000CEA03069E4221D183004FF00F0C0CFA5B
:1011E00003F7BC4305FA03FC4CEA040491F803C07E
:1011F000BCF1280F05D100F1080C08FA0CF8C2F870
:10120000148091F803C0BCF1480F07D100F1080C1D
:101210004FF0010808FA0CF8C2F81080401C0828AA
:10122000CED35460BDE8F0810246002093680B40A5
:101230000BB1012000E0002070474161704701615F
:10124000704700002DE9F04180460C4610480078B8
:1012500020B901F03FFB01200D4908702512E6B2CC
:10126000A5F1A101C1EB011202EB411106EB410115
:10127000A1390802C11700EB5171CF100548391888
:101280002022404601F0FEFA0020BDE8F081000077
:10129000140100200030180000BFFEE710B504461E
:1012A0002CB14FF480510548FFF7C7FF04E04FF41D
:1012B00080510248FFF7C3FF10BD00000014014039
:1012C0002DE9F04106460F4614461D462B462246A0
:1012D0003946304600F0CEFB04FB05F00249098890
:1012E00000F067FABDE8F0812A00002001B502E0B5
:1012F0000098401E009000980028F9D108BD000019
:101300002DE9F04389B080468946174610231A46D6
:101310004946404600F0AEFB2C2000F07BFE3946EB
:1013200001A8FFF78FFF002422E001A810F8146045
:101330004FF6FF7000EA0626012000EB440001A9E9
:10134000085C064300250FE04FF400402841304080
:1013500020B10A48008800F061FE03E008480088D8
:1013600000F05CFE681CC5B2102DEDDB601CC4B241
:10137000102CDADB09B0BDE8F08300002800002063
:101380002A0000202DE9F05F804689461646A6F126
:1013900020001FFA80FA1E49096889881C4A1268D1
:1013A000D28801FB02F0C11700EB5171C1F3C707EE
:1013B0001748006800680AFB070B15480068C388D7
:1013C0001348006882884946404600F053FB2C20B1
:1013D00000F020FE002416E0002510E01BF80400B9
:1013E00080212941084020B10A48008800F016FEFB
:1013F00003E00948008800F011FE681CC5B2082D02
:10140000ECDB601CC4B2BC42E6DBBDE8F09F000030
:1014100024000020280000202A0000202DE9F041AF
:1014200005460F4614461FE028461030114909882A
:10143000884203DD002507F1100087B238461030DE
:101440000D490988884201DD0025002726883002E1
:1014500000EB262086B2324639462846FFF750FF79
:1014600005F1100085B2A41C20780028DCD1BDE86D
:10147000F08100001C0000201E00002070B5054611
:101480000E46144624E02846134909688988084412
:1014900012490988884205DD00250F480068C08888
:1014A000304486B230460C490968C98808440C4962
:1014B0000988884201DD0025002622783146284629
:1014C000FFF760FF641C044800688088284485B2E8
:1014D00020780028D7D170BD240000201C000020F7
:1014E0001E0000202DE9F05F05460E4691469B4602
:1014F00000240FFA89F70320A0EB49000FFA80FAC5
:1015000087E0BBF1000F40D0A0463BE006EB0802AD
:1015100091B22A1990B200F061FD06EB080291B277
:101520002A1B90B200F05AFD321991B2A5EB0802C5
:1015300090B200F053FD321B91B2A5EB080290B2BD
:1015400000F04CFDA6EB080291B22A1B90B200F00D
:1015500045FDA6EB080291B22A1990B200F03EFDBB
:10156000321B91B205EB080290B200F037FD321940
:1015700091B205EB080290B200F030FD08F10100D5
:101580000FFA80F8B845C1DD2FE0F21991B22A199F
:1015900090B200F023FDF21991B22A1B90B200F034
:1015A0001DFD321991B2EA1B90B200F017FD321BFB
:1015B00091B2EA1B90B200F011FDF21B91B22A1B0E
:1015C00090B200F00BFDF21B91B22A1990B200F01C
:1015D00005FD321B91B2EA1990B200F0FFFC3219FE
:1015E00091B2EA1990B200F0F9FC601C04B2BAF1B1
:1015F000000F05DAA000801D50440FFA80FA07E0C2
:10160000E01B80000A3050440FFA80FA781E07B2BF
:1016100000BFBC427FF775AFBDE8F09F2DE9FF4FDB
:1016200083B081464FF0000AD3460598A0EB090528
:1016300004990698461ACDF8049004980090002D5D
:1016400001DD012705E00DB9002702E04FF0FF376B
:101650006D42002E02DD4FF0010806E016B94FF092
:10166000000802E04FF0FF387642B54201DD2C461B
:1016700000E034460020029019E0DDE9001000F09F
:10168000ADFCAA44B344A24505DDAAEB040A0198C7
:10169000384480B20190A34505DDABEB040B009804
:1016A000404480B200900298401C80B20290611CBD
:1016B00002988842E1DD07B0BDE8F08F2DE9F041E6
:1016C00004460D4616461F46DDF81880B8F1000F97
:1016D0000CD03B4632462946204600F0CBF906FBAB
:1016E00007F01749098800F064F827E0A019401EA8
:1016F00082B22B4629462046FFF790FFE819401E8C
:1017000083B2A019401E82B2E819401E81B2204661
:10171000FFF784FFE819401E83B22246294620467F
:10172000FFF77CFFE919491E8BB2A119491E8AB245
:10173000A119491E88B22946FFF770FFBDE8F08164
:101740002800002000B597B03C2108A8FEF715FD41
:101750001C2101A8FEF711FD0121080200F002FF83
:101760000120019004200390800607900020029041
:101770000490059006900890099008200A90102087
:101780000B9000200C900E900F9010904FF4805012
:101790001190002012901390149001A815901690AB
:1017A00008A8FFF743FC01210020FFF725FC17B034
:1017B00000BD70B504460D4600262C2000F02AFC22
:1017C00000BF03E0284600F029FC761CA642F9D3AE
:1017D00070BD000008B50121602000F0E3FE032089
:1017E0008DF8020018208DF803004FF48040ADF80A
:1017F000000069465B48FFF78CFC4FF40040ADF8F1
:10180000000069465748FFF784FC0120ADF800004E
:1018100069465448FFF77DFC0220ADF80000694698
:101820005048FFF776FC8020ADF8000069464E482E
:10183000FFF76FFC4FF48070ADF8000069464A482E
:10184000FFF767FC4FF40070ADF8000069464648AA
:10185000FFF75FFC4FF48060ADF800006946424836
:10186000FFF757FC4FF40060ADF8000069463E48B2
:10187000FFF74FFC4FF48050ADF8000069463A483E
:10188000FFF747FC4FF40050ADF8000069463648BA
:10189000FFF73FFC4FF48040ADF800006946324846
:1018A000FFF737FC4FF40040ADF8000069462E48C2
:1018B000FFF72FFC4FF48070ADF80000694629480F
:1018C000FFF727FC4FF40070ADF80000694625488B
:1018D000FFF71FFC4FF48060ADF800006946214817
:1018E000FFF717FC03208DF8020018208DF8030085
:1018F0001020ADF8000069461A48FFF70AFC2020C6
:10190000ADF8000069461748FFF703FC8020ADF8EA
:10191000000069461348FFF7FCFB4FF40060ADF888
:10192000000069460F48FFF7F4FB10208DF8030014
:1019300003208DF802000220ADF8000069460A4835
:10194000FFF7E7FB10208DF8030003208DF802005D
:101950004FF48050ADF8000069460248FFF7D9FB0C
:1019600008BD0000001401400018014010B50446F5
:10197000072C00DD10BD31480470204604EBD07107
:101980004910A4EB410139B9F0202D4908804FF4EA
:10199000A0702C49088006E04FF4A0702849088008
:1019A000F02028490880362000F034FB26480088C3
:1019B00049F24131884205D1082141EA441000F042
:1019C0002DFB0AE02048008848F25251884204D199
:1019D000002141EA441000F021FB2A2000F01AFB0C
:1019E000002000F01BFB002000F018FB14490988C0
:1019F000491EC1F3072000F011FB11490978491E67
:101A0000C8B200F00BFB2B2000F004FB002000F01C
:101A100005FB002000F002FB0A490988491EC1F3BA
:101A2000072000F0FBFA07490978491EC8B200F008
:101A3000F5FA2C2000F0EEFA00BF9BE72000002012
:101A40001C0000201E0000202200002010B5FFF71F
:101A5000C1FEFFF777FE0120FFF720FC00F0A0FA9F
:101A600000F038F802480078FFF780FF10BD000052
:101A7000200000202DE9F04104460D4616461F4681
:101A80002A2000F0C7FA201200F0C8FAE0B200F0F5
:101A9000C5FAA119491EC1F30F2000F0BFFAA11920
:101AA000491EC8B200F0BAFA2B2000F0B3FA28128F
:101AB00000F0B4FAE8B200F0B1FAE919491EC1F336
:101AC0000F2000F0ABFAE919491EC8B200F0A6FADF
:101AD000BDE8F08110B500F025FAFE4908800846FF
:101AE000008849F2413188427ED1CF2000F092FA3D
:101AF000002000F093FA812000F090FA302000F0EE
:101B00008DFAED2000F086FA642000F087FA0320B9
:101B100000F084FA122000F081FA812000F07EFAB1
:101B2000E82000F077FA852000F078FA102000F025
:101B300075FA782000F072FACB2000F06BFA3920A9
:101B400000F06CFA2C2000F069FA002000F066FA30
:101B5000342000F063FA022000F060FAF72000F071
:101B600059FA202000F05AFAEA2000F053FA002037
:101B700000F054FA002000F051FAB12000F04AFAC7
:101B8000002000F04BFA1B2000F048FAB62000F0CD
:101B900041FA0A2000F042FAA22000F03FFAC020E9
:101BA00000F038FA352000F039FAC12000F032FA9E
:101BB000112000F033FAC52000F02CFA452000F087
:101BC0002DFA452000F02AFAC72000F023FAA220BF
:101BD00000F024FAF22000F01DFA002000F01EFAB6
:101BE000262000F017FA00E096E0012000F016FA37
:101BF000E02000F00FFA0F2000F010FA262000F08D
:101C00000DFA242000F00AFA0B2000F007FA0E204B
:101C100000F004FA092000F001FA542000F0FEF967
:101C2000A82000F0FBF9462000F0F8F90C2000F0A5
:101C3000F5F9172000F0F2F9092000F0EFF90F2074
:101C400000F0ECF9072000F0E9F9002000F0E6F9D7
:101C5000E12000F0DFF9002000F0E0F9192000F0A9
:101C6000DDF91B2000F0DAF9042000F0D7F910208C
:101C700000F0D4F9072000F0D1F92A2000F0CEF9C5
:101C8000472000F0CBF9392000F0C8F9032000F01C
:101C9000C5F9062000F0C2F9062000F0BFF9302097
:101CA00000F0BCF9382000F0B9F90F2000F0B6F9C7
:101CB000362000F0AFF9C82000F0B0F92A2000F07B
:101CC000A9F9002000F0AAF9002000F0A7F90020EF
:101CD00000F0A4F9EF2000F0A1F92B2000F09AF910
:101CE000002000F09BF9002000F098F9012000F09E
:101CF00095F93F2000F092F93A2000F08BF9552039
:101D000000F08CF9112000F085F97348FFF7EEFA26
:101D1000292000F07FF901E16E48008848F2525115
:101D20008842F8D1CF2000F075F9002000F076F954
:101D3000C12000F073F9302000F070F9ED2000F0C0
:101D400069F9642000F06AF9032000F067F91220B5
:101D500000F064F9812000F061F9E82000F05AF900
:101D6000852000F05BF9102000F058F9782000F091
:101D700055F9CB2000F04EF9392000F04FF92C2016
:101D800000F04CF9002000F049F9342000F046F949
:101D9000022000F043F9F72000F03CF9202000F089
:101DA0003DF9EA2000F036F9002000F037F9002074
:101DB00000F034F9C02000F02DF9212000F02EF9B8
:101DC000C12000F027F9112000F028F9C52000F00B
:101DD00021F92D2000F022F9332000F01FF93620E0
:101DE00000F018F9002000F019F93A2000F012F97B
:101DF000552000F013F9B12000F00CF9002000F09C
:101E00000DF9172000F00AF9B62000F003F90A20B6
:101E100000F004F9A22000F001F9F62000F0FAF831
:101E2000012000F0FBF8302000F0F8F8F22000F07C
:101E3000F1F8002000F0F2F8262000F0EBF8012085
:101E400000F0ECF8E02000F0E5F8D02000F0E6F833
:101E5000002000F0E3F8022000F0E0F8072000F096
:101E6000DDF80B2000F0DAF81A2000F0D7F8312066
:101E700000F0D4F8542000F0D1F8402000F0CEF863
:101E8000292000F0CBF8122000F0C8F8122000F052
:101E9000C5F8122000F0C2F8172000F0BFF8E120CA
:101EA00000F0B8F8D02000F0B9F8002000F0B6F843
:101EB000022000F0B3F8072000F0B0F8052000F091
:101EC000ADF8252000F0AAF82D2000F0A7F8442056
:101ED00004E0000022000020FCBF020000F09EF899
:101EE000452000F09BF81C2000F098F8182000F026
:101EF00095F8162000F092F81C2000F08FF81D20B5
:101F000000F08CF8112000F085F80548FFF7EEF995
:101F1000292000F07FF82C2000F07CF810BD000094
:101F2000FCBF020010B50024042000F073F800BFCD
:101F30001748008800BF1648008800F02BF80446B8
:101F40004FF6FF7000EA042400F024F8044348F23E
:101F50005250844201D1204610BDD32000F05AF8DF
:101F600000BF0B48008800BF0948008800F012F845
:101F700004464FF6FF7000EA042400F00BF8044317
:101F800049F24130844201D12046E5E70020E3E7F1
:101F900000000260014800887047000000000260F5
:101FA00010B502210748FFF748F940F6FF20FFF778
:101FB0009DF902210348FFF742F940F6FF20FFF7A1
:101FC00095F910BD0018014070B504460D46012377
:101FD0001A4629462046FFF74DFD70BD70B50546EF
:101FE0000C460948008885420CDA0848008884427B
:101FF00008DA21462846FFF7E7FF05480188012057
:10200000FFF7D7FB70BD00001C0000201E00002061
:10201000280000204FF0C041088070470149088027
:10202000704700000000026010B5044621460548D4
:1020300001F06FF800BF8021024800F09DFF0028EA
:10204000F9D010BD0044004000B587B00121042044
:1020500000F0A8FA0121480400F094FA0420ADF839
:10206000180018208DF81B0003208DF81A0006A90F
:102070001C48FFF74EF80820ADF8180004208DF832
:102080001B0006A91748FFF744F826208DF8040026
:1020900001208DF805008DF806008DF8070001A8D5
:1020A00000F026FA4FF4164002900020ADF80C0024
:1020B000ADF80E00ADF81000ADF814000C20ADF82E
:1020C000120002A9084800F0B3FF012240F2255196
:1020D000054800F088FF0121034800F000FF07B029
:1020E00000BD000000080140004400400149088094
:1020F000704700002A000020024A1080024A118026
:1021000070470000280000202A00002001490860D4
:10211000704700002400002001490880704700003B
:102120002800002008B50121082000F03BFAC0205B
:10213000ADF8000010208DF8030003208DF8020098
:1021400069460648FEF7E5FF40210448FFF777F8A7
:1021500080210248FFF773F808BD0000000C014021
:1021600070B5054600F0CEF8B42000F09DF800F000
:1021700005F9284600F098F800F000F900F0C2F8E0
:10218000B52000F091F800F0F9F8012000F030F8E7
:102190000446012000F02CF844EA0024002000F05E
:1021A00027F8064600F0CCF8204670BD10B5072091
:1021B00000F004F80446FEF7BBF910BD70B5044604
:1021C0002046FFF7CDFF0646FEF794F9054606497F
:1021D0002846FEF735F8054604492846FEF72AF852
:1021E0000546284670BD00000AD7A33C33938843B8
:1021F00070B505460024002000F040F8002618E0E5
:1022000040211D48FFF719F8022002F02BFA402167
:102210001948FFF714F86006040E80211648FFF7EE
:1022200003F808B1601CC4B2022002F01BFA701C53
:10223000C6B2082EE4DB40210F48FEF7FEFF012066
:1022400000F01CF825B180210B48FEF7F6FF03E0F3
:1022500080210948FEF7F3FF022002F003FA402133
:102260000548FEF7ECFF022002F0FCF9402102488D
:10227000FEF7E3FF204670BD000C014038B5044670
:102280008020ADF8000003208DF802000CB1102072
:1022900000E048208DF8030069460248FEF739FF48
:1022A00038BD0000000C014070B504460120FFF766
:1022B000E5FF00251DE040211148FEF7BEFF04F0B8
:1022C000800020B180210E48FEF7B9FF03E0802195
:1022D0000B48FEF7B2FF6006040E022002F0C2F9BE
:1022E00040210748FEF7ABFF022002F0BBF9681C53
:1022F000C5B2082DDFDB40210148FEF79EFF70BD0F
:10230000000C014010B50120FFF7B8FF80210B48F9
:10231000FEF795FF40210948FEF791FF052002F0E6
:10232000A1F980210548FEF788FF052002F09AF9FF
:1023300040210248FEF781FF10BD0000000C014063
:1023400010B50120FFF79AFF40210B48FEF775FFFB
:1023500080210948FEF771FF052002F083F9402132
:102360000548FEF76CFF80210348FEF768FF052053
:1023700002F078F910BD0000000C014010B50024F7
:102380000020FFF77BFF40210E48FEF758FF022098
:1023900002F068F909E0601C80B20446B0F5FA7FEB
:1023A00003DDFFF7CDFF012010BD80210548FEF7BA
:1023B0003BFF0028EFD140210248FEF73EFF0020FE
:1023C000F2E70000000C014010B50020FFF78EFE80
:1023D000314803883148028800210846FEF770FF23
:1023E0002F48FFF793FE00214FF6FF70FFF784FEA2
:1023F0002CA20A213820FFF741F84FF2DE70FFF7D8
:102400008BFE2823DA0019460020FFF707F9F02396
:10241000A02228211046FFF701F98C234FF4A07267
:1024200019460020FFF7FAF855215020FEF77DFCF1
:102430005521F020FEF77BFDB9215020FEF7C2FCAC
:10244000B921F020FEF703FD1A48FFF75FFE47F6BB
:10245000FF70FFF761FE18A273213020FEF7DEFF48
:102460004FF4FC60FFF758FE16A27321D020FEF750
:10247000D5FF4FF6E070FFF74FFE15A2D7213020B1
:10248000FEF7CCFF4FF6FF70FFF746FE13A2D721F1
:10249000D020FEF7C3FF10BD1E0000201C0000204E
:1024A000040100204865616C74682D53797374656C
:1024B0006D000000FC000020D7DBBACFD2C7B1ED21
:1024C00000000000CAB5CAB1B2A8D0CE000000001A
:1024D000C0FACAB7BBD8B9CB00000000CFB5CDB3A6
:1024E000C9E8D6C30000000000BFFEE77047000047
:1024F00070B5002100230F22C47804B3154C246862
:1025000004F4E064C4F5E064210AC1F10403CA40A4
:10251000447804FA03F184781440214309010E4CF5
:102520000678A155047804F01F050124AC40057815
:102530006D11AD0005F1E025C5F8004109E0047812
:1025400004F01F050124AC40044D0678761145F8CF
:10255000264070BD0CED00E000E400E080E100E00A
:102560007047000029B1064A52690243044B5A6180
:1025700004E0034A52698243014B5A6170470000EC
:102580000010024029B1064AD2690243044BDA61C5
:1025900004E0034AD2698243014BDA6170470000CC
:1025A0000010024029B1064A92690243044B9A6125
:1025B00004E0034A92698243014B9A61704700002C
:1025C0000010024030B500210022002400232D4DD0
:1025D0006D6805F00C0121B1042905D0082923D12B
:1025E00005E0294D056022E0274D05601FE0254DDF
:1025F0006D6805F47012234D6D6805F48034022572
:1026000005EB92421CB9214D554305600BE01D4D71
:102610006D6805F400351DB11C4D5543056002E0A1
:10262000194D5543056002E0174D056000BF00BF1E
:10263000144D6D6805F0F0010909154D6B5C0568D6
:10264000DD4045600F4D6D6805F4E061090A104DED
:102650006B5C4568DD4085600A4D6D6805F460512E
:10266000C90A0B4D6B5C4568DD40C560054D6D6862
:1026700005F44041890B074D6B5CC568B5FBF3F56C
:10268000056130BD0010024000127A0000093D00D3
:1026900000000020100000202DE9FF4F87B0814688
:1026A0008A4693466E495846FDF7CAFD05466D4970
:1026B000FDF7F8FD06900698FDF73AFF074601F092
:1026C00047FF0546FDF747FF05900698FDF730FFE9
:1026D000074602F025F80546FDF73DFF04900A98ED
:1026E000FFF71AFD0024B4E05F4901EB840191F982
:1026F0000100FDF7F6FE00900499FDF7A1FD5A498F
:1027000001EB8401029091F90000FDF7EAFE0090D0
:102710000599FDF795FD01900299FDF78BFD03905A
:10272000FDF7EDFE00EB09054F4901EB840191F93E
:102730000100FDF7D6FE00900599FDF781FD4A499D
:1027400001EB8401029091F90000FDF7CAFE0090B0
:102750000499FDF775FD01900299FDF719FD0390AD
:10276000FDF7CDFE00EB0A063F4901EB840191F92C
:102770000300FDF7B6FE00900499FDF761FD3A49AC
:1027800001EB8401029091F90200FDF7AAFE00908E
:102790000599FDF755FD01900299FDF74BFD03905A
:1027A000FDF7ADFE00EB09072F4901EB840191F91C
:1027B0000300FDF796FE00900599FDF741FD2A49BB
:1027C00001EB8401029091F90200FDF78AFE00906E
:1027D0000499FDF735FD01900299FDF7D9FC0390AE
:1027E000FDF78DFE00EB0A081FFA88F3BAB2B1B20A
:1027F000A8B2FEF713FF149850B31FFA88F307F13D
:10280000010C1FFA8CF2B1B205F1010C1FFA8CF029
:10281000FEF704FF08F1010C1FFA8CF3BAB206F1BF
:10282000010C1FFA8CF1A8B2FEF7F8FE08F1010CBA
:102830001FFA8CF307F1010C1FFA8CF206F1010C60
:102840001FFA8CF105F1010C1FFA8CF0FEF7E6FE81
:10285000641C0F2CFFF648AF0BB0BDE8F08F0000F2
:10286000DA0F4940000034432083000821B1028878
:1028700042F04002028004E002884FF6BF731A4023
:102880000280704770B505460C4616460121104877
:10289000FEF7D3FC032000F07DF8C4F3074000F0FE
:1028A00079F8C4F3072000F075F8E0B200F072F890
:1028B00004E0FF2000F06EF828706D1C301EA6F1B9
:1028C00001018EB2F5D101210148FEF7B8FC70BDBF
:1028D0000010014000B587B001210803FFF762FE38
:1028E0000121D420FFF75EFE0120ADF80400032093
:1028F0008DF8060010208DF8070001A92248FEF788
:1029000008FC2020ADF8040018208DF8070001A96C
:102910001E48FEF7FEFB4020ADF8040001A91B484D
:10292000FEF7F7FB8020ADF8040001A91748FEF779
:10293000F0FB01211448FEF782FC0020ADF80800EE
:102940004FF48270ADF80A000020ADF80C000220B0
:10295000ADF80E000120ADF810004002ADF81200F5
:102960000820ADF814000020ADF816000720ADF8DF
:10297000180002A9064800F057F801210448FFF7A3
:1029800075FF07B000BD00000010014000080140C5
:102990000030014010B504464FF4805019490860DA
:1029A0000AE018490868411E164A116020B9002043
:1029B00000F058F8C0B210BD0221134800F026F80C
:1029C0000028EED02146104800F02CF84FF480503B
:1029D0000C4908600AE00B490868411E094A116069
:1029E00020B9012000F03EF8C0B2E4E7012106481A
:1029F00000F00CF80028EED0034800F010F8C0B248
:102A0000D9E70000180000200030014002460020F5
:102A100013890B400BB1012000E0002070470146F4
:102A2000888970478181704710B50022028802F4BE
:102A300041520B884C8823438C882343CC88234302
:102A40000C8923434C8923438C892343CC8923431A
:102A50001A430280838B4FF2FF74234083830B8AD7
:102A6000038210BD10B50446214602A000F0B8FD57
:102A7000002010BD3C3C2D464C4153482D45525240
:102A80004F522D3E3E2053504920B5C8B4FDB3AC43
:102A9000CAB1216572726F72436F6465203D202553
:102AA000640A0000704710B500F002F810BD000085
:102AB0000CB50020019000903348006840F480304D
:102AC0003149086000BF3048006800F400300090D1
:102AD0000198401C0190009818B90198B0F5A06FBA
:102AE000F1D12948006800F4003010B101200090B5
:102AF00001E0002000900098012843D1234800689D
:102B000040F01000214908600846006820F00300EA
:102B100008600846006840F0020008601A484068F3
:102B2000194948600846406848600846406840F4D3
:102B3000806048600846406820F47C104860084681
:102B4000406840F4E81048600846006840F0807033
:102B5000086000BF0C48006800F000700028F9D041
:102B60000948406820F0030007494860084640686B
:102B700040F00200486000BF0348406800F00C00CD
:102B80000828F9D10CBD00000010024000200240CE
:102B9000F8B50025A0265A270020FFF7A7FA3D48E0
:102BA00003883D48028800210846FEF789FB002182
:102BB0004FF6FF70FFF7A0FA3848FFF7A7FA38A2E0
:102BC000A0216420FEF75AFC00243AE000200346CE
:102BD0002A46394600903046FFF75EFD33492846C5
:102BE000FDF7D6FA054632492846FDF7D1FC04D850
:102BF0002F492846FDF71EFB054600204FF6FF73C0
:102C00002A46394600903046FFF746FD142094FBD3
:102C1000F0F100FB114020B926A2A0216420FEF7AC
:102C20002DFC142094FBF0F100FB11400A2804D184
:102C300023A2A0216420FEF721FC1E2001F0F4FC59
:102C4000641C642CC2DB002003462A4639460090EF
:102C50003046FFF721FD01201F2300223946009056
:102C60003046FFF719FD47F6FF70FFF755FA17A238
:102C7000A0215520FEF702FC40F2DC5001F0D4FC0C
:102C8000044803880448028800210846FEF718FB20
:102C9000F8BD00001E0000201C00002004010020E0
:102CA0004C4F4144494E472E2E0000000000204169
:102CB0000000B4434C4F4144494E472E2E200000A3
:102CC0004C4F4144494E472E2E2E00005359535429
:102CD000454D20524541445900000000042808D1C8
:102CE0004FF0E021096941F004014FF0E022116149
:102CF00007E04FF0E021096921F004014FF0E022E4
:102D0000116170477047000010B51348006840F02B
:102D100001001149086008464068104908400E4902
:102D20004860084600680E4908400B49086008469C
:102D3000006820F4802008600846406820F4FE0007
:102D400048604FF41F008860FFF7ADFE4FF0006051
:102D50000449086010BD0000001002400000FFF8A8
:102D6000FFFFF6FE08ED00E01CB53649684600F0AE
:102D700057FA002864D03448007828BBBDF9000019
:102D8000A0280FDABDF9020028280BDDBDF90200EA
:102D90008C2807DA01202C490870FDF779FE8A207B
:102DA000FFF742F9BDF90000A02849DBBDF9020098
:102DB000282845DDBDF902008C2841DA022022498D
:102DC000087000F0ADF93BE01F480078012810D1F1
:102DD000BDF90200282833DABDF90000C8282FDD2C
:102DE0008820FFF721F9002017490870FFF7ECFA57
:102DF00026E015480078022822D1BDF902002828D3
:102E000008DABDF90000C82804DD00200E4908706A
:102E1000FFF7DAFABDF90200282806DDBDF9000047
:102E2000A02802DA032008490870BDF9020028280A
:102E300006DDBDF90000A02802DB0420024908706D
:102E40001CBD00002C0000201A01002010B540F22B
:102E50002551164800F09DF838B3144800F054F995
:102E6000C4B21348007848B9FF2C19D11148047036
:102E70000120114908700E49087011E00E480178D0
:102E80000078401C0C4A10700A48445410460078E0
:102E9000582805DB01200949087000200449087002
:102EA00040F22551014800F00BF810BD00440040ED
:102EB0001500002030010020160000201400002022
:102EC00010B50022002340F66A14A14200D100BFD1
:102ED0000A1201249440A3B2DC43048010BD21B146
:102EE000828942F40052828104E082894DF6FF73A8
:102EF0001A4082817047000000B585B0012104208E
:102F0000FFF750FB01218803FFF74CFB4FF40070E3
:102F1000ADF8100018208DF8130003208DF8120072
:102F200004A91348FEF7F5F84FF48060ADF81000DF
:102F300004208DF8130004A90D48FEF7EAF84FF4B9
:102F4000E13000900020ADF80400ADF80600ADF8C7
:102F50000800ADF80C000C20ADF80A0069460548E1
:102F600000F066F801210348FFF7B9FF05B000BD86
:102F7000000801400038014002460020B1F5007F02
:102F800000D100BF13880B400BB1012000E00020EE
:102F9000704770B50246002400230025002040F64B
:102FA0006A16B14200D100BFC1F3421501F01F0300
:102FB000012606FA03F3012D02D19689334006E07B
:102FC000022D02D1168A334001E0968A33400C125A
:102FD000012606FA04F41688344013B10CB101201E
:102FE00000E0002070BDF0B5034600240026002557
:102FF000002040F66A17B94200D100BF1846C1F35D
:10300000421401F01F06012707FA06F5012C01D131
:103010000C3004E0022C01D1103000E014301AB161
:1030200007682F43076002E00768AF430760F0BD01
:103030002DE9F04786B005460E460024A24600BFA3
:10304000A1460027B08900B100BF2F462C8A4CF65C
:10305000FF700440F08804432C82AC894EF6F310D4
:103060000440B08831890843718908430443AC8126
:10307000AC8A4FF6FF400440B0890443AC8201A8FB
:10308000FFF7A0FA1F48874202D1DDF810A001E047
:10309000DDF80CA0A88900F4004040B10AEBCA009A
:1030A00000EB0A1031684900B0FBF1F807E00AEBC9
:1030B000CA0000EB0A1031688900B0FBF1F8642007
:1030C000B8FBF0F004012009642101FB1089A889F4
:1030D00000F4004040B1322000EBC900B0FBF1F039
:1030E00000F00700044308E0322000EB09106421DF
:1030F000B0FBF1F000F00F0004432C8106B0BDE8F6
:10310000F08700000038014001468888C0F30800BD
:103110007047C1F308028280704700BFFEE70000DD
:1031200010B50020FEF7E2FF2748038827480288F1
:1031300000210846FEF7C4F82548FEF7E7FF002106
:103140004FF6FF70FEF7D8FF22A20A210846FEF7CD
:1031500065F900214FF47840FEF7CEFF20A20A2146
:10316000F020FEF75BF94FF2DE70FEF7D5FF282363
:10317000DA0019460020FEF751FAF023A022282198
:103180001046FEF74BFA4FF4FC60FEF7C5FF6421D2
:103190005020FDF7CCFE0E48FEF7B8FF12A2A0218A
:1031A0003020FEF73BF947F6FF70FEF7B5FF6421CC
:1031B000F020FDF7BCFE0648FEF7A8FF0DA2A021F7
:1031C000D020FEF72BF910BD1E0000201C000020AF
:1031D00004010020CAB5CAB1B2A8D0CE00000000D8
:1031E000B7B5BBD800000000D0C4B5E7B2E2C1BF9C
:1031F00000000000D1AAD1F5B2E2C1BF000000007A
:1032000001B5002007E00C2100BF0A1EA1F1010357
:10321000D9B2FAD1401C00998842F4D308BD00000D
:103220002DE9FC5F05460C460126684600F0BEF815
:10323000002865D0BDF90200FDF753F983463248F6
:10324000007800EB400004EBC00041685846FCF7F2
:10325000F7FF8146BDF90000FDF743F983462A4890
:10326000007800EB400054F830105846FCF7E8FFB7
:1032700082464946FCF78CFF80462348007800EBE5
:10328000400004EBC00081684046FCF781FF074620
:10329000FDF735F900B22880BDF90200FDF721F9EC
:1032A00083461948007800EB400004EBC000016938
:1032B0005846FCF7C5FF8146BDF90000FDF711F93E
:1032C00083461148007800EB400004EBC000C16861
:1032D0005846FCF7B5FF82464946FCF759FF804641
:1032E0000948007800EB400004EBC000416940460B
:1032F000FCF74EFF0746FDF702F900B2688000E0D8
:1033000000263046BDE8FC9F2000002008B50121C2
:103310006020FFF747F90120ADF800008DF80200AA
:1033200010208DF8030069461A48FDF7F2FE0420CC
:10333000ADF8000069461748FDF7EBFE0820ADF830
:10334000000001208DF8020048208DF80300694636
:103350001048FDF7DEFE4FF40050ADF800000120EC
:103360008DF8020010208DF8030069460A48FDF729
:10337000D0FE4FF400510848FDF75FFF1020ADF874
:10338000000048208DF8030069460248FDF7C1FEA1
:1033900008BD0000001801400014014010B50446AB
:1033A000204600F0EBF800F0C1F810BD2DE9F04721
:1033B0008CB00646002528216846FCF7DEFE00BFDB
:1033C0000AA90BA800F09EF8BDF92C002DF81500F5
:1033D000BDF9281005A820F81510681CC5B21021E9
:1033E0004648FDF721FF08B90A2DE9DB10214348C3
:1033F000FDF71AFF10B10020414908700A2D7BD15A
:10340000BDF90070B846BDF91490CA4601240EE01B
:103410003DF91400B84202DA3DF9147005E03DF9B7
:103420001400404501DD3DF91480601CC4B20A2C33
:10343000EEDB012412E005A830F91400484503DA58
:1034400005A830F9149007E005A830F9140050459C
:1034500002DD05A830F914A0601CC4B20A2CEADB16
:10346000BDF90000BDF902100844BDF9041008447C
:10347000BDF906100844BDF908100844BDF90A104A
:103480000844BDF90C100844BDF90E100844BDF9FC
:1034900010100844BDF912100844C01BA0EB08002E
:1034A000C01000B23080BDF91410BDF916000144FF
:1034B000BDF918000144BDF91A000144BDF91C0012
:1034C0000144BDF91E000144BDF920000144BDF9CD
:1034D00022000144BDF924000144BDF9260008443E
:1034E000A0EB0900A0EB0A00C01000B27080012020
:1034F0000CB0BDE8F087FFE70020F9E700180140B5
:10350000EC0000202DE9F04104460D469020FFF725
:1035100045FF06B20120FFF773FED020FFF73EFF04
:1035200007B226802F80BDE8F081000070B500252D
:1035300004211148FDF781FE01210F48FDF77FFEB0
:10354000002414E001210C48FDF777FE08210A4809
:10355000FDF76AFE0646C4F10B0006FA00F02843A8
:1035600085B201210448FDF76AFE601CC4B20C2C30
:10357000E8DB284670BD00000018014070B5054624
:1035800004211648FDF759FE01211448FDF755FEA8
:1035900000241FE0C4F1070045FA00F000F001002C
:1035A00020B104210D48FDF74AFE03E004210B4839
:1035B000FDF743FE0520FFF723FE01210748FDF735
:1035C0003EFE0520FFF71CFE01210448FDF735FEF5
:1035D000601CC4B2082CDDDB70BD00000018014087
:1035E0000FB4054B10B503A9044A029800F028FC5B
:1035F00010BC5DF814FB0000A14600082801002063
:103600000FB4084B10B504A902AA039800F018FCE7
:10361000044602A9002000F096FF204610BC5DF889
:1036200014FB000047450008490050EAC12018BFBC
:1036300004204A0D18BF40F0010040F2FF72B2EBC7
:10364000515F08BF40F00200012808BF0520704705
:103650002DE9F74F144694B00021C4E902111599E1
:10366000079121F00045C9498D4206DC1599C4E94E
:10367000000117B00020BDE8F08FC549DFF814A3A2
:10368000A9423CDD0799C44E0029C44FC44A15998C
:10369000534619DDFDF702F9554506D0C14AC24B24
:1036A000FDF7FCF8C4E900010AE04FF0D352BE4B2D
:1036B000FDF7F4F832463B46FDF7F0F8C4E90001A7
:1036C00017B00120BDE8F08FFDF747F8554506D04B
:1036D000B44AB54BFDF741F8C4E900010AE04FF0E8
:1036E000D352B14BFDF739F832463B46FDF735F87A
:1036F000C4E9000117B04FF0FF30BDE8F08FAB49CF
:10370000A942159978DB21F0004183468846A84AF2
:10371000A84BFCF705FE0022A74BFDF71EF8FDF7AE
:103720006BF90990FDF74AF906460F469C4A534645
:10373000FCF7F6FD43465A46FDF7B3F880468A4645
:10374000984A994B30463946FCF7EAFD2A0D012587
:103750000B9242465346FDF7A4F8032DC4E900013D
:1037600039D00B98C1F30A51401A05EB45111139B4
:10377000814230DA9148C346784400EB0510CDF819
:103780000CA00C90D0E9002330463946FCF7C8FD68
:1037900002460B460491069058460399FDF77EF8C1
:1037A00080468A4602460B4658460399FDF776F84E
:1037B000049B069AFDF772F883460C9803913946EC
:1037C000D0E902233046FCF7ABFD5A46039BFDF7D8
:1037D00065F86D1CBDE707980028A2BF099817B0CF
:1037E000BDE8F08F616881F000416160099817B011
:1037F0004042BDE8F08FFFE784461598C1F31301FE
:10380000C0F30A50A0F2F5304FEA601800F01F062E
:10381000C6F12000139000200690079041F4801E0E
:1038200005206D4676B1664A08EB00017A4452F8ED
:10383000213002EB8101B3404A68139922FA01F169
:10384000194305E05F4908EB0002794451F8221062
:10385000A1FB0E27A1FB0C131A449A4234BF01238B
:10386000002303EB070A05EB8003D3E901B70F44FC
:103870008F4234BF0121002193448B4411B1934501
:1038800002D903E0934501D2012100E00021C3E900
:1038900001B7514445F82010011EA0F10100C1DC20
:1038A0000298059F00F10050800F12900298DDE908
:1038B00003568000FDF782F8834628460D91FDF7F8
:1038C0008EF86FF01D02FDF762F8CDE90E0130466B
:1038D000FDF785F86FF03D02FDF759F880468A46FE
:1038E0003846FDF77CF86FF05D02FDF750F80746AB
:1038F000424653461191FCF730FFDDE90E23FCF7F9
:103900002CFF5A460D9BFCF728FF00250E465A4611
:1039100028460D9BFCF7C2FFDDE90E23FCF7BEFF36
:1039200042465346FCF7BAFF3A46119BFCF7B9FFF3
:10393000DFF898A0244A5346FCF7F2FC0746884675
:10394000234A244B31462846FCF7EAFC3A464346D4
:10395000FCF703FF074688464FF0A842534631461E
:103960002846FCF7DDFC3A464346FCF7F6FE159A7E
:1039700012F0004F04D0129A81F00041524212928C
:10398000C4E90001129817B0BDE8F08FFB21E93FB0
:103990007CD90240FB21F93F7370032E8A19A33BA7
:1039A000000040543163621A61B4D03DFB213941BB
:1039B00083C8C96D305FE43F0000E03F144C000055
:1039C000904B0000724B0000182D4454FB21F93D30
:1039D0003326A611460B113C2DE9FF4D21F000487E
:1039E00007460C46B8F1795F08DAFDF705F80028BC
:1039F00001BF0020324904B0BDE8F08D3A462346AD
:103A000010461946FCF78CFC054602462D480E462A
:103A10000B460621784400F05DF82A463346FCF751
:103A20007FFCDDE9022382468B4638462146FCF7BF
:103A300077FC04460F4652465B4628463146FCF763
:103A40006FFC22463B46FCF729FF07468A464FF0AB
:103A5000FF3228463146FCF79AFF1B4A90450ADAA6
:103A60003A465346FCF71AFF04B00022BDE8F04D79
:103A7000134BFCF716BF154A4245A8BFA8F5001521
:103A80004FF00004B8BF124D22462B46FCF706FF4C
:103A90000646884622462B4600200949FCF7FEFED2
:103AA00004460D463A46534630464146FCF7F6FE7C
:103AB00004B022462B46BDE8F04DFCF7F2BE0000F4
:103AC0000000F03F484900003333D33F0000E93F96
:103AD0000000D23F2DE9F0414F1E00EBC701044624
:103AE000D1E9000115461E4637F006020DD02A46E0
:103AF0003346FCF715FC7F1E04EBC703D3E9002314
:103B0000FCF72BFE37F00602F1D1022F25D0042F4F
:103B100013D0062F18BFBDE8F0812A463346FCF7C4
:103B2000FFFBD4E90A23FCF718FE2A463346FCF7CC
:103B3000F7FBD4E90823FCF710FE2A463346FCF7CE
:103B4000EFFBD4E90623FCF708FE2A463346FCF7D0
:103B5000E7FBD4E90423FCF700FE2A463346FCF7D2
:103B6000DFFBD4E90223FCF7F8FD2A463346FCF7D5
:103B7000D7FBD4E90023BDE8F041FCF7EEBD00001F
:103B80002DE9FF4D054621F0004084B00C46B0F110
:103B9000795F0BDA2846FFF747FD042808BF00F0DD
:103BA0006FF8284608B02146BDE8F08D2A460B463E
:103BB0001046FCF7B5FB06460F462A462346FCF79F
:103BC000AFFB804626488A4632463B46052178446C
:103BD000FFF780FF83461098029160B3214A224B81
:103BE00040465146FCF79CFBCDE900015A46404651
:103BF0005146029BFCF794FB82468846DDE90601AC
:103C00004FF0FF32FCF7C3FE52464346FCF746FE38
:103C100032463B46FCF784FBDDE90623FCF73EFE1B
:103C2000DDE90023FCF73AFE08B02A462346BDE84A
:103C3000F04DFCF736BE0B465A4630463946FCF787
:103C40006FFB084A084BFCF788FD42465346FCF7D9
:103C500067FB08B02A462346BDE8F04DFCF77DBD62
:103C600086480000495555555555C5BF0122FCF7FA
:103C70008EBE0022134610461146FCF7C3BB00005F
:103C8000024A00201107FCF782BE000001FDFFFF81
:103C900002E008C8121F08C1002AFAD17047704715
:103CA000002001E001C1121F002AFBD17047000073
:103CB00001490860704700002C0100202DE9FF5FDA
:103CC00082B00021DDE90430020DDDF840B003438D
:103CD00018D044F61050A2F2FF3242431514119846
:103CE00001281FD0A5EB0B00401C5FEA000A4FF033
:103CF00000064E4FDFF83891B046504615D5CAF150
:103D0000000413E0119801244AA3012801D16FEAAD
:103D10000B010298119AC0E90031C0E9024206B0D5
:103D2000BDE8F09FCBF10000DFE704460021404AE8
:103D3000491842EB0450CDE9001012E0E00707D02B
:103D400032463B4640464946FCF7EAFA80468946F9
:103D500032463B4610461946FCF7E2FA06460F4645
:103D60006410002CEAD1DDE90401DDE90023BAF199
:103D7000000F06DAFCF7D4FA42464B46FCF7D0FABD
:103D800005E0FCF73FFB42464B46FCF73BFB044695
:103D90000E460022284BFCF79FFD03D84FF0FF3062
:103DA000014607E00022254B20463146FCF7D5FCB2
:103DB000FCF77AFD102409E0002C0ADB0A2200231C
:103DC000FCF706FC039B30321A55641E50EA0102D0
:103DD000F2D1641C039AC4F111031444119A012A0C
:103DE00003D0012208430DD10AE0084304D000208B
:103DF0004FF0110B119072E7A3EB0B056D1E0DE058
:103E00005B4504DD4FF0000205F1010504E003DA33
:103E10004FF00002A5F10105002AECD0029811999B
:103E2000C0E90231C0E9004579E700000000144014
:103E30000000F03F300000000000F0430000E03FD1
:103E40002DE9FF4F95B09A46884606460025EEE1DB
:103E5000252877D100242746F94A0121039400E060
:103E6000044316F8013F203B01FA03F01042F7D15A
:103E700030782A2811D06FF02F033078A0F130026B
:103E8000092A16D8039A44F0020402EB820203EBDB
:103E900042021044761C0390EFE758F8042B03927B
:103EA000002A03DA504244F40054039044F0020420
:103EB000761C30782E2816D116F8010F44F0040431
:103EC0002A280DD06FF02F023078A0F13003092B93
:103ED00009D807EB870302EB4303C718761CF3E707
:103EE00058F8047B761C30786C280FD006DC4C2800
:103EF00017D068280DD06A2814D104E0742810D097
:103F00007A280FD10DE044F400140AE044F4801440
:103F100001E044F440147278824202D104F5801426
:103F2000761C761C307866280BD013DC582877D0A6
:103F300009DC002875D04528F6D04628F4D047285B
:103F40001AD193E118E0632835D0642879D0652828
:103F500012D18BE1702873D008DC6728F1D0692872
:103F60006FD06E280DD06F2806D1ACE073282CD00E
:103F7000752874D0782853D05246179990476D1CF5
:103F800054E1C4F30250022809D003280DD0D8F818
:103F9000001004280DD00D6008F1040846E1D8F89F
:103FA0000010EA17C1E90052F6E7D8F800100D80BA
:103FB000F2E70D70F0E718F8041B8DF800100020F0
:103FC0008DF80100EB46012003E058F804BB4FF0E8
:103FD000FF3061074FF0000102D40DE009F101014B
:103FE0008946B9420FDA8145F8DB1BF80910002930
:103FF000F4D108E009F1010189468142FADB1BF89E
:1040000009100029F6D103985346A0EB0907214671
:104010003846179A00F080FA284400EB090507E0BB
:1040200044E008E10DE01BF8010B52461799904758
:10403000B9F10109F7D2534621463846179AF2E002
:1040400039E00A21C4F302524FF0000B0091022A1A
:1040500006D058F8040BC117032A09D00AE023E060
:1040600008F1070020F00702F2E80201904605E09F
:1040700000B2C117042A01D140B2C117002906DAE3
:104080000A460021404261EB02012D2202E0220596
:1040900004D52B228DF80420012203E0E20701D091
:1040A0002022F7E7914657E00A2100E010214FF067
:1040B000000B00910BE010214FF0000B44F00404C2
:1040C0000827009103E008204FF0000B0090C4F394
:1040D0000252022A05D058F8040B0021032A08D006
:1040E00008E008F1070020F00702F2E8020190461C
:1040F00003E080B2042A00D1C0B24FF000092207C9
:104100002AD53278702A07D0DDF800C08CF0100C68
:104110005CEA0B0C05D00EE040228DF80420012251
:1041200008E050EA010306D030238DF804308DF802
:10413000052002229146009B83F0080353EA0B03FB
:104140000AD150EA010201D1620705D530228DF86B
:1041500004204FF001097F1E3278582A04D039A27A
:104160000C920CAA02920BE03BA2F9E75B46009A84
:10417000FCF72EFA0C9B9B5C029A521E0292137063
:1041800050EA0102F2D1029804A9081A00F1200BAA
:10419000600702D524F4803400E001275F4502DD8A
:1041A000A7EB0B0000E0002000EB0B010090039850
:1041B0004944401A0390E00306D453462146179A17
:1041C000039800F0A9F90544002706E001A852462B
:1041D000C05D179990476D1C7F1C4F45F6DBE003CF
:1041E0000CD553462146179A039800F095F90544DB
:1041F00004E030205246179990476D1C0099481EE4
:1042000000900029F5DC08E00298029952460078F7
:10421000491C0291179990476D1CBBF10001ABF14D
:10422000010BF1DC5BE100F065F90544761C3078A8
:1042300000287FF40DAE19B02846BDE8F08F0000CD
:10424000092801003031323334353637383961626C
:104250006364656600000000303132333435363730
:10426000383941424344454600000000600700D40D
:10427000062708F1070020F00700F0E80223804637
:1042800003F0004C5FEA0C0001D097A009E0200584
:1042900001D596A005E0E00701D095A001E0AFF2BE
:1042A0004C001390307823F0004365280CD006DCD6
:1042B000452809D046281DD047287FD13BE06628F5
:1042C00018D067287AD136E00021112F01DB1120A8
:1042D00000E0781CCDE9000104A90CA8FFF7EEFC72
:1042E000DDE90D010C9A4FF0000B07F10109109266
:1042F00000914EE04FF000400097CDE9011004A975
:104300000CA8FFF7DBFCDDE90D020C9B0F994FF0C9
:10431000000B91461093009211B9791C00EB010932
:10432000B7EB090003D4C0F1FF3B07F10109A9EB8A
:104330000700019042E0012F00DA01270021112F30
:1043400001DD112000E03846CDE9000104A90CA8E8
:10435000FFF7B4FCDDE90D010C9A00914FF0000B62
:10436000B946109221070FD4009A4A4503DA9146C4
:1043700001E0A9F10109B9F1010F05DD109AA9F1D8
:104380000101515C3029F4D0B84202DA10F1040F77
:1043900003DA0121CDE9011010E0002803DC834499
:1043A000A9EB000102E0411C494500DD8946A0EB74
:1043B0000B00401C01904FF000400290200705D4F4
:1043C0000198484502DB4FF0FF30019000208DF846
:1043D0004B0002980DF14B07B0F1004F25D00220A1
:1043E0000C902B200D90029800280CDA404202908D
:1043F0002D200D9007E00A210298FCF7D3F8303108
:10440000029007F8011D0C99481E0C900029F2DC5F
:1044100002980028EFD1791E0D980870307800F0CE
:10442000200040F0450007F8020D11A8C01BC01D78
:1044300002901398007800B1012000EB0901019867
:1044400001EBE071029801440398401A401E03906A
:10445000E00306D453462146179A039800F05CF80F
:1044600005441398007818B15246179990476D1C6F
:10447000E00323D553462146179A039800F04CF8E1
:1044800005441BE0BBF1000F07DB0098584504DD35
:104490001098179910F80B0001E017993020524638
:1044A000904701980BF1010B401E05F101050190A9
:1044B00004D12E205246179990476D1CB9F1000186
:1044C000A9F10109DEDC05E017F8010B5246179946
:1044D00090476D1C0299481E02900029F4DC534657
:1044E0002146179A03989EE62D0000002B0000003D
:1044F000200000002DE9F041044600251E46174625
:10450000880404D405E039462020B0476D1C641EA1
:10451000F9D52846BDE8F0812DE9F0410446002593
:104520001E469046C80301D5302700E020278804A6
:1045300004D505E041463846B0476D1C641EF9D5E8
:104540002846BDE8F0810A68531C0B601070704764
:1045500000B5244B21F0004287B09A42DCBF002214
:10456000134629DD204B9A4208D140B94FF0010093
:10457000FFF79EFBFFF77DFB07B000BD03DBFFF7F6
:1045800075FB07B000BD02AAFFF762F810F0030147
:1045900004BF0DF1080C9CE80F000DD0012001298B
:1045A0000ED0022914D00DF1080C00909CE80F00E9
:1045B000FFF7E6FA07B000BDFFF70EFA07B000BD3F
:1045C0000DF1080C00909CE80F00FFF7D9FA05E008
:1045D0000DF1080C9CE80F00FFF7FEF907B081F021
:1045E000004100BDFB21E93F0000F07F10B504460B
:1045F0006FF00400FEF772FBE11704EB5171C1F399
:10460000C701074A11701046007800EB4001C1EB6A
:10461000C0104FF6FF7101EAC0000249088010BDCA
:10462000160100201801002001460D4A12884A4355
:104630004FF0E0235A6100229A6101221A6100BF03
:104640004FF0E022106900F001021AB100F480324C
:10465000002AF5D000224FF0E0231A619A617047DA
:104660001801002001460D4A12784A434FF0E0231A
:104670005A6100229A6101221A6100BF4FF0E022C4
:10468000106900F001021AB100F48032002AF5D05E
:1046900000224FF0E0231A619A6170471601002052
:1046A00070B504460D46E1B20548FEF732FD00BF85
:1046B00080210348FEF760FC0028F9D0204670BD39
:1046C000003801404820FFF791FFFEF715FCFDF789
:1046D000BBFCFDF7BBF90320FDF748F9FEF716FE1A
:1046E000FDF720FDFEF754FAFDF76EFE00200B49A2
:1046F00008700520FFF798FF0EE0FEF735FB07482E
:104700000078012802D0022804D102E0FCF754FA14
:1047100001E000E000BF00BFEFE700001A01002049
:1047200000B5254B21F0004287B09A4203DC0022FD
:10473000134600922BE0214B9A4208D140B94FF02A
:104740000100FFF7B5FAFFF794FA07B000BD03DBED
:10475000FFF78CFA07B000BD02AAFEF779FF10F050
:1047600003014FF001000DD0012914D002291AD005
:104770000DF1080C9CE80F00FFF72EF907B081F04F
:10478000004100BD0DF1080C00909CE80F00FFF700
:10479000F7F907B000BD0DF1080C9CE80F00FFF71A
:1047A0001BF907B000BD0DF1080C00909CE80F004C
:1047B000FFF7E6F9E2E70000FB21E93F0000F07FA8
:1047C00000000000000000000000000000000000E9
:1047D0000000001818181818180800081800000021
:1047E0000000003424242400000000000000000029
:1047F0000000000016247F2424247E2424000000CE
:10480000000000083E6848681C1612127C10100058
:1048100000000061D296740810162949C6000000F5
:10482000000000003C646438724ACE467F000000FD
:104830000000001818181800000000000000000018
:1048400000000004081810303030301010180C042C
:10485000000000201008080C0404040C08181020A4
:10486000000000080A341C6A080000000000000074
:104870000000000000001818187F18181800000029
:1048800000000000000000000000001818083000C0
:104890000000000000000000003C000000000000DC
:1048A00000000000000000000000001818000000D8
:1048B0000000000206040C08081010202040000030
:1048C000000000003C6642475B7342663C0000000B
:1048D0000000000018784808080808087E0000005A
:1048E000000000003C460606040810207E00000080
:1048F000000000007C0606043C0202067C0000006A
:10490000000000000C1C14246444FF040400000098
:10491000000000007E6060607E0202067C000000F5
:10492000000000001E306048764242623C000000F9
:10493000000000007E0206040C0818103000000081
:10494000000000003C6242361C6642423C0000000F
:10495000000000003C664242661A02047800000033
:1049600000000000000018180000001818000000E7
:10497000000000000000181800000018180830009F
:1049800000000000000004183060100C0600000059
:1049900000000000000000007E007E00000000001B
:1049A000000000000000301804060C102000000079
:1049B000000000301C060606181000101000000051
:1049C0000000001C224141DDB5A5A5AF94C0403CCC
:1049D00000000000181C342426627E43C100000041
:1049E000000000007C4642467C4242427C000000BF
:1049F000000000001E204040404040603E0000009B
:104A0000000000007C4642434343424678000000D9
:104A1000000000007E6060607E6060607E000000DC
:104A2000000000007E6060607E60606060000000EA
:104A3000000000001E604040CE4242623E00000086
:104A400000000000424242427E42424242000000D8
:104A5000000000007E181818181818187E000000B2
:104A6000000000007C0404040404044478000000F6
:104A7000000000004244485070584C44420000007E
:104A80000000000020202020202020203E000000E8
:104A9000000000006266675F5B5BC1C1C10000008F
:104AA00000000000626272525A4A4E464600000000
:104AB000000000003C6243C3C3C343623C000000EB
:104AC000000000007C464242467840404000000022
:104AD000000000003C6243C3C3C343623C180F00A4
:104AE000000000007C6662667C6C64666200000008
:104AF000000000003E6040601C0602027C000000D6
:104B0000000000007F181818181818181800000066
:104B10000000000042424242424242623C00000029
:104B200000000000C14342622624341C180000002B
:104B300000000000C1C141495B5B76666600000071
:104B40000000000043663418181C2466C3000000EF
:104B500000000000C14266341C181818180000003C
:104B6000000000007E02040C181020607E0000008F
:104B70000000001C10101010101010101010101C4D
:104B8000000000402020101008080C04060200005D
:104B90000000003C0C0C0C0C0C0C0C0C0C0C0C3C19
:104BA00000000000181C246200000000000000004B
:104BB000000000000000000000000000000000FFF6
:104BC00000000020100000000000000000000000B5
:104BD0000000000000003C06023E42467A00000051
:104BE0000000004040405C62424242427C000000C3
:104BF0000000000000001E20604060203E00000019
:104C00000000000202023E62424242663A00000098
:104C10000000000000003C62427E40603E00000058
:104C20000000000F1810107E10101010100000006F
:104C30000000000000003F66426658403E43423C90
:104C40000000004040405C6242424242420000009C
:104C50000000001818007808080808087E00000006
:104C6000000000040C007C040404040404040C7818
:104C7000000000606060626C787068646200000030
:104C80000000007808080808080808087E000000EE
:104C9000000000000000764B4B4B4B4B4B000000DC
:104CA0000000000000005C624242424242000000FC
:104CB0000000000000003C62424342623C000000F1
:104CC0000000000000005C62424242427C404040E2
:104CD0000000000000003E62424242663A020202C8
:104CE0000000000000006E72636060606000000001
:104CF0000000000000003E20203C06027C00000076
:104D0000000000001010FE10101010101E00000017
:104D10000000000000004242424242663A000000A9
:104D20000000000000004342662434181800000010
:104D3000000000000000C1C15B5A5E666600000012
:104D400000000000000062261C181C266200000003
:104D500000000000000043426624341C181830E0B4
:104D60000000000000007E060C1810207E000000ED
:104D70000000000E18101010307010101010180ED7
:104D800000000808080808080808080808080808B3
:104D900000000030180808080C0E08080808183031
:104DA0000000000000000000714B06000000000041
:104DB00000000000000000000000000000000000F3
:104DC00000000000000000000000000000000000E3
:104DD00000000000000000000000000000000000D3
:104DE000000000000000000000000380018001803E
:104DF000018001800180018001800180018000002C
:104E0000000003C003C0000000000000000000001C
:104E1000000000000000000000000E700E700E7018
:104E20000C30000000000000000000000000000046
:104E30000000000000000000000000000000000072
:104E40000000000000000000000000000618063806
:104E500006307FFE0C300C300C300C307FFE0C60C6
:104E60001C601860186000000000000000000000D6
:104E7000000000000000000000C000C00FF83CC8A7
:104E800031C031803D801F8003F001F8031C030C0A
:104E9000031C3FF83FE00700060000000000000090
:104EA00000000000000000001C007E0E630C631870
:104EB00063307E6000C001800300077C0EE61CC6E4
:104EC00018C630C6607C0000000000000000000032
:104ED000000000000000000000000FE01CF038702F
:104EE00038701C601FC00F003F8C71CC60EC607C80
:104EF00070383CFC1FCE00000000000000000000E5
:104F00000000000000000000000003C001800180DC
:104F10000180000000000000000000000000000010
:104F20000000000000000000000000000000000081
:104F30000000000000000000003000E001C001801F
:104F400003000700060006000E000E000E000E0013
:104F5000060007000300038001C000E000300000ED
:104F600000000000000000000C000600038001802B
:104F700001C000E000600060007000700070006020
:104F8000006000E000C00180038006000C0000000B
:104F900000000000000000000000018011881DB822
:104FA00003C007E03DBC0188018000000000000054
:104FB00000000000000000000000000000000000F1
:104FC00000000000000000000000000000000000E1
:104FD000018001800180018001807FFE01800180CD
:104FE00001800180000000000000000000000000BF
:104FF00000000000000000000000000000000000B1
:1050000000000000000000000000000000000000A0
:1050100003C003C001C001C003801F0000000000E6
:105020000000000000000000000000000000000080
:10503000000000000000000000000FF00000000071
:105040000000000000000000000000000000000060
:105050000000000000000000000000000000000050
:105060000000000000000000000000000000000040
:1050700003C003C003C000000000000000000000E7
:1050800000000000000000000000001800380030A0
:10509000006000E000C001C00180030003000600C2
:1050A0000E000C001C001800300000000000000082
:1050B0000000000000000000000001800FF01C381C
:1050C000381C301C707E70EE738E7E0E7C0C300CA3
:1050D000381C1E780FE000000000000000000000F7
:1050E00000000000000000000000000007C01FC01A
:1050F00039C001C001C001C001C001C001C001C070
:1051000001C03FFC3FFC0000000000000000000068
:105110000000000000000000000003801FF01838AD
:105120000038001800380038007001E003800700E4
:105130001C003FFC3FFC00000000000000000000DD
:105140000000000000000000000007801FF0003891
:1051500000380038003007E007F00038001C001C61
:10516000001820F83FE000000000000000000000F0
:1051700000000000000000000000000000F001B08E
:10518000033007300E301C30383070307FFE7FFE29
:10519000003000300030000000000000000000007F
:1051A0000000000000000000000000001FF81800D0
:1051B0001800180018001FE000F8001C001C001C5C
:1051C000003800F01FC000000000000000000000D8
:1051D00000000000000000000000000003F80F00C5
:1051E0001C001800300037F83C3C300C300C380CF8
:1051F000381C1E380FF00000000000000000000006
:105200000000000000000000000000003FFC001C47
:10521000001800380070006000E001C001800380C9
:10522000070006000E000000000000000000000063
:105230000000000000000000000003C01FF8381C40
:10524000381C381C1C380FF007F01C78381C300C48
:10525000381C3C380FF00000000000000000000087
:105260000000000000000000000003801FF038383C
:10527000301C701C700C380C1FFC0FCC001C00186C
:1052800000701FE01F800000000000000000000010
:10529000000000000000000000000000000000000E
:1052A000000003C003C001800000000000000000F7
:1052B00003C003C003C000000000000000000000A5
:1052C00000000000000000000000000000000000DE
:1052D000000003C003C001800000000000000000C7
:1052E00003C003C001C001C003800F000000000024
:1052F00000000000000000000000000000000000AE
:10530000003800F001C007001E0038000E000780C2
:1053100001C000700030000000000000000000002C
:10532000000000000000000000000000000000007D
:105330000000000000003FFC000000003FFC3FFCBC
:10534000000000000000000000000000000000005D
:10535000000000000000000000000000000000004D
:105360001C000F00038001E00078001C007001E0C9
:1053700003800E000C000000000000000000000090
:10538000000000000000000000000FC000F0003826
:1053900000380038003803F00380030003000000E9
:1053A00000000780078000000000000000000000EF
:1053B000000000000000000000E007F80C0C1806D8
:1053C0003006700363F36633C673CC63CC62CC667D
:1053D000CCE6C7FCE0006000700038101FF0000051
:1053E00000000000000000000000000003C007E013
:1053F00006E00E700E700C301C3818183FFC3FFC95
:10540000700E600EE00700000000000000000000C9
:105410000000000000000000000000003FF03838ED
:10542000381C381C38383FF03FF8381C380C380C22
:10543000381C3FF83FE000000000000000000000C2
:105440000000000000000000000000E007FC1E0457
:1054500038003800300070007000700030003800F4
:105460003C001F9C07FC0000000000000000000042
:105470000000000000000000000000003FF0307855
:10548000301C300C300E300E300E300E300E301C12
:1054900030383FF03FC00000000000000000000076
:1054A0000000000000000000000000001FF81800CD
:1054B0001800180018001FF81FF81800180018002E
:1054C00018001FF81FF80000000000000000000096
:1054D0000000000000000000000000001FF818009D
:1054E0001800180018001FF81FF8180018001800FE
:1054F0001800180018000000000000000000000064
:105500000000000000000000000000F007FC1E0486
:10551000380030007000700070FC700C700C300CA3
:10552000380C1F1C07FC00000000000000000000F9
:10553000000000000000000000000000300C300CF3
:10554000300C300C300C3FFC3FFC300C300C300C7D
:10555000300C300C300C0000000000000000000097
:105560000000000000000000000000003FFC01807F
:105570000180018001800180018001800180018023
:1055800001803FFC3FFC0000000000000000000024
:105590000000000000000000000000001FF00030CC
:1055A000003000300030003000300030003000307B
:1055B00000701DE01FC0000000000000000000009F
:1055C000000000000000000000000000381C3870DF
:1055D00038E039C03B803F003F003B8039C038E0B5
:1055E00038703838381C000000000000000000004F
:1055F0000000000000000000000000001C001C0073
:105600001C001C001C001C001C001C001C001C00BA
:105610001C001FFC1FFC0000000000000000000038
:10562000000000000000000000000000381C7C3C6E
:105630006C3E6E6E666E66CE63C66386618660067D
:105640006006600660060000000000000000000028
:105650000000000000000000000000003C0C3C0CBA
:105660003E0C360C330C338C318C31CC30EC306C3E
:10567000307C303C301C00000000000000000000C6
:105680000000000000000000000001C00FF81C3CFA
:10569000381C700E700E60066006700E700E700C76
:1056A000381C1E780FE00000000000000000000021
:1056B0000000000000000000000000003FF0383C47
:1056C000381C380C380C381C38783FE0380038006B
:1056D0003800380038000000000000000000000022
:1056E0000000000000000000000001C00FF81C3C9A
:1056F000381C700E700E60066006700E700E700C16
:10570000381C1E780FE0018001C000FF003C000043
:105710000000000000000000000000003FF03838EA
:1057200038183818383838F03FC038E03870383812
:105730003838381C380E000000000000000000005F
:105740000000000000000000000001E00FF8380039
:10575000380038003C001F8003F00078001C001C5B
:10576000001C38783FE0000000000000000000004E
:105770000000000000000000000000007FFE01802B
:105780000180018001800180018001800180018011
:105790000180018001800000000000000000000086
:1057A000000000000000000000000000300C300C81
:1057B000300C300C300C300C300C300C300C300C09
:1057C000381C1C380FF00000000000000000000032
:1057D000000000000000000000000000E006700E65
:1057E000700E381C381C1C181C380C300E700660EB
:1057F00007E003C003C0000000000000000000003C
:1058000000000000000000000000000060066006CC
:10581000600660066186638673C673CE766C366CEE
:105820003C3C3C3C381C0000000000000000000034
:10583000000000000000000000000000301C3818CC
:105840001C380E7007E003C003C007E00E701C3860
:105850001838381C700E0000000000000000000026
:10586000000000000000000000000000700E700C3E
:10587000381C1C380E70066007E003C001800180F0
:105880000180018001800000000000000000000095
:105890000000000000000000000000003FFC001CB1
:1058A0000038007000E001C0038007000E000C000B
:1058B00018003FFC3FFC000000000000000000005A
:1058C000000000000000000007F007F006000600DE
:1058D0000600060006000600060006000600060098
:1058E00006000600060006000600060007F000009D
:1058F0000000000000000000000018001C000C0068
:105900000600070003000380018001C000C00060A2
:105910000070003000380018000C0000000000008B
:1059200000000000000000000FE00FE000600060D9
:105930000060006000600060006000600060006067
:105940000060006000600060006000600FE0000028
:1059500000000000000000000000000003C006C0BE
:1059600006600C301818301C000000000000000019
:105970000000000000000000000000000000000027
:105980000000000000000000000000000000000017
:105990000000000000000000000000000000000007
:1059A000000000000000000000000000FFFF0000F9
:1059B000000000000000000000001E000380000046
:1059C00000000000000000000000000000000000D7
:1059D00000000000000000000000000000000000C7
:1059E00000000000000000000000000000000000B7
:1059F00000001FF01038001C001C0FFC1C1C381C81
:105A0000381C3CFC1FDC000000000000000000000F
:105A100000000000000000000000380038003800DE
:105A200038003BF83E1C3C1C380C380C380C380C49
:105A3000381C3C781FE0000000000000000000005F
:105A40000000000000000000000000000000000056
:105A5000000007F80E001C0038003800380038003D
:105A60001C000F1807F800000000000000000000F4
:105A700000000000000000000000001C001C001CD2
:105A8000001C0FFC1C1C381C301C301C301C301C33
:105A9000383C1CFC0F9C00000000000000000000CF
:105AA00000000000000000000000000000000000F6
:105AB00000000FF01C38381C300C3FFC3000300068
:105AC00038001E0C07FC0000000000000000000071
:105AD0000000000000000000003C01FE0380030005
